:100000000C948A010C94A7010C941A070C94A70174
:100010000C94A7010C94A7010C94A7010C94A701C0
:100020000C94A7010C94A7010C94A7010C94A701B0
:100030000C94A7010C9476190C94A7010C94A701B9
:100040000C941C1A0C94A7010C94A7010C94A70102
:100050000C94A7010C94A7010C94FF1A0C94A7010F
:100060000C94A7010C94A7010C94A7010C94A70170
:100070000C94A7010C94A7010C94A7010C94A70160
:100080000C94A7010C94A7010C94A7010C94A70150
:100090000C94A7010C94A7010C94A7010C94A70140
:1000A0000C94A7010C94A7010C94A7010C941D11AA
:1000B0000C94A8120C94A7010C94A7010C94A7010E
:1000C0000C94A7010C94A7010C94A7010C94A70110
:1000D0000C94A7010C94A7010C94A7010C94A70100
:1000E0000C94A7010C94A7010C94A7010C94A701F0
:1000F0000C94A7010C94A7010C94A7010C94A701E0
:100100000C94A7010C94A7010C94C6110C94A701A0
:100110000C94A7010C94A7010C94A7010C94A701BF
:100120000C94A7010C94A7010C94A7010C94A701AF
:100130000C94A7010C94A7010C94A7010C94A7019F
:100140000C94A7010C94A7010C94A7010C94A7018F
:100150000C94A7010C94DD200C94A7010C94A7012A
:100160000C94A7010C94A7010C94A7010C94A7016F
:100170000C94A7010C94A7010C94A7010C94A7015F
:100180000C94A7010C94A7010C94A7010C94A7014F
:100190000C94A7010C94A7010C94A7010C94A7013F
:1001A0000C94A7010C94A7010C94A7010C94A7012F
:1001B0000C94A7010C94A7010C94A7010C94A7011F
:1001C0000C94A7010C94A7010C94A7010C94A7010F
:1001D0000C94A7010C94A7010C94A7010C94A701FF
:1001E0000C94A7010C94A7010C94A7010C94A701EF
:1001F0000C94A7010C94A7010C94A701440DC60D03
:10020000C60DC60DC60DC60DC60DC60DC60DC60D56
:10021000C60DC60DC60DC60DC60DC60DC60DC60D46
:10022000C60DC60DC60DC60DC60DC60DC60DC60D36
:10023000C60DC60DC60DF20CF80CFE0C100D0A0D05
:10024000040D160D1C0D220DC60DC60DC60DC60DD6
:10025000C60DC60DC60DC60DC60DC60DC60DC60D06
:10026000C60DC60DC60DC60DC60DC60DC60DC60DF6
:10027000C60DC60DC60DC60DC60DC60DC60DC60DE6
:10028000A40D7A0CC60DC60D930DC60DC60DC60D78
:10029000C60DC60DC60DB50DC60DC60DC60D4F0B50
:1002A000EF0CC60DC60DC60DC60DC60DC60D280D2C
:1002B000C60DC60DC60DC60DC60DC60DC60DC60DA6
:1002C000C60DC60DC60DC60DC60DC60DC60DC60D96
:1002D000C60DC60DC60DC60DC60DC60DC60DC60D86
:1002E000C60DC60DC60DC60DC60DC60DC60D630ADC
:1002F000C60DC60DC60DC60DC60DC60DC60DC60D66
:10030000C60DC60DC60DC60DC60DC60DC60DC60D55
:10031000C60D330D11241FBECFEFCDBFDFE2DEBF10
:1003200010E2A0E0B0E2E8E7FAE402C005900D9226
:10033000A031B107D9F725E2A0E1B0E201C01D92DA
:10034000A339B207E1F70E942F190C943A250C94B7
:10035000000081E0809300021092010290E29093ED
:10036000020295E0909304028093200298E090931B
:1003700021028093280298E1909329028093300211
:1003800088E5809331020895EF92FF920F931F93B7
:10039000CF93DF939AE020E030E0E0E0F2E0A2E1EA
:1003A000B2E0808188608083808183FDFDCFCFE3D0
:1003B000D1E02197F1F700C000004D915C911197B9
:1003C000240F351F915069F7ADECBCEC0E94BD24A1
:1003D0009695879596958795969587958F3B9105E8
:1003E00008F475C0BC016E5B710980E090E00E946A
:1003F000492320E030E040E855E40E94002420E05A
:1004000030E244E755E40E94A8220E941A23609338
:10041000392070933A202091392030913A208091F0
:100420003720909138208217930728F010923920B6
:1004300010923A2050C04091392050913A2020919A
:1004400016203091172042175307B8F080913920B9
:1004500090913A202C503E4F8217930728F010922B
:10046000392010923A2037C08FEF9FE080933920D7
:1004700090933A20109225212EC020910421309192
:1004800005212115310539F16091392070913A200B
:10049000AB0160E070E07A018B01E81AF90A01090A
:1004A0001109C801B701052E5CE0660F771F881F90
:1004B000991F5A95D1F7502D40E050E00E949524A5
:1004C0002093392030933A201092252104C01092B5
:1004D000392010923A2080916D208823C1F18091BB
:1004E000392090913A20892BC9F481E080933C20F7
:1004F00080912F20853058F110923F20109240209B
:1005000081E090E080930621909307210E94D1081A
:1005100081E00E940D0910926D2019C081E090E0E9
:1005200080933F209093402010923C2010922F20E7
:100530008091FB20811107C081E0809325061092F5
:100540000621109207210E94D10810926D20DF91A0
:10055000CF911F910F91FF90EF9008954F925F926E
:100560006F927F928F929F92AF92BF92CF92DF92C3
:10057000EF92FF920F931F93CF93DF930F2EF8EC20
:10058000BF2EF02DC12CD12C7601C0E0D2E004E1C9
:1005900012E0888180618883888184FDFDCF8FE3AC
:1005A00091E00197F1F700C00000F80160817181CE
:1005B00080E090E00E9449239B01AC01C701B60195
:1005C0000E9437226B017C01BA94B110E2CF20E087
:1005D00030E048E453E40E94A8226B017C0120E053
:1005E00030E04EE353E40E94FB2318160CF07AC06F
:1005F00020E030E04EE353E4C701B6010E9436220A
:100600004B015C012FE632E143E05AE30E940024F3
:100610002B013C01C0906620D0906720E0906820BC
:10062000F09069202AE037ED43EA5BE3C701B601A9
:100630000E9437229B01AC01C301B2010E94A32298
:100640008823FCF41092FD201092FE201092FF20CF
:100650001092002120E030E04AE754E4C701B601DF
:100660000E9400240E941A2360930E2170930F2190
:1006700010926220109263201092642010926520E4
:1006800055C0A7019601C301B2010E94362220E0A5
:1006900030E040EA51E40E94A82220E030E04AE73E
:1006A00054E40E9400246093FD207093FE20809308
:1006B000FF209093002120E030E04AE754E4C70196
:1006C000B6010E9400240E941A2360930E217093A9
:1006D0000F218092622090926320A0926420B092B9
:1006E000652024C01092FD201092FE201092FF2061
:1006F0001092002120E030E04AE754E46091662047
:100700007091672080916820909169200E94002458
:100710000E941A2360930E2170930F211092622081
:1007200010926320109264201092652020E030E047
:1007300046EC52E4609112207091132080911420B5
:10074000909115200E9400242091FD203091FE20E0
:100750004091FF20509100210E94372220E030E09C
:1007600048EC52E40E94A8226B017C0160931220A5
:10077000709313208093142090931520609155203E
:1007800070E080E090E00E944B239B01AC01C70128
:10079000B6010E94FB23181634F4C701B6010E946B
:1007A0001A23609355206091022170E080E090E070
:1007B0000E944B239B01AC01C701B6010E94FB23A1
:1007C00018160CF045C081E080932A21D0910D21AC
:1007D000C0910D21A7019601C701B6010E94002416
:1007E0006B017C016D2F70E080E090E00E94492356
:1007F0004B015C016C2F70E080E090E00E944B2385
:100800009B01AC01C501B4010E9400249B01AC0115
:10081000C701B6010E9436226B017C0120E030E066
:10082000A9010E94FB23181634F560915D20709198
:100830005E2080915F20909160200E944923A70153
:1008400096010E94A8220E941A236093222113C0BD
:1008500060910D2170E080E090E00E944B239B01AD
:10086000AC01C701B6010E94A322882324F4109290
:100870002A2110922D21DF91CF911F910F91FF908E
:10088000EF90DF90CF90BF90AF909F908F907F9030
:100890006F905F904F9008958F929F92AF92BF920A
:1008A000EF92FF920F931F93CF93DF930F2EF0EDF4
:1008B000EF2EF7E0FF2EF02D812C912C5401C0E09B
:1008C000D2E004E112E0888180618883888184FD20
:1008D000FDCF8FE391E00197F1F700C00000F80130
:1008E0006081718180E090E00E9449239B01AC010E
:1008F000C501B4010E9437224B015C01F1E0EF1AFF
:10090000F10809F720E030E04AEF54E40E94A82201
:100910004B015C0120E030E04EE353E40E94FB23F6
:100920001816BCF420E030E04EE353E4C501B401F6
:100930000E9436222FE632E143E05AE30E9400246F
:10094000609366207093672080936820909369205D
:1009500008C01092662010926720109268201092B2
:100960006920DF91CF911F910F91FF90EF90BF9081
:10097000AF909F908F900895DF92EF92FF920F9328
:100980001F93CF93DF93D82E7B01D42F01E416E081
:10099000C0E1F801C083C093460682E00E94AA1914
:1009A0008D2D0E94AA196D2FC7010E94B719F80159
:1009B000C083C0934506DF91CF911F910F91FF90A7
:1009C000EF90DF900895EF92FF921F93CF93DF9304
:1009D00000D000D0CDB7DEB70F2EF1E4EF2EF6E059
:1009E000FF2EF02D10E1F70110831093460680ECE6
:1009F0000E94AA19F70110831093450619821A82E2
:100A00001B821C8241E0BE016F5F7F4F8DE00E9420
:100A1000BC0484E2898380E28A831B8243E0BE01B6
:100A20006F5F7F4F80E60E94BC0413E81B8380E762
:100A30008A8386E0898343E0BE016F5F7F4F88E24F
:100A40000E94BC04198341E0BE016F5F7F4F8BE2BF
:100A50000E94BC04198241E0BE016F5F7F4F80E3BA
:100A60000E94BC0441E0BE016F5F7F4F80E40E94A2
:100A7000BC04198241E0BE016F5F7F4F8FE00E948E
:100A8000BC0488E08093420680934A0685E0809308
:100A9000490682E08093530681E08093562093E0DC
:100AA0009093202180932B20109234201092FC20D0
:100AB0002496CDBFDEBFDF91CF911F91FF90EF90C5
:100AC0000895CF92DF92EF92FF921F93CF93DF931F
:100AD00000D000D0CDB7DEB70E94CB0710925620D1
:100AE000E6E4F6E084E080832FEF39EF90E02150D8
:100AF00030409040E1F700C000000F2EF5E4EF2EEB
:100B0000F6E0FF2EF02DD7018C930F2EF1E4CF2EBF
:100B1000F6E0DF2EF02D10E1D6011C93108380EC5F
:100B20000E94AA19F6011083D7011C9319821A8218
:100B30001B821C8241E0BE016F5F7F4F8DE00E94EF
:100B4000BC0484E2898380E28A831B8243E0BE0185
:100B50006F5F7F4F80E60E94BC0413E81B8380E731
:100B60008A8386E0898343E0BE016F5F7F4F88E21E
:100B70000E94BC04198341E0BE016F5F7F4F8BE28E
:100B80000E94BC04198241E0BE016F5F7F4F80E389
:100B90000E94BC0441E0BE016F5F7F4F80E40E9471
:100BA000BC04198241E0BE016F5F7F4F8FE00E945D
:100BB000BC0488E08093420680934A0685E08093D7
:100BC000490682E08093530681E080935620249664
:100BD000CDBFDEBFDF91CF911F91FF90EF90DF90EF
:100BE000CF900895DF92EF92FF920F931F93CF93D0
:100BF000DF93D82E7B01D42F01E416E0C0E1F80189
:100C0000C083C093460683E00E94AA198D2D0E94DE
:100C1000AA196D2FC7010E94CC19F801C083C09397
:100C20004506DF91CF911F910F91FF90EF90DF90DC
:100C30000895EF92FF920F931F93CF93DF931F922C
:100C4000CDB7DEB7082F0F2EF1E4EF2EF6E0FF2E22
:100C5000F02D10E1F70110831093460683E00E9407
:100C6000AA19802F0E94AA1961E0CE0101960E9464
:100C7000CC19F70110831093450689810F90DF91FD
:100C8000CF911F910F91FF90EF900895CF93DF9335
:100C9000CDB7DEB72B97CDBFDEBF89836A834B8389
:100CA000442379F0A22FB32FFE01349641509E01C8
:100CB000240F311D2B5F3F4F8D918193E217F30776
:100CC000D9F7CE0101960E9462082B96CDBFDEBFF8
:100CD000DF91CF9108952F923F924F925F926F9242
:100CE0007F928F929F92AF92BF92CF92DF92EF92BC
:100CF000FF920F931F93CF93DF9300D000D0CDB717
:100D0000DEB7282E462E542E590181E089833324E4
:100D1000339401E416E06894772474F8672C0F2E5E
:100D2000F6E4EF2EF6E0FF2EF02D9FEF940FE92F63
:100D3000F0E03196E20FF31FEB83FC830F2EF5E416
:100D4000CF2EF6E0DF2EF02D01C019823092032164
:100D5000F8016082F701608280E40E94AA1987E8A6
:100D60000E94AA198BEE0E94AA19822D0E94AA192C
:100D700083EA0E94AA19442021F080E40E94AA1963
:100D800010C0852D0E94AA19552059F04501F40183
:100D900081914F010E94AA198B819C818816990626
:100DA000B1F7F8017082F6017082F8017082F701E4
:100DB000708282E00E94AA1980E30E94AA198091A1
:100DC0000321882321F088E00E94AA1904C0F98138
:100DD000F13009F4BACF80E1809341068093450653
:100DE000109203212496CDBFDEBFDF91CF911F91DA
:100DF0000F91FF90EF90DF90CF90BF90AF909F90BA
:100E00008F907F906F905F904F903F902F900895BC
:100E1000CF93F8948CE10E941906C82F8DE10E94AF
:100E20001906C93710F4893710F00E9461057894CB
:100E3000CF9108951F920F920FB60F9211240F9326
:100E40001F932F933F934F935F936F937F938F9352
:100E50009F93AF93BF93EF93FF93CF93DF93CDB760
:100E6000DEB72D97CDBFDEBF809103218111109297
:100E700003218CE20E941906182F85FF09C080917A
:100E800010209091112001968093102090931120B2
:100E900011234CF4809110209091112001968093A1
:100EA00010209093112010FF2AC0FE01329688E096
:100EB000DF011D928A95E9F785E60E941906082F41
:100EC0000F700930E0F4402FBE016E5F7F4F86E661
:100ED0000E94F2051A861B861C861D8644E0BE0110
:100EE000665F7F4F81E60E94F2058B85882339F08B
:100EF0006C8570E0402FCE0102960E94E10711FF41
:100F00002AC0FE01329688E0DF011D928A95E9F73A
:100F100085E70E941906182F1F701930E0F4412F41
:100F2000BE016E5F7F4F86E70E94F2051A861B8620
:100F30001C861D8644E0BE01665F7F4F81E70E94EC
:100F4000F2058B85882339F06C8570E0412FCE0146
:100F500002960E94E107198241E0BE016F5F7F4F58
:100F60008CE20E94BC042D96CDBFDEBFDF91CF91F5
:100F7000FF91EF91BF91AF919F918F917F916F9171
:100F80005F914F913F912F911F910F910F900FBE45
:100F90000F901F9018951092A721109235218FEF76
:100FA000809336211092382110923421809337217A
:100FB0000895F8949091A721789481E0911180E0B0
:100FC0000895FF920F931F93CF93DF93F82E092F6D
:100FD000EB01142FF89480913621082E000C990B08
:100FE000019664E670E00E9481248093362180910E
:100FF000A7218F5F8093A72178948091A7218436C1
:1010000058F10E94D20D28C0811768F43091362122
:101010002081DC0148E03402A00DB11D1124A0594B
:10102000BD4D2C930BC020913621DC0138E023020A
:10103000A00DB11D1124A059BD4D1C9201963196F1
:101040008830910509F7E0913621EE0FFF0BE85546
:10105000FE4DC083D18305C0EF2DF02F80E090E0DE
:10106000D3CFDF91CF911F910F91FF900895809181
:10107000A721882331F1F894E0913521EE0FFF0B81
:10108000E855FE4D3081209135218091A721815076
:101090008093A72180913521082E000C990B019691
:1010A00064E670E00E94812480933521789488E082
:1010B0002802B001112460597D4D832F90E00E94D9
:1010C0004A0A0895FC01F89480913721082E000CFB
:1010D000990B01966AE070E00E9481248093372189
:1010E000809138218F5F80933821789480913821C6
:1010F000A09137218BE0A802D0011124A75CBE4D3E
:101100008BE001900D928A95E1F708958091382146
:10111000882309F1E09134218BE0E802F0011124E9
:10112000E75CFE4D80913821815080933821809179
:101130003421082E000C990B01966AE070E00E94A1
:101140008124809334219F012D5F3F4F4281618133
:1011500080810E946B060895CF93DF9300D0CDB7B6
:10116000DEB7882351F080919025882331F0609379
:10117000912581E0809392250FC08AEA89836A8352
:1011800081E0809390259E012F5F3F4F42E060E019
:1011900080EA90E00E9446060F900F90DF91CF9179
:1011A000089560913F207091402081E00E94AC083A
:1011B0000895CF93DF9300D01F92CDB7DEB78BEBAE
:1011C00089838091392090913A209A8380913920A7
:1011D00090913A208B839E012F5F3F4F43E060E068
:1011E00080EA90E00E9446062396CDBFDEBFDF91E5
:1011F000CF910895CF93DF931F92CDB7DEB7898348
:101200009E012F5F3F4F41E060E083EA90E00E9443
:1012100046060F90DF91CF910895CF93DF931F92F1
:10122000CDB7DEB789839E012F5F3F4F41E060E07D
:101230008CEA90E00E9446060F90DF91CF910895CE
:10124000CF93DF931F92CDB7DEB789839E012F5FC7
:101250003F4F41E060E08CEA90E00E9446060F902C
:10126000DF91CF910895CF93DF931F92CDB7DEB773
:1012700089839E012F5F3F4F41E060E08CEA90E060
:101280000E9446060F90DF91CF910895CF93DF9390
:101290001F92CDB7DEB783EA89839E012F5F3F4F50
:1012A00041E060E08EED90E00E9446062FEF89EF6E
:1012B00090E0215080409040E1F700C000000F9086
:1012C000DF91CF9108950F931F93CF93DF93CDB705
:1012D000DEB72897CDBFDEBF2FEF81EE94E021501F
:1012E00080409040E1F700C0000081E0898306E47F
:1012F00010E2F80180818A8381818B8382818C83D3
:1013000083818D8384818E8385818F83FFEF23EF9B
:1013100081E0F15020408040E1F700C000009E01D4
:101320002F5F3F4F47E060E083E590E00E94460674
:101330009FEFE3EFF1E09150E040F040E1F700C0B3
:10134000000082E08983F80186818A8387818B830C
:1013500080858C8381858D8382858E8383858F8331
:10136000FFEF23EF81E0F15020408040E1F700C023
:1013700000009E012F5F3F4F47E060E083E590E073
:101380000E9446069FEFE3EFF1E09150E040F0400D
:10139000E1F700C0000083E08983F80184858A8337
:1013A00085858B83FFEF23EF81E0F1502040804063
:1013B000E1F700C000009E012F5F3F4F43E060E077
:1013C00083E590E00E9446069FEFE3EFF1E0915045
:1013D000E040F040E1F700C000002896CDBFDEBF3E
:1013E000DF91CF911F910F910895CF93DF931F92BB
:1013F000CDB7DEB787E089839E012F5F3F4F41E085
:1014000060E08CEA90E00E9446062FEF89EF90E0C2
:10141000215080409040E1F700C000000F90DF9124
:10142000CF910895CF93DF931F92CDB7DEB79E0182
:101430002F5F3F4F41E060E084E990E00E94460664
:101440002FEF89EF90E0215080409040E1F700C0FD
:1014500000000F90DF91CF910895CF93DF931F92FB
:10146000CDB7DEB788E089839E012F5F3F4F41E013
:1014700060E08CEA90E00E9446062FEF89EF90E052
:10148000215080409040E1F700C000000F90DF91B4
:10149000CF910895CF92DF92EF92FF920F931F9317
:1014A000CF93DF93CDB7DEB76497CDBFDEBF835553
:1014B00091098C38910508F069C3DB0182509F4F78
:1014C000FC010C94B7248091192181115FC31596FA
:1014D0008C9115978F70813039F5809161208A3A0F
:1014E00041F481E090911121911180E080931121CC
:1014F00017C0809161208C3C21F080916120833065
:1015000021F481E0809366060BC0809161208B3BC3
:1015100039F48091240681FD03C082E08093250682
:101520008BEB8093612028C0811126C080916120BF
:101530008B3B41F481E090911121911180E08093E7
:10154000112117C0809161208C3C21F08091612095
:10155000833021F481E0809365060BC08091612087
:101560008A3A39F48091240681FF03C082E0809397
:1015700026068AEA8093612080911A21823009F43C
:1015800005C316968C918F7009F043C080911A2183
:10159000813009F0FBC210921A21809161208A3AB1
:1015A00009F0F4C280912A0990912B09009117212A
:1015B000109118218017910738F1C0901820D09011
:1015C0001920E0901A20F0901B2020E030E0A901C3
:1015D000C701B6010E94FB2318160CF0D7C2609118
:1015E0002A0970912B09601B710B80E090E00E942A
:1015F0004923A70196010E94A8220E941A23609302
:101600002F2170933021C2C210922F2110923021CD
:10161000BDC2813009F0BAC280911A218111B6C2CF
:1016200081E080931A21809161208A3A09F0AEC24C
:1016300080912A0990912B0900911721109118216E
:101640008017910738F1C0901C20D0901D20E090A9
:101650001E20F0901F2020E030E0A901C701B60154
:101660000E94FB2318160CF091C260912A09709118
:101670002B09601B710B80E090E00E944923A701B9
:1016800096010E94A8220E941A2360932F21709332
:1016900030217CC210922F211092302177C283E03A
:1016A0008093FB2010923F20109240208C91882341
:1016B00011F08D3D39F580916E2090916F209983C6
:1016C00080916E2090916F208A838091312190913A
:1016D00032219B8380913121909132218C839E0114
:1016E0002F5F3F4F44E060E084EA90E00E944606AE
:1016F000FFEF29EF80E0F15020408040E1F700C08B
:10170000000044C28A3A09F071C080913F20909154
:101710004020892BD1F38AE090E020E030E0E0E047
:10172000F2E062E172E0408148604083408143FD25
:10173000FDCFAFE3BFE11197F1F700C00000DB017F
:101740004D915C91240F351F019769F7ADECBCEC0E
:101750000E94BD2496958795969587959695879531
:101760008F3B910530F1BC016E5B710980E090E028
:101770000E94492320E030E040E855E40E94002424
:1017800020E030E244E755E40E94A8220E941A2398
:1017900080E090E00E94492320E030E040E05FE3F9
:1017A0000E9400240E941A2360936A2070936B2089
:1017B00004C010926A2010926B2080916A20909150
:1017C0006B2099838A839E012F5F3F4F42E060E048
:1017D00084EA90E00E944606BFEFE9EFF0E0B150E6
:1017E000E040F040E1F700C00000D0C18B3B09F0C1
:1017F0006BC08AE090E020E030E0E0E0F2E062E1FF
:1018000072E0408148604083408143FDFDCFAFE3FB
:10181000BFE11197F1F700C00000DB014D915C9131
:10182000240F351F019769F7ADECBCEC0E94BD2475
:101830009695879596958795969587958F3B910573
:1018400030F1BC016E5B710980E090E00E94492399
:1018500020E030E040E855E40E94002420E030E23F
:1018600044E755E40E94A8220E941A2380E090E0F9
:101870000E94492320E030E040E05FE30E94002422
:101880000E941A2360932C2070932D2004C0109284
:101890002C2010922D2080912C2090912D20998326
:1018A0008A839E012F5F3F4F42E060E084EA90E030
:1018B0000E944606BFEFE9EFF0E0B150E040F04093
:1018C000E1F700C0000062C18C3C09F05FC180916B
:1018D0006A2090916B2080936E2090936F2080916E
:1018E0002C2090912D2080933121909332210E94C1
:1018F000C0154CC14AE050E020E030E0E0E0F2E00A
:10190000A2E1B2E0808188608083808183FDFDCF89
:101910008FE39FE10197F1F700C000008D919C914A
:101920001197280F391F4150510961F7ADECBCECFC
:101930000E94BD249695879596958795969587954F
:101940008F3B910530F1BC016E5B710980E090E046
:101950000E94492320E030E040E855E40E94002442
:1019600020E030E244E755E40E94A8220E941A23B6
:1019700080E090E00E94492320E030E040E05FE317
:101980000E9400240E941A2360932C2070932D2023
:1019900004C010922C2010922D2080912C20909128
:1019A0002D2099838A839FEFA9EFB0E09150A0404A
:1019B000B040E1F700C000009E012F5F3F4F42E0C2
:1019C00060E087E990E00E944606EFEFF9EF20E043
:1019D000E150F0402040E1F700C00000D7C00E9475
:1019E0009913D4C08C9180932E210E944516CEC0AD
:1019F0008C91809308210E948F16C8C08C9180938F
:101A000027200E94D916C2C08C91809332200E9458
:101A10002317BCC08C91809314210E946D17B6C00F
:101A20008C91809326200E94B717B0C08C91809330
:101A30000D210E940118AAC08C91809301210E945F
:101A40004B18A4C08C9180933E200E9495189EC094
:101A50008C91843009F09AC083E08093FB2081E070
:101A60008093260693C081E0809320218C91813A57
:101A700009F08CC00E94460980917320882309F4E4
:101A800085C00E942D0A82C08C918130D1F4E6E499
:101A9000F0E211968C911197808312968C91129797
:101AA000818313968C911397828314968C9114974B
:101AB000838315968C911597848316968C918583D4
:101AC00065C08230D1F411968C911197E6E4F0E272
:101AD000868312968C911297878313968C91139715
:101AE000808714968C911497818715968C91159701
:101AF000828716968C91838749C0833089F411962A
:101B00008C911197E6E4F0E2848712968C91858798
:101B10004EE050E060E470E0CF010E94ED2436C05A
:101B20000E94630933C0809131208A3068F093E0CD
:101B300088ED08B618BE84BF909380008091820023
:101B400081FDFCCF08BEFFCF809131208A3068F044
:101B500093E088ED08B618BE84BF90938000809112
:101B6000820081FDFCCF08BEFFCF8C918C3A71F4CE
:101B700080919225882341F01092922560919125C1
:101B800080E00E94AC0802C0109290256496CDBF00
:101B9000DEBFDF91CF911F910F91FF90EF90DF900B
:101BA000CF900895CF93DF931F92CDB7DEB79E01FC
:101BB0002F5F3F4F41E060E089E090E00E944606E1
:101BC0002FEF89EF90E0215080409040E1F700C076
:101BD00000000F90DF91CF910895CF93DF931F9274
:101BE000CDB7DEB760911220709113208091142040
:101BF000909115200E941A2369839E012F5F3F4F09
:101C000041E060E086EA90E00E9446062FEF89EF0F
:101C100090E0215080409040E1F700C000000F901C
:101C2000DF91CF910895CF93DF931F92CDB7DEB7A9
:101C30008091552089839E012F5F3F4F41E060E0F6
:101C400087EA90E00E9446062FEF89EF90E021504E
:101C500080409040E1F700C000000F90DF91CF91ED
:101C60000895CF93DF93CDB7DEB72A97CDBFDEBF00
:101C7000198288E38A8322E0AE014F5F5F4F6CE3F5
:101C800084E790E20E947421198289E38A8322E02A
:101C9000AE014F5F5F4F6CE384E790E20E947421D6
:101CA000198284E18A8380E78B838EE58C838DE6BD
:101CB0008D8325E0AE014F5F5F4F6CE384E790E2D8
:101CC0000E94742119828CE08A8381E08B8386E0F4
:101CD0008C8324E0AE014F5F5F4F6CE384E790E2BA
:101CE0000E9474212A96CDBFDEBFDF91CF91089567
:101CF0008F929F92AF92BF92CF92DF92EF92FF921C
:101D00001F93CF93DF9383E0809361068093210636
:101D1000E6E2F6E081E0808392E09083E0E0F9E0A3
:101D2000808383E281838AEF9FE086A397A312A634
:101D300013A6E0E8F6E080898861808B838988615A
:101D4000838B828589608287818581608187A0E01D
:101D5000B6E055968C915597886155968C9355971A
:101D600056968C915697886156968C9356975496B2
:101D70008C915497886154968C9354971A968C91B1
:101D80001A9780671A968C931A9719968C911997BF
:101D9000816019968C9382898861828B81898861A0
:101DA000818B838586608387818584608187E0E27B
:101DB000F3E085E08083118280E1828380910121BC
:101DC000843638F08FEF9FEF809338039093390378
:101DD0002FC06091012170E080E090E00E944923D3
:101DE00020E030E040EA51E40E94002420E030E0AE
:101DF0004AE754E40E94A82220916620309167208F
:101E000040916820509169200E9437222FE632E1EC
:101E100043E050E40E94A82220E030E040E855E48E
:101E20000E9400240E941A236093380370933903A0
:101E30002FEF87E893E1215080409040E1F700C008
:101E4000000083E0809361208091080685FF04C034
:101E50008091080686FD04C081E08093192102C0AC
:101E60001092192181E080931A2110921121109271
:101E700021211092FB20109224218091880682FF5C
:101E800005C081E0809312218093FB208091880619
:101E900080FD03C081E08093232110923F201092A7
:101EA00040201092392010923A20809114218823EA
:101EB00009F4ACC180912620882309F4A7C1809140
:101EC0003220882309F4A2C160912E21109114219F
:101ED00070E0C0E0D0E1CE010E946D2480E090E08F
:101EE0000E9449236B017C01612F70E080E090E04B
:101EF0000E94492320E030E048EC52E40E94A822EE
:101F00009B01AC01C701B6010E94A8220E941A23BE
:101F10006B017C01609323207093242060912E211B
:101F20001091262070E0CE010E946D2480E090E0A8
:101F30000E9449234B015C01612F70E080E090E03A
:101F40000E94492320E030E048EC52E40E94A8229D
:101F50009B01AC01C501B4010E94A8220E941A2372
:101F600060931E2170931F2110913220B60180E0F2
:101F700090E00E9449236B017C01612F70E080E0BA
:101F800090E00E94492320E030E048EC52E40E94B7
:101F9000A8229B01AC01C701B6010E94A8220E94A1
:101FA0001A23609335207093362060912E2170E0C3
:101FB000CE010E946D2480E090E00E94492320E041
:101FC00030E044EB52E40E94002420E030E048EC92
:101FD00052E40E94A8220E941A2360931C2170934D
:101FE0001D21609108211091142170E0CE010E9402
:101FF0006D2480E090E00E9449236B017C01612FF9
:1020000070E080E090E00E94492320E030E048EC5E
:1020100052E40E94A8229B01AC01C701B6010E94B4
:10202000A8220E941A236B017C0160932B217093DC
:102030002C21609108211091262070E0CE010E9491
:102040006D2480E090E00E9449234B015C01612FE8
:1020500070E080E090E00E94492320E030E048EC0E
:1020600052E40E94A8229B01AC01C501B4010E9468
:10207000A8220E941A2360931521709316211091B3
:102080003220B60180E090E00E9449236B017C0180
:10209000612F70E080E090E00E94492320E030E072
:1020A00048EC52E40E94A8229B01AC01C701B60192
:1020B0000E94A8220E941A2360930B2170930C2186
:1020C0006091082170E0CE010E946D2480E090E0D4
:1020D0000E94492320E030E044EB52E40E940024B7
:1020E00020E030E048EC52E40E94A8220E941A232B
:1020F00060934220709343206091142170E080E04F
:1021000090E00E94492320E030E048EC52E40E9435
:10211000A82226E636E646E65FE30E9400246B012D
:102120007C0160931C2070931D2080931E2090934F
:102130001F206091262070E080E090E00E944923FB
:1021400020E030E048EC52E40E94A82226E636E681
:1021500046E65FE30E9400246093182070931920E4
:1021600080931A2090931B206091322070E080E0D1
:1021700090E00E94492320E030E048EC52E40E94C5
:10218000A822A70196010E94002460932621709343
:102190002721809328219093292189E991E0809338
:1021A0001721909318216091322070E080E090E038
:1021B0000E94492320E030E048EC52E40E94A8222B
:1021C00020E030E040E855E40E9400240E941A23F9
:1021D000609370207093712020916E2030916F2059
:1021E000220F331F209337203093382080913121E4
:1021F00090913221880F991F809316209093172079
:10220000821B930B809304219093052110922F2120
:1022100010923021109206211092072189E08093BC
:102220001021DF91CF911F91FF90EF90DF90CF9021
:10223000BF90AF909F908F9008951F920F920FB60E
:102240000F9211242F933F934F935F936F937F933C
:102250008F939F93AF93BF93EF93FF9380918806E3
:1022600080FD0FC08091880683FD04C08091080620
:1022700084FF07C08DE00E94330982E080934120F3
:1022800011C08091880680FD04C08091880683FD7E
:1022900009C080914120823029F48EE00E943309E8
:1022A000109241208091880683FD38C08091880675
:1022B00080FD34C08091080684FD30C080912021CB
:1022C000833061F18091392090913A20892B91F4EB
:1022D0008091FB2081110EC081E080936D2080935E
:1022E0003C2010922F20809125218436F0F110920D
:1022F00025213BC081E090E080933F2090934020D7
:102300000E94D1088091FB2081112FC081E0809331
:102310002506109206211092072127C080913F20A8
:1023200090914020892B11F01092102110923F20A3
:102330001092402010926D2010923C2010922F207D
:102340000E94D10880912321823049F4809188062F
:1023500080FF05C083E00E940D091092232181E0D7
:1023600090E08093062190930721FF91EF91BF9118
:10237000AF919F918F917F916F915F914F913F911D
:102380002F910F900FBE0F901F9018951F920F92D4
:102390000FB60F9211242F933F934F935F936F9338
:1023A0007F938F939F93AF93BF93EF93FF9380910E
:1023B000880680FD0AC08091080684FF06C08DE073
:1023C0000E94330982E0809341208091080685FDB8
:1023D00043C080912021833021F481E08093192132
:1023E000A6C080912021813041F58093FB2080910F
:1023F0003F2090914020892B11F0109210211092D3
:102400003F201092402010922F211092302181E025
:1024100090E080930621909307210E94D10885E0E7
:102420000E940D0980912321882309F480C082E055
:102430000E940D09109223217AC08AEA80936120BC
:1024400081E08093192190911121911180E0809376
:102450001121109221216BC08091080686FD42C097
:1024600080912021833021F481E0809319215FC085
:1024700080912021813039F58093FB2080913F208D
:1024800090914020892B11F01092102110923F2042
:102490001092402010922F211092302181E090E084
:1024A00080930621909307210E94D10885E00E9425
:1024B0000D09809123218823D1F182E00E940D092A
:1024C0001092232134C08BEB8093612081E08093B4
:1024D000192190911121911180E080931121109286
:1024E000212125C080913F2090914020892B11F01F
:1024F0001092102110923F20109240200E94D1088B
:102500008CEC809361201092192186E00E940D09C5
:1025100082E08093260681E090E0809306219093EC
:1025200007218091FB20833011F01092FB20FF9156
:10253000EF91BF91AF919F918F917F916F915F913B
:102540004F913F912F910F900FBE0F901F901895B4
:102550001F920F920FB60F921124CF92DF92EF923B
:10256000FF922F933F934F935F936F937F938F933C
:102570009F93AF93BF93EF93FF938091880682FF61
:1025800057C080913F2090914020019729F0809181
:102590001021893008F04CC088EB9BE080932F21FC
:1025A0009093302160912F217091302180E090E054
:1025B0000E94492320911C2030911D2040911E2013
:1025C00050911F200E9400246B017C016091172113
:1025D0007091182180E090E00E9449239B01AC019A
:1025E000C701B6010E9437220E941A23E0E0F9E0F9
:1025F00062A773A72FEF8FE19EE4215080409040A7
:10260000E1F700C0000010923F201092402012A677
:1026100013A62FEF87EA91E6215080409040E1F722
:1026200000C0000081E090E0809306219093072194
:102630008091880681FD33C082E080931A218091C9
:1026400061208A3A09F060C020912A0930912B0953
:10265000809117219091182128173907D8F060919F
:102660002A0970912B09681B790B80E090E00E9489
:102670004923209118203091192040911A2050911F
:102680001B200E94A8220E941A2360932F2170937E
:1026900030213AC010922F211092302135C0809104
:1026A0001A21823089F581E080931A21809161207E
:1026B0008A3A51F520912A0930912B0980911721EE
:1026C0009091182128173907D8F060912A09709144
:1026D0002B09681B790B80E090E00E944923209130
:1026E0001C2030911D2040911E2050911F200E94DF
:1026F000A8220E941A2360932F217093302104C0D6
:1027000010922F2110923021FF91EF91BF91AF9144
:102710009F918F917F916F915F914F913F912F91F9
:10272000FF90EF90DF90CF900F900FBE0F901F9013
:102730001895FF920F931F93CF93DF93F8946EE158
:1027400084E190E00E94FD2468E085E190E00E9431
:10275000FD246CE080E190E00E94FD246CE381E1C7
:1027600090E00E94FD246CE383E190E00E94FD2450
:1027700064E682E190E00E94FD246EE186E190E053
:102780000E94FD2464E687E190E00E94FD246DE252
:1027900088E190E00E94FD2460E070E089E190E033
:1027A0000E94082560E078E08BE190E00E94082517
:1027B00084E190E00E94D82480932E2185E190E06E
:1027C0000E94D8248093082180E190E00E94D824C0
:1027D0008093272081E190E00E94D82480933220CA
:1027E00083E190E00E94D8248093262082E190E04B
:1027F0000E94D8248093142186E190E00E94D8247E
:1028000080930D2187E190E00E94D82480930121DC
:1028100088E190E00E94D82480933E2089E190E0F6
:102820000E94E82480936E2090936F208BE190E0CB
:102830000E94E8248093312190933221F0902E2140
:1028400060910821F0912720E0913220709126209C
:102850005091142140910D213091012120913E2071
:1028600000916E2010916F20C0916E20D0916F204A
:102870008091312190913221A0913121B09132216A
:102880006F256F276E2767276527642763276227D1
:1028900080278D278B2768278FE190E00E94FD24F9
:1028A0007894DF91CF911F910F91FF9008952F920F
:1028B0003F924F925F926F927F928F929F92AF92D0
:1028C000BF92CF92DF92EF92FF920F931F93CF931D
:1028D000DF93CDB7DEB76097CDBFDEBF80E290E07B
:1028E0000E94D8248A3A39F10E9499136AEA80E258
:1028F00090E00E94FD248FE0E0E0F0E2DE0111961E
:1029000001900D928A95E1F74EE050E060E470E0AE
:10291000CE0101960E94ED24EFECF1E08081882346
:10292000ECF34EE050E060E470E086E490E20E9458
:10293000CC24109254204EE050E060E470E086E435
:1029400090E20E94CC24809146208235B1F08FE045
:10295000E0E0F0E2DE01119601900D928A95E1F738
:102960004EE050E060E470E0CE0101960E94ED245C
:10297000EFECF1E080818823ECF34EE050E060E47E
:1029800070E086E490E20E94CC241092542084E10E
:1029900090E00E94D82480932E2185E190E00E944F
:1029A000D8248093082180E190E00E94D82480936D
:1029B000272081E190E00E94D8248093322083E197
:1029C00090E00E94D8248093262082E190E00E942B
:1029D000D8248093142186E190E00E94D82480932B
:1029E0000D2187E190E00E94D8248093012188E1A5
:1029F00090E00E94D82480933E2089E190E00E94DC
:102A0000E82480936E2090936F208BE190E00E94E9
:102A1000E824809331219093322120902E21309010
:102A200008214090272050903220C0902620D0903E
:102A30001421E0900D21F090012180913E20888B9F
:102A400060906E2070906F2080906E2090906F202C
:102A50000091312110913221A0903121B09032218A
:102A60008FE190E00E94D824322443245424C524CA
:102A7000DC24ED24FE249889F926062509250B255A
:102A8000F026F81629F081E0809373200E949913B4
:102A900060910D2170E080E090E00E9449232DECD0
:102AA0003CEC4CE85FE30E9400240E941A236093F0
:102AB000022160910121E0900121F0900D2100910F
:102AC0000D2110913E2070E080E090E00E944923AB
:102AD0004B015C016E2D70E080E090E00E944B2382
:102AE0009B01AC01C501B4010E9400244B015C01B3
:102AF0006F2D70E080E090E00E9449236B017C0123
:102B0000602F70E080E090E00E944B239B01AC01BD
:102B1000C701B6010E9400249B01AC01C501B401AC
:102B20000E9436226B017C01612F70E080E090E012
:102B30000E944B239B01AC01C701B6010E940024F7
:102B40000E941A2360935D2070935E2080935F2023
:102B5000909360206096CDBFDEBFDF91CF911F9133
:102B60000F91FF90EF90DF90CF90BF90AF909F902C
:102B70008F907F906F905F904F903F902F9008952F
:102B8000FF920F931F93CF93DF93F89460912E21C0
:102B900084E190E00E94FD246091082185E190E0AD
:102BA0000E94FD246091272080E190E00E94FD2496
:102BB0006091322081E190E00E94FD246091262006
:102BC00083E190E00E94FD246091142182E190E075
:102BD0000E94FD2460910D2186E190E00E94FD2479
:102BE0006091012187E190E00E94FD2460913E20E8
:102BF00088E190E00E94FD2460916E2070916F202A
:102C000089E190E00E940825609131217091322184
:102C10008BE190E00E940825F0902E216091082120
:102C2000F0912720E09132207091262050911421BC
:102C300040910D213091012120913E2000916E2084
:102C400010916F20C0916E20D0916F208091312122
:102C500090913221A0913121B09132216F256F27BF
:102C60006E276727652764276327622780278D27BC
:102C70008B2768278FE190E00E94FD247894DF91F4
:102C8000CF911F910F91FF900895FF920F931F9383
:102C9000CF93DF93F89460912E2184E190E00E941D
:102CA000FD24EFECF1E080818823ECF3F0902E21FD
:102CB00060910821F0912720E09132207091262028
:102CC0005091142140910D213091012120913E20FD
:102CD00000916E2010916F20C0916E20D0916F20D6
:102CE0008091312190913221A0913121B0913221F6
:102CF0006F256F276E27672765276427632762275D
:102D000080278D278B2768278FE190E00E94FD2484
:102D10007894DF91CF911F910F91FF900895FF92CA
:102D20000F931F93CF93DF93F8946091082185E16F
:102D300090E00E94FD24EFECF1E080818823ECF329
:102D4000F0902E2160910821F0912720E09132200F
:102D5000709126205091142140910D213091012134
:102D600020913E2000916E2010916F20C0916E2026
:102D7000D0916F208091312190913221A091312109
:102D8000B09132216F256F276E276727652764274B
:102D90006327622780278D278B2768278FE190E0A4
:102DA0000E94FD247894DF91CF911F910F91FF90A5
:102DB0000895FF920F931F93CF93DF93F894609140
:102DC000272080E190E00E94FD24EFECF1E080817B
:102DD0008823ECF3F0902E2160910821F0912720B8
:102DE000E0913220709126205091142140910D21C4
:102DF0003091012120913E2000916E2010916F2092
:102E0000C0916E20D0916F2080913121909132211C
:102E1000A0913121B09132216F256F276E2767274E
:102E2000652764276327622780278D278B276827DC
:102E30008FE190E00E94FD247894DF91CF911F9163
:102E40000F91FF900895FF920F931F93CF93DF93FD
:102E5000F8946091322081E190E00E94FD24EFEC33
:102E6000F1E080818823ECF3F0902E21609108211D
:102E7000F0912720E091322070912620509114216A
:102E800040910D213091012120913E2000916E2032
:102E900010916F20C0916E20D0916F2080913121D0
:102EA00090913221A0913121B09132216F256F276D
:102EB0006E276727652764276327622780278D276A
:102EC0008B2768278FE190E00E94FD247894DF91A2
:102ED000CF911F910F91FF900895FF920F931F9331
:102EE000CF93DF93F8946091142182E190E00E94E7
:102EF000FD24EFECF1E080818823ECF3F0902E21AB
:102F000060910821F0912720E091322070912620D5
:102F10005091142140910D213091012120913E20AA
:102F200000916E2010916F20C0916E20D0916F2083
:102F30008091312190913221A0913121B0913221A3
:102F40006F256F276E27672765276427632762270A
:102F500080278D278B2768278FE190E00E94FD2432
:102F60007894DF91CF911F910F91FF900895FF9278
:102F70000F931F93CF93DF93F8946091262083E102
:102F800090E00E94FD24EFECF1E080818823ECF3D7
:102F9000F0902E2160910821F0912720E0913220BD
:102FA000709126205091142140910D2130910121E2
:102FB00020913E2000916E2010916F20C0916E20D4
:102FC000D0916F208091312190913221A0913121B7
:102FD000B09132216F256F276E27672765276427F9
:102FE0006327622780278D278B2768278FE190E052
:102FF0000E94FD247894DF91CF911F910F91FF9053
:103000000895FF920F931F93CF93DF93F8946091ED
:103010000D2186E190E00E94FD24EFECF1E080813B
:103020008823ECF3F0902E2160910821F091272065
:10303000E0913220709126205091142140910D2171
:103040003091012120913E2000916E2010916F203F
:10305000C0916E20D0916F208091312190913221CA
:10306000A0913121B09132216F256F276E276727FC
:10307000652764276327622780278D278B2768278A
:103080008FE190E00E94FD247894DF91CF911F9111
:103090000F91FF900895FF920F931F93CF93DF93AB
:1030A000F8946091012187E190E00E94FD24EFEC0B
:1030B000F1E080818823ECF3F0902E2160910821CB
:1030C000F0912720E0913220709126205091142118
:1030D00040910D213091012120913E2000916E20E0
:1030E00010916F20C0916E20D0916F20809131217E
:1030F00090913221A0913121B09132216F256F271B
:103100006E276727652764276327622780278D2717
:103110008B2768278FE190E00E94FD247894DF914F
:10312000CF911F910F91FF900895FF920F931F93DE
:10313000CF93DF93F89460913E2088E190E00E9465
:10314000FD24EFECF1E080818823ECF3F0902E2158
:1031500060910821F0912720E09132207091262083
:103160005091142140910D213091012120913E2058
:1031700000916E2010916F20C0916E20D0916F2031
:103180008091312190913221A0913121B091322151
:103190006F256F276E2767276527642763276227B8
:1031A00080278D278B2768278FE190E00E94FD24E0
:1031B0007894DF91CF911F910F91FF9008950E9415
:1031C0009C190E940E1A2FEF37EA81E621503040F9
:1031D0008040E1F700C0000084E0809361068093A6
:1031E00066069FEF27EA31E6915020403040E1F734
:1031F00000C0000080936506809345060E94CB07BF
:103200000E94A9010E944C048FEF99EF20E08150A9
:1032100090402040E1F700C0000083E08093B000C0
:1032200088E1809350062BE940E460E874E084E78D
:1032300090E20E9405210E94571487E08093A2002B
:1032400078940E94E3040E94310E0E94780E0E943E
:10325000EE1981E080931B210E94120A089584E0F8
:1032600080934106809346060E94DF180E94C401A5
:103270000E94AE0280912A20833080F0809120212C
:10328000813061F480912B20811108C08091FB2056
:10329000811104C00E94D90810922A200E94D907E7
:1032A000811108C080915620882321F00E943708A0
:1032B0000E940807809172208C3350F080913F204B
:1032C00090914020019721F40E94ED0D1092722000
:1032D00080915720909158208E32914038F20E9470
:1032E000130E1092572010925820C0CF1F920F92A9
:1032F0000FB60F9211242F933F934F935F936F93C9
:103300007F938F939F93AF93BF93EF93FF9384E744
:1033100090E20E941A22FF91EF91BF91AF919F918D
:103320008F917F916F915F914F913F912F910F906E
:103330000FBE0F901F901895E1E4F6E080E18083C6
:103340008093450680E2808380E8808382ED8093CD
:10335000C00808958093C30889EE9DEFE0ECF8E083
:1033600002C0019719F022812223DCF708950F9300
:103370001F93CF93DF93662351F08C01EC01060F6E
:10338000111D89910E94AA19C017D107D1F7DF91A9
:10339000CF911F910F910895EF92FF920F931F937A
:1033A000CF93DF93662399F08C01EC01060F111D7A
:1033B0000F2EF0ECEF2EF8E0FF2EF02D80E00E94B3
:1033C000AA19F70193819993C017D107B9F7DF9133
:1033D000CF911F910F91FF90EF900895E0E0F8E0FA
:1033E00097E0908381E0878322E13AE720A731A725
:1033F000E0E4F8E026E02083878324ED30E320A793
:1034000031A7E0E4F9E0908387838DE093E080A723
:1034100091A710922A2110922D210895E0E5F0E065
:10342000808182608083818181FFFDCF88ED84BFB0
:1034300081E08093400008951F920F920FB60F9283
:1034400011242F933F934F935F936F937F938F93A9
:103450009F93AF93BF93EF93FF9310922008109226
:103460002108809172208F5F809372208091572075
:1034700090915820019680935720909358208091E6
:103480003C20882329F080912F208F5F80932F206C
:1034900080912A21882379F080912D218F5F80935C
:1034A0002D2190912221981740F483E08093FB20F6
:1034B0000E94F50902C010922D21809119218823C4
:1034C00001F1809120218130E1F485E00E940D0915
:1034D00081E08093FB2081E090E08093062190932F
:1034E000072182E08093260610922F21109230212E
:1034F00010923F20109240200E94D1081092192172
:1035000035C080911921882389F180912021811172
:103510002DC080916120833049F58091080685FD9A
:103520000CC081E0809319219AEA909361208093E6
:10353000650682E08093260619C08091080686FD04
:103540000CC081E0809319219BEB909361208093C4
:10355000660682E08093250609C08CEC809361208A
:103560008091FB20833011F01092FB20809112217A
:10357000882349F08091880682FF03C081E10E9480
:1035800020091092122180912321882351F08091EB
:10359000880680FD03C082E00E940D0982E08093CE
:1035A000232180912B20882381F080912B2091E092
:1035B000980F90932B20863040F08091202183300B
:1035C00011F41092202110922B20809131208A300A
:1035D00028F4809131208F5F80933120FF91EF910B
:1035E000BF91AF919F918F917F916F915F914F911B
:1035F0003F912F910F900FBE0F901F9018951F9223
:103600000F920FB60F921124CF92DF92EF92FF929A
:103610002F933F934F935F936F937F938F939F93DA
:10362000AF93BF93EF93FF931092600810926108DD
:1036300080912A208F5F80932A20809110218930E9
:1036400058F480913F2090914020892B29F480915B
:1036500010218F5F80931021809106219091072186
:10366000892BD1F0809106219091072101968093BA
:1036700006219093072180912720209106213091E7
:10368000072190E08217930738F4109206211092D8
:10369000072181E0809326068091FB2081119AC149
:1036A00080912421882309F4CEC0809161208A3A38
:1036B00009F058C0809123209091242020912F213F
:1036C00030913021AC014650504F24173507B8F4E3
:1036D00020912F2130913021820F931F80932F2131
:1036E00090933021E0E0F9E022A533A580911C21E0
:1036F00090911D21820F931F82A793A78AC080916A
:103700002F21909130218AEF9FE080932F21909379
:10371000302160912F217091302180E090E00E9453
:10372000492320911C2030911D2040911E20509152
:103730001F200E9400246B017C0160911721709171
:10374000182180E090E00E9449239B01AC01C70151
:10375000B6010E9437220E941A2360932A097093AF
:103760002B0957C0809135209091362020912F2130
:1037700030913021AC014650504F24173507B8F432
:1037800020912F2130913021820F931F80932F2180
:1037900090933021E0E0F9E022A533A580911C212F
:1037A00090911D21820F931F82A793A732C0809111
:1037B0002F21909130218AEF9FE080932F219093C9
:1037C000302160912F217091302180E090E00E94A3
:1037D0004923209126213091272140912821509181
:1037E00029210E9400246B017C01609117217091B6
:1037F000182180E090E00E9449239B01AC01C701A1
:10380000B6010E9437220E941A2360932A097093FE
:103810002B0980913B2091E0980F90933B208B30B7
:1038200008F4B6C48091880682FD07C083E08093C7
:10383000FB208CEC0E94FA08ABC4109224218BEB85
:103840000E94FA08A5C480911121813009F0C2C0FC
:10385000809161208B3B09F07CC080911A218130DE
:10386000E1F520912F213091302180912B219091F1
:103870002C218217930788F010922F21109230216B
:1038800010922A0910922B091092112182E0809344
:10389000250681E0809366067BC420912F2130911C
:1038A00030218217930708F073C420912F213091A3
:1038B0003021A901481B590B40932F2150933021EF
:1038C000E0E0F9E082A593A52091422030914320C9
:1038D000821B930B82A793A75BC420912F21309169
:1038E000302180911521909116218217930788F03D
:1038F00010922F211092302110922A0910922B0938
:103900001092112182E08093250681E08093660663
:103910003FC420912F21309130218217930708F066
:1039200037C420912F2130913021A901481B590B18
:1039300040932F2150933021E0E0F9E082A593A538
:103940002091422030914320821B930B82A793A7A2
:103950001FC4809161208A3A09F01AC420912F2156
:103960003091302180910B2190910C218217930787
:1039700088F010922F211092302110922A09109273
:103980002B091092112182E08093260681E080931A
:103990006506FEC320912F213091302182179307B5
:1039A00008F0F6C320912F2130913021A901481B46
:1039B000590B40932F2150933021E0E0F9E082A58C
:1039C00093A52091422030914320821B930B82A724
:1039D00093A7DEC380913F2090914020892B89F0EE
:1039E000809161208C3C69F080916120833049F0A6
:1039F0008091FB20811105C080912121813009F047
:103A0000B9C0809161208B3BD9F520912F21309155
:103A1000302180910B2190910C218217930780F027
:103A200010922F211092302110922A0910922B0906
:103A300080912121882309F4ABC310922121A8C3CE
:103A400020912F21309130218217930708F0A0C3D5
:103A500020912F2130913021A901481B590B40930F
:103A60002F2150933021E0E0F9E082A593A5209129
:103A7000422030914320821B930B82A793A788C3D7
:103A800080911A218130D9F520912F213091302158
:103A900080912B2190912C218217930780F0109216
:103AA0002F211092302110922A0910922B09809117
:103AB0002121882309F46CC31092212169C320912C
:103AC0002F21309130218217930708F061C3209194
:103AD0002F2130913021A901481B590B40932F21F0
:103AE00050933021E0E0F9E082A593A52091422097
:103AF00030914320821B930B82A793A749C3209147
:103B00002F2130913021809115219091162182171B
:103B1000930780F010922F211092302110922A09E1
:103B200010922B0980912121882309F431C310922E
:103B300021212EC320912F2130913021821793070C
:103B400008F026C320912F2130913021A901481B74
:103B5000590B40932F2150933021E0E0F9E082A5EA
:103B600093A52091422030914320821B930B82A782
:103B700093A70EC320912F213091302180913920BD
:103B800090913A202817390708F054C1809161209C
:103B90008B3B09F06EC08091392090913A202091A2
:103BA00035203091362040912F2150913021820FC5
:103BB000931F48175907B8F480912F219091302115
:103BC000280F391F20932F2130933021E0E0F9E0B6
:103BD00022A533A580911C2190911D21820F931F56
:103BE00082A793A7D5C28091392090913A20209145
:103BF0002F2130913021845691098217930740F488
:103C00008091392090913A208C399F4008F4C0C2AD
:103C10008091392090913A2080932F2190933021E8
:103C200060912F217091302180E090E00E94492323
:103C3000209126213091272140912821509129213E
:103C40000E9400246B017C01609117217091182162
:103C500080E090E00E9449239B01AC01C701B601BE
:103C60000E9437220E941A2360932A0970932B091D
:103C70008FC280911A21813009F06EC08091392065
:103C800090913A20209123203091242040912F219F
:103C900050913021820F931F48175907B8F4809133
:103CA0002F2190913021280F391F20932F213093FD
:103CB0003021E0E0F9E022A533A580911C2190910C
:103CC0001D21820F931F82A793A762C28091392082
:103CD00090913A2020912F213091302184569109E2
:103CE0008217930740F48091392090913A208D39C2
:103CF0009F4008F44DC28091392090913A208093E2
:103D00002F219093302160912F217091302180E0FC
:103D100090E00E94492320911C2030911D20409169
:103D20001E2050911F200E9400246B017C01609195
:103D300017217091182180E090E00E9449239B0197
:103D4000AC01C701B6010E9437220E941A2360937A
:103D50002A0970932B091CC28091392090913A2036
:103D600020911E2130911F2140912F21509130210F
:103D7000820F931F48175907B8F480912F21909113
:103D80003021280F391F20932F2130933021E0E07C
:103D9000F9E022A533A580911C2190911D21820F6D
:103DA000931F82A793A7F4C18091392090913A2064
:103DB00020912F2130913021845691098217930749
:103DC00040F48091392090913A208C399F4008F43A
:103DD000DFC18091392090913A2080932F219093D8
:103DE000302160912F217091302180E090E00E947D
:103DF0004923209118203091192040911A20509188
:103E00001B200E9400246B017C016091172170919E
:103E1000182180E090E00E9449239B01AC01C7017A
:103E2000B6010E9437220E941A2360932A097093D8
:103E30002B09AEC120912F21309130218091392062
:103E400090913A208217930708F0A2C180916120D7
:103E50008B3B09F089C08091392090913A202091C4
:103E60000B2130910C2140912F2150913021820F54
:103E7000931F84179507B8F480912F2190913021DA
:103E8000821B930B80932F2190933021E0E0F9E087
:103E900082A593A52091422030914320821B930B51
:103EA00082A793A775C18091392090913A202091E3
:103EB0002F21309130218C599F4F28173907C0F19D
:103EC00080912F21909130218536910588F1809144
:103ED000392090913A2080932F2190933021609146
:103EE0002F217091302180E090E00E9449232091A1
:103EF00026213091272140912821509129210E948B
:103F000000246B017C01609117217091182180E0E1
:103F100090E00E9449239B01AC01C701B6010E94B9
:103F200037220E941A2360932A0970932B0930C10B
:103F30008091392090913A208536910508F028C16A
:103F400080913F2090914020892B09F021C110924F
:103F50002F21109230218091172190911821809368
:103F60002A0990932B0914C180911A21813009F0FC
:103F700089C08091392090913A2020912B21309155
:103F80002C2140912F2150913021820F931F8417B3
:103F90009507B8F480912F2190913021821B930BCB
:103FA00080932F2190933021E0E0F9E082A593A542
:103FB0002091422030914320821B930B82A793A72C
:103FC000E7C08091392090913A2020912F213091A3
:103FD00030218C599F4F28173907C0F180912F212C
:103FE000909130218536910588F18091392090910A
:103FF0003A2080932F219093302160912F2170914E
:10400000302180E090E00E94492320911C203091D3
:104010001D2040911E2050911F200E9400246B0102
:104020007C01609117217091182180E090E00E943E
:1040300049239B01AC01C701B6010E9437220E94AF
:104040001A2360932A0970932B09A2C0809139200A
:1040500090913A208536910508F09AC080913F20D2
:1040600090914020892B09F093C010922F2110923B
:104070003021809117219091182180932A099093E3
:104080002B0986C08091392090913A2020911521EA
:104090003091162140912F2150913021820F931F92
:1040A00084179507B8F480912F2190913021821BBD
:1040B000930B80932F2190933021E0E0F9E082A5CB
:1040C00093A52091422030914320821B930B82A71D
:1040D00093A75EC08091392090913A2020912F21A2
:1040E000309130218C599F4F28173907C0F18091AA
:1040F0002F21909130218536910588F180913920CA
:1041000090913A2080932F219093302160912F211C
:104110007091302180E090E00E9449232091182086
:104120003091192040911A2050911B200E940024A8
:104130006B017C01609117217091182180E090E063
:104140000E9449239B01AC01C701B6010E9437229E
:104150000E941A2360932A0970932B0919C0809139
:10416000392090913A208536910590F480913F2036
:1041700090914020892B61F410922F2110923021D0
:10418000809117219091182180932A0990932B09EF
:10419000FF91EF91BF91AF919F918F917F916F911F
:1041A0005F914F913F912F91FF90EF90DF90CF90D3
:1041B0000F900FBE0F901F9018951F920F920FB681
:1041C0000F9211242F933F934F935F936F937F939D
:1041D0008F939F93AF93BF93EF93FF930E948608B3
:1041E0001092600910926109FF91EF91BF91AF9118
:1041F0009F918F917F916F915F914F913F912F91FF
:104200000F900FBE0F901F901895FC016083718373
:104210004863DB0111964C93A081B18115962C93D4
:104220000190F081E02D81E084830895EF92FF9268
:104230000F93CF93DF93EC01253608F048C00A3185
:1042400008F047C0FC01EC57FF4F8081811143C04B
:1042500081E0808331961082660F6A832223A1F069
:104260007A016FEF620F70E06F5F7F4F640F751F11
:10427000FA01DF01AE19BF099191AC0FBD1F139672
:104280009C93E617F707A9F7FE01E058FF4F20833C
:10429000DE01AF57BF4F0C9311961C9211961C92E2
:1042A0008081882339F08A818E7FE881F981868335
:1042B00081E014C0FE01EF57FF4F8081882369F031
:1042C0008A818160E881F981868381E007C080E08E
:1042D00005C080E003C080E001C081E0DF91CF91A4
:1042E0000F91FF90EF9008950F9300E00E94162128
:1042F0002FEF39EF90E0215030409040E1F700C0BF
:1043000000000F910895DC01ED91FC91119724813B
:1043100022FF05C034E0AB57BF4F3C9305C033E0EC
:10432000DC01AB57BF4F3C9328602483FC01EC5762
:10433000FF4F10820895CF93DF93FC01E058FF4FA9
:10434000308131964081DC01ED91FC91248124FF84
:104350000AC023E02383FC01EB57FF4F25E02083B5
:104360003197108225C0DC01AE57BF4F2C91231727
:1043700050F42C91EC01C20FD11D8B8187838C915D
:104380008F5F8C9315C0DC01AD57BF4F2C91241764
:1043900030F4DC0112968C918160868309C023E0A1
:1043A0002383FC01EB57FF4F21E0208331971082DC
:1043B000DF91CF910895FC01ED57FF4F2081293106
:1043C00090F4DC01ED91FC9111972781FC01ED57F0
:1043D000FF4F3081A30FB11DA959BF4F2C932081EE
:1043E0002F5F20830CC0DC01ED91FC9123E023833F
:1043F00022E0FC01EB57FF4F208331971082FC0134
:10440000EF57FF4F308132962081231730F4DC01C3
:10441000ED91FC9182E083830895DC01ED91FC91A4
:1044200027E02383FC01EB57FF4F21E020833197E6
:1044300010820895DC01ED91FC912481322F3C70B3
:1044400019F00E948321089526FF03C00E949B213A
:10445000089522231CF40E94DB210895FC01EB57F0
:10446000FF4F26E020833197108208955058BB27D4
:10447000AA270E944E220C94C1230E94B32338F035
:104480000E94BA2320F039F49F3F19F426F40C94CB
:10449000B0230EF4E095E7FB0C94AA23E92F0E94C9
:1044A000D22358F3BA17620773078407950720F0E1
:1044B00079F4A6F50C94F4230EF4E0950B2EBA2FA4
:1044C000A02D0B01B90190010C01CA01A00111241A
:1044D000FF27591B99F0593F50F4503E68F11A16C6
:1044E000F040A22F232F342F4427585FF3CF469557
:1044F00037952795A795F0405395C9F77EF41F1679
:10450000BA0B620B730B840BBAF09150A1F0FF0F42
:10451000BB1F661F771F881FC2F70EC0BA0F621F2E
:10452000731F841F48F4879577956795B795F7951E
:104530009E3F08F0B0CF9395880F08F09927EE0FB3
:104540009795879508950E94862308F481E0089541
:104550000E94BC220C94C1230E94BA2358F00E94EE
:10456000B32340F029F45F3F29F00C94AA235111A2
:104570000C94F5230C94B0230E94D22368F3992362
:10458000B1F3552391F3951B550BBB27AA2762174F
:104590007307840738F09F5F5F4F220F331F441F5C
:1045A000AA1FA9F335D00E2E3AF0E0E832D0915090
:1045B0005040E695001CCAF72BD0FE2F29D0660F7D
:1045C000771F881FBB1F261737074807AB07B0E8C0
:1045D00009F0BB0B802DBF01FF2793585F4F3AF0C6
:1045E0009E3F510578F00C94AA230C94F5235F3F6D
:1045F000E4F3983ED4F3869577956795B795F7954C
:104600009F5FC9F7880F911D9695879597F9089533
:10461000E1E0660F771F881FBB1F621773078407CF
:10462000BA0720F0621B730B840BBA0BEE1F88F7DE
:10463000E09508950E94DA2388F09F5798F0B92FEB
:104640009927B751B0F0E1F0660F771F881F991FC7
:104650001AF0BA95C9F714C0B13091F00E94F42352
:10466000B1E008950C94F423672F782F8827B85F62
:1046700039F0B93FCCF3869577956795B395D9F71F
:104680003EF490958095709561957F4F8F4F9F4F29
:104690000895E89409C097FB3EF490958095709535
:1046A00061957F4F8F4F9F4F9923A9F0F92F96E97E
:1046B000BB279395F695879577956795B795F111F3
:1046C000F8CFFAF4BB0F11F460FF1BC06F5F7F4F90
:1046D0008F4F9F4F16C0882311F096E911C07723A2
:1046E00021F09EE8872F762F05C0662371F096E8AB
:1046F000862F70E060E02AF09A95660F771F881F7A
:10470000DAF7880F9695879597F90895990F00081D
:10471000550FAA0BE0E8FEEF16161706E807F90793
:10472000C0F012161306E407F50798F0621B730B2E
:10473000840B950B39F40A2661F0232B242B252BAF
:1047400021F408950A2609F4A140A6958FEF811D52
:10475000811D089597F99F6780E870E060E00895F3
:104760009FEF80EC089500240A9416161706180689
:104770000906089500240A94121613061406050665
:104780000895092E0394000C11F4882352F0BB0FF6
:1047900040F4BF2B11F460FF04C06F5F7F4F8F4F59
:1047A0009F4F089557FD9058440F551F59F05F3F94
:1047B00071F04795880F97FB991F61F09F3F79F043
:1047C00087950895121613061406551FF2CF4695C5
:1047D000F1DF08C0161617061806991FF1CF869547
:1047E0007105610508940895E894BB27662777272B
:1047F000CB0197F908950E94862308F48FEF08955E
:104800000E9413240C94C1230E94B32338F00E9409
:10481000BA2320F0952311F00C94AA230C94B02312
:1048200011240C94F5230E94D22370F3959FC1F3B9
:10483000950F50E0551F629FF001729FBB27F00D4E
:10484000B11D639FAA27F00DB11DAA1F649F6627A3
:10485000B00DA11D661F829F2227B00DA11D621FF2
:10486000739FB00DA11D621F839FA00D611D221FAC
:10487000749F3327A00D611D231F849F600D211D90
:10488000822F762F6A2F11249F5750409AF0F1F013
:1048900088234AF0EE0FFF1FBB1F661F771F881F7C
:1048A00091505040A9F79E3F510580F00C94AA23E7
:1048B0000C94F5235F3FE4F3983ED4F38695779507
:1048C0006795B795F795E7959F5FC1F7FE2B880F22
:1048D000911D9695879597F90895AA1BBB1B51E1E9
:1048E00007C0AA1FBB1FA617B70710F0A61BB70B60
:1048F000881F991F5A95A9F780959095BC01CD0105
:10490000089597FB072E16F4009407D077FD09D081
:104910000E946D2407FC05D03EF4909581959F4F31
:104920000895709561957F4F0895A1E21A2EAA1BF4
:10493000BB1BFD010DC0AA1FBB1FEE1FFF1FA2174F
:10494000B307E407F50720F0A21BB30BE40BF50B4C
:10495000661F771F881F991F1A9469F760957095D5
:10496000809590959B01AC01BD01CF010895EE0F9C
:10497000FF1F0590F491E02D0994A29FB001B39F11
:10498000C001A39F700D811D1124911DB29F700D58
:10499000811D1124911D0895E0ECF1E0A785A7FD8C
:1049A000FDCFA485A860A4876050704F0C9431257A
:1049B00003D0808199270895E0ECF1E0378537FD39
:1049C000FDCF348538603487FC01E050F04F089506
:1049D0000E94DC24808191810895DC01A40FB51F21
:1049E0004150504048F0CB01840F951F2E910E94FA
:1049F000FE2441505040D0F70895262F0E94DC2419
:104A00000080021619F00E940F2501970197089562
:104A10000196272F0E94FE240C94FD24262FE0EC03
:104A2000F1E0378537FDFDCF3485377F3487378513
:104A300031FF09C036E3328738ED34BF31E03387C8
:104A4000378537FDFDCF33E3328780839183128230
:104A5000248325E3228728ED31E024BF33870196A4
:104A60000895FB01DC0102C001900D9241505040BD
:084A7000D8F70895F894FFCF78
:104A78005256303030303030303030303030000046
:00000001FF
