S013000041325F52425F3830305F4D2E7372656308
S11300000C94AD010C94D1010C94540D0C94D101B9
S11300100C94D1010C94D1010C94D1010C94D10114
S11300200C94D1010C94D1010C94D1010C94D10104
S11300300C94D1010C9469240C94D1010C94D10139
S11300400C94012E0C94D1010C94D1010C94D10187
S11300500C94D1010C94D1010C943C2A0C94D10140
S11300600C94D1010C94D1010C94D1010C94D101C4
S11300700C94D1010C94D1010C94D1010C94D101B4
S11300800C94D1010C94D1010C94310B0C94D1013A
S11300900C94D1010C94D1010C94D1010C94D10194
S11300A00C94D1010C94D1010C94D1010C94240A28
S11300B00C94D1010C94D1010C94D1010C94D10174
S11300C00C94D1010C94D1010C94D1010C94D10164
S11300D00C94D1010C94D1010C94D1010C94842B77
S11300E00C94D1010C94D1010C94D1010C94D10144
S11300F00C94D1010C94D1010C94D1010C94D10134
S11301000C94700A0C94D1010C94500B0C94D101F2
S11301100C94D1010C94D1010C94D1010C94D10113
S11301200C94D1010C94D1010C94D1010C94D10103
S11301300C94D1010C94D1010C94D1010C942B2C6E
S11301400C94D1010C94D1010C94D1010C94D101E3
S11301500C94D1010C94E12A0C94D1010C94D1019A
S11301600C94D1010C94D1010C94D1010C94D101C3
S11301700C94D1010C94D1010C94D1010C94D101B3
S11301800C94D1010C94D1010C94D1010C94D101A3
S11301900C94F51E0C94D1010C94D1010C94D10152
S11301A00C946E1E0C94D1010C94D1010C94D101C9
S11301B00C94D1010C94D1010C9499290C94D10183
S11301C00C94D1010C94D1010C94D1010C94D10163
S11301D00C94D1010C94D1010C94D1010C94D10153
S11301E00C94D1010C94D1010C94D1010C94D10143
S11301F00C94D1010C94D1010C94D101EE178819FF
S11302008819881988198819881942198819881928
S113021088198819881988198819881988198819D2
S1130220E518881988198819881988198819881966
S113023088198819881988198819881988198819B2
S113024088198819881988198819881988198819A2
S11302508819881988198819881988198819881992
S11302608819881988198819881988198819881982
S113027088198819881988198819881988195219A8
S113028048195C19881988198819881988198819CE
S11302908819881988198819881988198819451995
S11302A08819E2187719881988198819881966191C
S11302B088198819881988198819881913180B1826
S11302C088198C188819DF1836193C198819881967
S11302D06A188819BB1888198819881988198819FF
S11302E08819881988198819881988198819881902
S11302F0EB17881988198819881988198819881991
S113030088198819881988198819881988198819E1
S113031088198819E7179F1888198819881988195E
S113032088198819881988198819881988198819C1
S11303308819881988198819D51888198819881965
S113034088198819881988198819881988198819A1
S11303508819881988198819951811241FBECFEF98
S1130360CDBFDFE2DEBF18BE19BE1ABE1BBE10E24F
S1130370A0E0B0E2E8ECFAE600E00BBF02C00790B0
S11303800D92A432B107D9F71BBE2AE2A4E2B0E26F
S113039001C01D92A430B207E1F70E94C41F0C945F
S11303A062350C94000081E08093000210920102F7
S11303B090E29093020225E020930402809340028D
S11303C010924102909342022093440280932002AF
S11303D028E5209321028093280220E52093290216
S11303E080936002909361028093680298E29093F4
S11303F069028093700290E3909371028093780273
S113040088E38093790208950F931F93CF93DF932A
S113041000D0CDB7DEB74AE050E020E030E0E0E0C5
S1130420F2E0A0E1B2E0808184608083808182FD7B
S1130430FDCF8FE391E00197F1F700C000008D91AB
S11304409C911197280F391F4150510961F7ADEC68
S1130450BCEC0E94F4319695879596958795969570
S1130460879520914B232830A1F0E22FF0E0EE0F86
S1130470FF1FEF5AFF4D808391832F5F20934B23FF
S1130480022F10E010161106ACF040E050E0BA0163
S113049022C0E1E5F0E26FE570E2428153814193CD
S11304A05193E617F707C9F780935F209093602074
S11304B008E010E0E1E5F0E280E090E040E050E0A8
S11304C0BA01A191B1914A0F5B1F611D711D019683
S11304D080179107B4F3022F10E020E030E0CB0145
S11304E0BA01A90198010E94C831822F932FE22FEB
S11304F040914C2050914D20BC016B5F7F4F64179D
S1130500750720F005974817590728F4E0934C2005
S113051030934D200FC0E0934C2030934D2029831D
S11305203A839E012F5F3F4F42E060E08AEB90E008
S11305300E94800C0F900F90DF91CF911F910F912B
S113054008954AE050E020E030E0E0E0F2E0A2E18B
S1130550B2E0808188608083808183FDFDCF8FE35A
S113056091E00197F1F700C000008D919C911197E3
S1130570280F391F4150510961F7ADECBCEC0E94C2
S1130580F431BC0176956795769567957695679570
S113059061157105F9F020914C2030914D2044E112
S11305A0429FC001439F900D11240E94A0316731E6
S11305B0710560F080918D2581110CC081E08093DC
S11305C08D2510927C200E944929089510928D2532
S11305D010927C2008954F925F926F927F928F9237
S11305E09F92AF92BF92CF92DF92EF92FF920F93BE
S11305F01F93CF93DF930F2EFAE0EF2EF12CF02D03
S1130600812C912C5401C0E4D2E000E512E08881F1
S113061084608883888182FDFDCFF80160817181C7
S113062080E090E00E947C309B01AC01C501B401E4
S11306300E946A2F4B015C01F1E0EF1AF10839F7CF
S113064020E030E040E251E40E94DB2F4B015C01EA
S113065020E030E04EE353E40E942E3118160CF0F3
S113066078C020E030E04EE353E4C501B4010E94B9
S1130670692F4B015C012FE632E143E05AE30E940B
S113068033316B017C0120E030E040E05FE3C501E1
S1130690B4010E9433310E944D30609380207093E6
S11306A081204090992050909A2060909B207090D7
S11306B09C202AE037ED43EA5BE3C301B2010E94C8
S11306C06A2F9B01AC01C701B6010E94D62F882373
S11306D08CF41092402110924121109242211092E8
S11306E0432110929D2010929E2010929F201092E0
S11306F0A0203FC0A3019201C701B6010E94692F47
S113070020E030E040EA51E40E94DB2F20E030E0BA
S11307104AEF53E40E9433316093402170934121A6
S1130720809342219093432120E030E04AE754E44F
S11307300E9433310E944D3060935F237093602395
S113074080929D2090929E20A0929F20B092A02003
S113075010C0109240211092412110924221109217
S1130760432110929D2010929E2010929F2010925F
S1130770A02080919320882399F120E030E04EEB73
S113078052E4609158237091592380915A23909197
S11307905B230E9433316B017C0120E030E040EAAE
S11307A050E46091402170914121809142219091C7
S11307B043210E9433319B01AC01C701B6010E9461
S11307C06A2F20E030E048EC52E40E94DB2F609373
S11307D058237093592380935A2390935B2387C3A0
S11307E020E030E044EB52E46091582370915923A7
S11307F080915A2390915B230E9433316B017C01D9
S113080020E030E040E251E46091402170914121C8
S113081080914221909143210E9433319B01AC018C
S1130820C701B6010E946A2F20E030E048EC52E490
S11308300E94DB2F609358237093592380935A238B
S113084090935B2354C3888188608883888183FD67
S1130850FDCFF8016081718180E090E00E947C30DE
S11308609B01AC01C501B4010E946A2F4B015C01DC
S1130870F1E0EF1AF10839F720E030E040E251E40A
S11308800E94DB2F4B015C0120E030E04EE353E497
S11308900E942E3118160CF078C020E030E04EE3B0
S11308A053E4C501B4010E94692F4B015C012FE69A
S11308B032E143E05AE30E9433316B017C0120E0D2
S11308C030E040E05FE3C501B4010E9433310E948F
S11308D04D30609356237093572340907620509068
S11308E0772060907820709079202AE037ED43EAF1
S11308F05BE3C301B2010E946A2F9B01AC01C701F3
S1130900B6010E94D62F88238CF4109240211092B5
S11309104121109242211092432110929D20109265
S11309209E2010929F201092A0203FC0A30192010C
S1130930C701B6010E94692F20E030E040EA51E48B
S11309400E94DB2F20E030E04AEF53E40E94333171
S113095060934021709341218093422190934321DD
S113096020E030E04AE754E40E9433310E944D30E5
S113097060935F237093602380929D2090929E20C9
S1130980A0929F20B092A02010C0109240211092FB
S11309904121109242211092432110929D201092E5
S11309A09E2010929F201092A02080919320882353
S11309B099F120E030E04EEB52E460916B237091AA
S11309C06C2380916D2390916E230E9433316B01CF
S11309D07C0120E030E040EA50E4609140217091D5
S11309E0412180914221909143210E9433319B0106
S11309F0AC01C701B6010E946A2F20E030E048EC48
S1130A0052E40E94DB2F60936B2370936C238093DA
S1130A106D2390936E2378C220E030E044EB52E4DF
S1130A2060916B2370916C2380916D2390916E2360
S1130A300E9433316B017C0120E030E040E251E45C
S1130A4060914021709141218091422190914321F4
S1130A500E9433319B01AC01C701B6010E946A2F89
S1130A6020E030E048EC52E40E94DB2F60936B23DB
S1130A7070936C2380936D2390936E2345C2888179
S1130A8080618883888184FDFDCFF8016081718154
S1130A9080E090E00E947C309B01AC01C501B40170
S1130AA00E946A2F4B015C01F1E0EF1AF10839F75B
S1130AB020E030E040E251E40E94DB2F4B015C0176
S1130AC020E030E04EE353E40E942E3118160CF07F
S1130AD078C020E030E04EE353E4C501B4010E9445
S1130AE0692F4B015C012FE632E143E05AE30E9497
S1130AF033316B017C0120E030E040E05FE3C5016D
S1130B00B4010E9433310E944D306093972070935A
S1130B1098204090A9205090AA206090AB2070901B
S1130B20AC202AE037ED43EA5BE3C301B2010E9443
S1130B306A2F9B01AC01C701B6010E94D62F8823FE
S1130B408CF4109240211092412110924221109273
S1130B50432110929D2010929E2010929F2010926B
S1130B60A0203FC0A3019201C701B6010E94692FD2
S1130B7020E030E040EA51E40E94DB2F20E030E046
S1130B804AEF53E40E943331609340217093412132
S1130B90809342219093432120E030E04AE754E4DB
S1130BA00E9433310E944D3060935F237093602321
S1130BB080929D2090929E20A0929F20B092A0208F
S1130BC010C01092402110924121109242211092A3
S1130BD0432110929D2010929E2010929F201092EB
S1130BE0A02080919320882399F120E030E04EEBFF
S1130BF052E460914A2170914B2180914C21909153
S1130C004D210E9433316B017C0120E030E040EA49
S1130C1050E4609140217091412180914221909152
S1130C2043210E9433319B01AC01C701B6010E94EC
S1130C306A2F20E030E048EC52E40E94DB2F6093FE
S1130C404A2170934B2180934C2190934D2169C18B
S1130C5020E030E044EB52E460914A2170914B2152
S1130C6080914C2190914D210E9433316B017C0184
S1130C7020E030E040E251E4609140217091412154
S1130C8080914221909143210E9433319B01AC0118
S1130C90C701B6010E946A2F20E030E048EC52E41C
S1130CA00E94DB2F60934A2170934B2180934C2147
S1130CB090934D2136C1888180628883888185FD27
S1130CC0FDCFF8016081718180E090E00E947C306A
S1130CD09B01AC01C501B4010E946A2F4B015C0168
S1130CE0F1E0EF1AF10839F720E030E040E251E496
S1130CF00E94DB2F4B015C0120E030E04EE353E423
S1130D000E942E3118160CF078C020E030E04EE33B
S1130D1053E4C501B4010E94692F4B015C012FE625
S1130D2032E143E05AE30E9433316B017C0120E05D
S1130D3030E040E05FE3C501B4010E9433310E941A
S1130D404D3060933320709334204090B220509003
S1130D50B3206090B4207090B5202AE037ED43EAC8
S1130D605BE3C301B2010E946A2F9B01AC01C7017E
S1130D70B6010E94D62F88238CF410924021109241
S1130D804121109242211092432110929D201092F1
S1130D909E2010929F201092A0203FC0A301920198
S1130DA0C701B6010E94692F20E030E040EA51E417
S1130DB00E94DB2F20E030E04AEF53E40E943331FD
S1130DC06093402170934121809342219093432169
S1130DD020E030E04AE754E40E9433310E944D3071
S1130DE060935F237093602380929D2090929E2055
S1130DF0A0929F20B092A02010C010924021109287
S1130E004121109242211092432110929D20109270
S1130E109E2010929F201092A020809193208823DE
S1130E2099F120E030E04EEB52E460916B20709138
S1130E306C2080916D2090916E200E9433316B0163
S1130E407C0120E030E040EA50E460914021709160
S1130E50412180914221909143210E9433319B0191
S1130E60AC01C701B6010E946A2F20E030E048ECD3
S1130E7052E40E94DB2F60936B2070936C2080936C
S1130E806D2090936E205AC020E030E044EB52E491
S1130E9060916B2070916C2080916D2090916E20F8
S1130EA00E9433314B015C0120E030E040E251E428
S1130EB06091402170914121809142219091432180
S1130EC00E9433319B01AC01C501B4010E946A2F19
S1130ED020E030E048EC52E40E94DB2F60936B206A
S1130EE070936C2080936D2090936E2027C00F2EFA
S1130EF0FAE0EF2EF12CF02D812C912C5401C0E45A
S1130F00D2E002E512E09FCC0F2EFAE0EF2EF12C96
S1130F10F02D812C912C5401C0E4D2E004E512E0C0
S1130F20AECD0F2EFAE0EF2EF12CF02D812C912C6A
S1130F305401C0E4D2E006E512E0BDCEDF91CF91CA
S1130F401F910F91FF90EF90DF90CF90BF90AF90E3
S1130F509F908F907F906F905F904F9008958F92A5
S1130F609F92AF92BF92EF92FF920F931F93CF93F2
S1130F70DF930F2EF4E6EF2EF12CF02D812C912C23
S1130F805401C0E4D2E000E512E0888184608883E3
S1130F90888182FDFDCF8FE391E00197F1F700C0D6
S1130FA00000F8016081718180E090E00E947C3053
S1130FB09B01AC01C501B4010E946A2F4B015C0185
S1130FC0F1E0EF1AF10809F720E030E048EC52E4D0
S1130FD00E94DB2F4B015C0120E030E04EE353E440
S1130FE00E942E311816BCF420E030E04EE353E4A6
S1130FF0C501B4010E94692F2FE632E143E05AE3B0
S11310000E9433316093992070939A2080939B209F
S113101090939C20F6C01092992010929A201092DE
S11310209B2010929C20EDC08881886088838881F1
S113103083FDFDCF8FE391E00197F1F700C000003D
S1131040F8016081718180E090E00E947C309B0116
S1131050AC01C501B4010E946A2F4B015C01F1E0AF
S1131060EF1AF10809F720E030E048EC52E40E945E
S1131070DB2F4B015C0120E030E04EE353E40E949F
S11310802E311816BCF420E030E04EE353E4C501E1
S1131090B4010E94692F2FE632E143E05AE30E9433
S11310A033316093762070937720809378209093E7
S11310B07920B4C010927620109277201092782074
S11310C010927920ABC0888180618883888184FDF7
S11310D0FDCF8FE391E00197F1F700C00000F80124
S11310E06081718180E090E00E947C309B01AC01C2
S11310F0C501B4010E946A2F4B015C01F1E0EF1AB3
S1131100F10809F720E030E048EC52E40E94DB2FBC
S11311104B015C0120E030E04EE353E40E942E31A9
S11311201816BCF420E030E04EE353E4C501B401EA
S11311300E94692F2FE632E143E05AE30E943331E3
S11311406093A9207093AA208093AB209093AC2045
S113115072C01092A9201092AA201092AB20109273
S1131160AC2069C0888180628883888185FDFDCF39
S11311708FE391E00197F1F700C00000F80160816E
S1131180718180E090E00E947C309B01AC01C5013C
S1131190B4010E946A2F4B015C01F1E0EF1AF108DF
S11311A009F720E030E048EC52E40E94DB2F4B01C9
S11311B05C0120E030E04EE353E40E942E31181627
S11311C0BCF420E030E04EE353E4C501B4010E94D6
S11311D0692F2FE632E143E05AE30E9433316093F2
S11311E0B2207093B3208093B4209093B52030C084
S11311F01092B2201092B3201092B4201092B52015
S113120027C00F2EF4E6EF2EF12CF02D812C912C1B
S11312105401C0E4D2E002E512E006CF0F2EF4E65A
S1131220EF2EF12CF02D812C912C5401C0E4D2E04E
S113123004E512E048CF0F2EF4E6EF2EF12CF02D4A
S1131240812C912C5401C0E4D2E006E512E08ACF4F
S1131250DF91CF911F910F91FF90EF90BF90AF90CE
S11312609F908F9008951092A6251092452180EEAC
S1131270809382068091880686FF07C081E0809370
S11312804F20109253230E94492980918806882375
S11312901CF081E0809397258091880685FD03C02A
S11312A081E08093892080EE80938A0695E0909374
S11312B0890689E1809395062AE120939606809316
S11312C0970686E08093220682E080932A06909314
S11312D0290681E0809331062EE1209301062093B4
S11312E00A069093090610921106109212061092A3
S11312F01306109214062FE02093620620936A06C8
S113130090936906809370068093710680937206A9
S1131310809373060895CF93DF931F92CDB7DEB702
S113132089839E012F5F3F4F41E060E08CEA90E0AB
S11313300E94800C0F90DF91CF910895CF93DF939B
S11313401F92CDB7DEB782EA89839E012F5F3F4F9C
S113135041E060E08AEA90E00E94800C2FEF83ED88
S113136090E3215080409040E1F700C000000F90CE
S1131370DF91CF910895CF93DF931F92CDB7DEB75E
S11313808CE089839E012F5F3F4F41E060E08CEA4F
S113139090E00E94800C2FEF83ED90E32150804079
S11313A09040E1F700C000000F90DF91CF910895C5
S11313B0CF93DF931F92CDB7DEB78FE089839E0171
S11313C02F5F3F4F41E060E08CEA90E00E94800C88
S11313D02FEF83ED90E3215080409040E1F700C06F
S11313E000000F90DF91CF910895CF93DF931F9268
S11313F0CDB7DEB780E189839E012F5F3F4F41E087
S113140060E08CEA90E00E94800C2FEF83ED90E383
S1131410215080409040E1F700C000000F90DF9120
S1131420CF910895CF93DF931F92CDB7DEB79E017E
S11314302F5F3F4F40E060E08BEA90E00E94800C19
S11314400F90DF91CF9108951F920F920FB60F92D4
S1131450112408B60F9218BE09B60F9219BE0BB626
S11314600F921BBE2F933F934F935F936F937F9382
S11314708F939F93AF93BF93EF93FF9380918806CD
S113148086FF07C081E080934F20109253230E946F
S113149049298091880688231CF081E08093972550
S11314A08091880685FD05C081E080938920109293
S11314B07925FF91EF91BF91AF919F918F917F918A
S11314C06F915F914F913F912F910F900BBE0F90B1
S11314D009BE0F9008BE0F900FBE0F901F90189575
S11314E01F920F920FB60F92112408B60F9218BED6
S11314F009B60F9219BE0BB60F921BBE2F933F93E2
S11315004F935F936F937F938F939F93AF93BF9307
S1131510EF93FF9380916806837009F48BC0609108
S113152098257091992580919A2590919B2520E08A
S113153030E64AE656E40E94D62F18160CF47AC018
S1131540609198257091992580919A2590919B2579
S113155020E030E64AE656E40E94D62F8823B4F40D
S1131560609198257091992580919A2590919B2559
S113157020E030E040E85FE30E946A2F6093982502
S11315807093992580939A2590939B2581E080936D
S11315908B20609198257091992580919A2590913E
S11315A09B2520E030E64AE656E40E942E3188234B
S11315B00CF1809149238530E9F481E08093542330
S11315C0109298251092992510929A2510929B2595
S11315D080E48093A50680E18093860660E080E045
S11315E00E942D1C80E00E948A1C60E080E00E9422
S11315F0031C20C0609198257091992580919A25AB
S113160090919B2520E030E64AE656E40E94D62FCE
S1131610882384F480914923853061F4109249230E
S113162010928B20109298251092992510929A2549
S113163010929B25FF91EF91BF91AF919F918F9154
S11316407F916F915F914F913F912F910F900BBEBE
S11316500F9009BE0F9008BE0F900FBE0F901F9001
S113166018951F920F920FB60F92112408B60F927D
S113167018BE0BB60F921BBE8F93EF93FF93E8E255
S1131680F6E0808181FDFDCFFF91EF918F910F9066
S11316900BBE0F9008BE0F900FBE0F901F901895B1
S11316A01F920F920FB60F92112408B60F9218BE14
S11316B00BB60F921BBE8F93EF93FF93E8E0F6E017
S11316C080818270809383208081847080937723CB
S11316D08081887080933F21808180718093722003
S11316E01092A420FF91EF918F910F900BBE0F9059
S11316F008BE0F900FBE0F901F901895DF92EF92C7
S1131700FF920F931F93CF93DF93D82E7B01D42F97
S113171001E416E0C0E1F801C083C093460682E00C
S11317200E94D7288D2D0E94D7286D2FC7010E94B3
S1131730E928F801C083C0934506DF91CF911F913A
S11317400F91FF90EF90DF900895EF92FF921F9317
S1131750CF93DF9300D000D0CDB7DEB70E940D0E3B
S113176080EC809306062FEF39EF90E02150304053
S11317709040E1F700C00000809305060F2EF1E4CD
S1131780EF2EF6E0FF2EF02D10E1F70110831093F9
S113179046060E94D728F701108310934506198244
S11317A01A821B821C8241E0BE016F5F7F4F8DE075
S11317B00E947E0B84E2898380E28A831B8243E059
S11317C0BE016F5F7F4F80E60E947E0B13E81B8390
S11317D080E78A8386E0898343E0BE016F5F7F4FA1
S11317E088E20E947E0B198341E0BE016F5F7F4F48
S11317F08BE20E947E0B198241E0BE016F5F7F4F36
S113180080E30E947E0B41E0BE016F5F7F4F80E466
S11318100E947E0B198241E0BE016F5F7F4F8FE013
S11318200E947E0B88E08093420680934A0685E0FE
S11318308093490682E0809353061092712510929A
S113184071201092A7252496CDBFDEBFDF91CF91E2
S11318501F91FF90EF900895DF92EF92FF920F9304
S11318601F93CF93DF93D82E7B01D42F01E416E08E
S1131870C0E1F801C083C093460683E00E94D728E4
S11318808D2D0E94D7286D2FC7010E94FE28F801D4
S1131890C083C0934506DF91CF911F910F91FF90B4
S11318A0EF90DF900895EF92FF920F931F93CF93E1
S11318B0DF931F92CDB7DEB7082F0F2EF1E4EF2E82
S11318C0F6E0FF2EF02D10E1F70110831093460689
S11318D083E00E94D728802F0E94D72861E0CE01A0
S11318E001960E94FE28F701108310934506898112
S11318F00F90DF91CF911F910F91FF90EF9008957A
S1131900CF93DF93CDB7DEB72B97CDBFDEBF8983EF
S11319106A834B83442379F0A22FB32FFE013496BC
S113192041509E01240F311D2B5F3F4F8D918193B8
S1131930E217F307D9F7CE0101960E94A40E2B9665
S1131940CDBFDEBFDF91CF9108952F923F924F928A
S11319505F926F927F928F929F92AF92BF92CF923B
S1131960DF92EF92FF920F931F93CF93DF9300D0F8
S113197000D0CDB7DEB7282E462E542E590181E073
S113198089833324339401E416E06894772474F84B
S1131990672C0F2EF6E4EF2EF6E0FF2EF02D9FEFCE
S11319A0940FE92FF0E03196E20FF31FEB83FC83F1
S11319B00F2EF5E4CF2EF6E0DF2EF02D01C01982B4
S11319C030924721F8016082F701608280E40E942E
S11319D0D72887E80E94D7288BEE0E94D728822D2B
S11319E00E94D72882EA0E94D728442021F080E46C
S11319F00E94D72810C0852D0E94D728552059F061
S1131A004501F40181914F010E94D7288B819C816B
S1131A1088169906B1F7F8017082F6017082F80110
S1131A207082F701708282E00E94D72880E30E94CE
S1131A30D72880914721882321F088E00E94D72865
S1131A4004C0F981F13009F4BACF1092472180E142
S1131A5080934106809345062496CDBFDEBFDF9177
S1131A60CF911F910F91FF90EF90DF90CF90BF9097
S1131A70AF909F908F907F906F905F904F903F902A
S1131A802F900895CF93F8948CE10E94530CC82FA3
S1131A908DE10E94530CC93710F4893710F00E946D
S1131AA0A50B7894CF9108951F920F920FB60F92C1
S1131AB0112408B60F9218BE09B60F9219BE0AB6C1
S1131AC00F921ABE0BB60F921BBE0F931F932F9348
S1131AD03F934F935F936F937F938F939F93AF93B2
S1131AE0BF93EF93FF93CF93DF93CDB7DEB72D97DB
S1131AF0CDBFDEBF809147218111109247218CE236
S1131B000E94530C182F85FF03C084E08093C507FF
S1131B1011231CF484E08093C50710FF2AC0FE0142
S1131B20329688E0DF011D928A95E9F785E60E94E6
S1131B30530C082F0F700930E0F4402FBE016E5F84
S1131B407F4F86E60E942C0C1A861B861C861D86F7
S1131B5044E0BE01665F7F4F81E60E942C0C8B85BA
S1131B60882339F06C8570E0402FCE0102960E94E4
S1131B70230E11FF2AC0FE01329688E0DF011D9278
S1131B808A95E9F785E70E94530C182F1F701930C6
S1131B90E0F4412FBE016E5F7F4F86E70E942C0C5C
S1131BA01A861B861C861D8644E0BE01665F7F4F35
S1131BB081E70E942C0C8B85882339F06C8570E0BA
S1131BC0412FCE0102960E94230E198241E0BE01EC
S1131BD06F5F7F4F8CE20E947E0B2D96CDBFDEBFE0
S1131BE0DF91CF91FF91EF91BF91AF919F918F9131
S1131BF07F916F915F914F913F912F911F910F9121
S1131C000F900BBE0F900ABE0F9009BE0F9008BE36
S1131C100F900FBE0F901F90189510921B261092D4
S1131C20A9258FEF8093AA251092AC251092A825A0
S1131C308093AB250895F89490911B26789481E0C5
S1131C40911180E00895FF920F931F93CF93DF9338
S1131C50F82E092FEB01142FF8948091AA25082E51
S1131C60000C990B019664E670E00E94B4318093F5
S1131C70AA2580911B268F5F80931B2678948091E0
S1131C801B26843658F10E94631628C0811768F415
S1131C903091AA252081DC0148E03402A00DB11D59
S1131CA01124AC51B94D2C930BC02091AA25DC0111
S1131CB038E02302A00DB11D1124AC51B94D1C9282
S1131CC0019631968830910509F7E091AA25EE0F27
S1131CD0FF0BE45EF94DC083D18305C0EF2DF02FD7
S1131CE080E090E0D3CFDF91CF911F910F91FF90CF
S1131CF0089580911B26882331F1F894E091A92559
S1131D00EE0FFF0BE45EF94D30812091A9258091FF
S1131D101B26815080931B268091A925082E000C38
S1131D20990B019664E670E00E94B4318093A92572
S1131D30789488E02802B00111246C51794D832FE6
S1131D4090E00E94D2170895FC01F8948091AB258D
S1131D50082E000C990B01966AE070E00E94B431E1
S1131D608093AB258091AC258F5F8093AC257894CC
S1131D708091AC25A091AB258BE0A802D001112461
S1131D80A355BA4D8BE001900D928A95E1F7089521
S1131D908091AC25882309F1E091A8258BE0E80225
S1131DA0F0011124E355FA4D8091AC2581508093C4
S1131DB0AC258091A825082E000C990B01966AE0A9
S1131DC070E00E94B4318093A8259F012D5F3F4F9E
S1131DD04281618180810E94A50C0895FC01AC01BF
S1131DE04C5F5F4F60E070E0CB01B82FA72F962FB8
S1131DF088272191BC01CD01620F711D811D911DA8
S1131E00E417F50791F70895FC01208130E0322FA3
S1131E1022278181A901480F511DCA010895CF923B
S1131E20DF92EF92FF921F93CF93DF93EC01F8942C
S1131E3010E00F2EF8E2CF2ED12CE12CF12CF02D56
S1131E400AC02FEF86E791E0215080409040E1F7EF
S1131E5000C000001F5F6091712370917223809114
S1131E60732390917423A70196010E94C831CA017B
S1131E70B9016E5F7F4F8F4F9F4F0E9433288111AE
S1131E8003C01330F1F602C01330D1F4109248238A
S1131E90789480E48093A50680E18093860660E0D0
S1131EA080E00E942D1C80E00E948A1C60E080E09B
S1131EB00E94031C81E08093A3250E948B1632C2EA
S1131EC0E0914F23F09150238881EC5AFE4D80839A
S1131ED0E0914F23F09150238981EB5AFE4D80838A
S1131EE019811123B1F032E0310F22E0822F90E00A
S1131EF0E0914F23F0915023E80FF91FDE01A80F62
S1131F00B91F8C91EC5AFE4D80832F5F2313EECFC3
S1131F1001C032E08091080490910904E0914F23BC
S1131F20F0915023E30FF11DEC5AFE4D9083E091A4
S1131F304F23F091502391E0930FE90FF11DEC5AD8
S1131F40FE4D8083E0914F23F091502382E0830F74
S1131F50E80FF11D8091902590919125EC5AFE4D4A
S1131F609083E0914F23F091502383E0830FE80F97
S1131F70F11D8091902590919125EC5AFE4D80831E
S1131F80E0914F23F09150233C5FE30FF11D8091CA
S1131F908925EC5AFE4D8083C0E00F2EF8E2CF2E47
S1131FA0D12CE12CF12CF02D0AC02FEF86E791E023
S1131FB0215080409040E1F700C00000CF5F609165
S1131FC07123709172238091732390917423A701DC
S1131FD096010E94C831CA01B9016E5F7F4F8F4FCD
S1131FE09F4F0E94B827811103C0C330F1F602C08D
S1131FF0C33029F510924823789480E48093A50691
S113200080E18093860660E080E00E942D1C80E0E1
S11320100E948A1C60E080E00E94031C81E080939F
S1132020A3250E948B167EC12FEF86E791E02150F5
S113203080409040E1F700C00000CF5F01C0C0E0E5
S113204061E070E080E090E00E943328811103C0D9
S1132050C33051F702C0C330D1F4109248237894AE
S113206080E48093A50680E18093860660E080E0AA
S11320700E942D1C80E00E948A1C60E080E00E9487
S1132080031C81E08093A3250E948B164BC1809191
S1132090712390917223A0917323B09174230196BC
S11320A0A11DB11D8093712390937223A093732378
S11320B0B0937423C091A520D0E0809171239091B6
S11320C07223A0917323B09174238B2F9927AA278D
S11320D0BB27FE01EC5AFE4D8083809171239091C1
S11320E07223A0917323B0917423CD01AA27BB2737
S11320F0FE01EB5AFE4D80838091712390917223EF
S1132100A0917323B0917423892F9A2FAB2FBB27EF
S1132110FE01EA5AFE4D80838091712390917223CF
S1132120A0917323B0917423FE01E95AFE4D80837C
S11321306091712370917223809173239091742321
S113214028E230E040E050E00E94C831672B682B61
S1132150692B61F410924F2310925023FE01E75A29
S1132160FE4D1082C65ADE4D18821AC080914F234C
S1132170909150230796810F911D80934F23909344
S1132180502380914F2390915023FE01E75AFE4D36
S1132190908380914F2390915023C65ADE4D8883BB
S11321A08091A6209091A720E4E5F1E2978B80919D
S11321B0A6209091A720808F8091802590918125E1
S11321C0918F8091802590918125828F80917823B1
S11321D090917923938F8091782390917923848FA0
S11321E08091A1209091A220958F8091A12090911F
S11321F0A220868F80913D2090913E20978F8091E0
S11322003D2090913E2080A380918A2590918B253A
S113221091A380918A2590918B2582A38091482156
S11322209091492193A3809148219091492184A3BD
S113223080918F209091902095A380918F209091F0
S1132240902086A3809194259091952597A38091C1
S113225094259091952580A780917E2590917F2546
S113226091A780917E2590917F2582A780916920F6
S113227090916A2093A78091692090916A2084A705
S11322808091A4259091A52595A78091A42590914E
S1132290A52586A78091492090914A2097A78091EF
S11322A0492090914A2080AB8091632390916423CC
S11322B091AB809163239091642382ABC0E00AC008
S11322C02FEF86E791E0215080409040E1F700C075
S11322D00000CF5F61E070E080E090E00E94B827EA
S11322E0811103C0C33061F702C0C330D1F410922E
S11322F04823789480E48093A50680E18093860641
S113230060E080E00E942D1C80E00E948A1C60E056
S113231080E00E94031C81E08093A3250E948B1619
S113232001C07894DF91CF911F91FF90EF90DF90DF
S1132330CF90089580E090E0FC01EC5AFE4D1082AD
S11323400196843F21E09207B9F708950F931F93F4
S1132350CF93DF93CDB7DEB76597CDBFDEBF10E077
S11323600AC02FEF80E792E0215080409040E1F7CF
S113237000C000001F5F61E070E080E090E00E9418
S11323803328811103C0133061F702C0133019F4EC
S113239010924823FFC08FE08093A52084E591E24A
S11323A09F938F9380E090E29F938F938E010F5FB2
S11323B01F4F1F930F930E94173266E070E2C8010B
S11323C00E940E320F900F900F900F900F900F906D
S11323D0892B59F10E949A118FE0E6E0F0E2A4E51E
S11323E0B1E201900D928A95E1F710924F23109279
S11323F0502310E00AC02FEF80E792E02150804084
S11324009040E1F700C000001F5F61E070E080E0F1
S113241090E00E94B827811103C0133061F702C015
S11324201330D1F410924823B5C00091A52010E0D8
S11324300C5A1E4DC8010E94EE0E609371237093D6
S113244072238093732390937423C8010E94040F12
S113245080934F2390935023E4E5F1E28789208D04
S113246090E0982F8827820F911D8093A620909347
S1132470A720818D228D90E0982F8827820F911DAF
S11324808093802590938125838D248D90E0982FCF
S11324908827820F911D8093782390937923858DCB
S11324A0268D90E0982F8827820F911D8093A1207C
S11324B09093A220878D20A190E0982F8827820FE7
S11324C0911D80933D2090933E2081A122A190E014
S11324D0982F8827820F911D80938A2590938B25AE
S11324E083A124A190E0982F8827820F911D8093C7
S11324F048219093492185A126A190E0982F88270F
S1132500820F911D80938F209093902087A120A506
S113251090E0982F8827820F911D809394259093A3
S1132520952581A522A590E0982F8827820F911DDB
S113253080937E2590937F2583A524A590E0982FF2
S11325408827820F911D8093692090936A2085A526
S113255026A590E0982F8827820F911D8093A425AB
S11325609093A52587A520A990E0982F8827820F0E
S1132570911D8093492090934A2081A922A990E03B
S1132580982F8827820F911D80936323909364234F
S1132590109262236596CDBFDEBFDF91CF911F916C
S11325A00F91089510927B2310926F208FEF8093E8
S11325B0822508950F931F93CF93DF93909148231F
S11325C0992309F467C0D52F142FC62F082F8091A3
S11325D08225082E000C990B019662E370E00E949C
S11325E0B4318093822580917B238F5F80937B23FA
S11325F080917B23823310F00E94771620918225EC
S1132600022E000C330BF901EE0FFF1F220F331FB4
S1132610220F331F220F331FE20FF31FE358FC4D29
S1132620008380918225082E000C990BFC01EE0F8B
S1132630FF1F880F991F880F991F880F991FE80F94
S1132640F91FE358FC4DC183CC2321F1A12FBD2FE9
S1132650C1504C2F50E04D5F5F4F22E030E080913D
S11326608225082E000C990B6D91FC01EE0FFF1FC3
S1132670880F991F880F991F880F991FE80FF91F5A
S1132680E358FC4DE20FF31F60832F5F3F4F241785
S1132690350729F7DF91CF911F910F910895CF93BB
S11326A0909148239923F1F1C82F80918225082E17
S11326B0000C990B019662E370E00E94B4318093A0
S11326C0822590917B239F5F90937B2380917B2332
S11326D0823310F00E94771620918225022E000C7E
S11326E0330BF901EE0FFF1F220F331F220F331F8D
S11326F0220F331FE20FF31FE358FC4DC083809178
S11327008225082E000C990BFC01EE0FFF1F880F89
S1132710991F880F991F880F991FE80FF91FE35815
S1132720FC4D1182CF91089580917B23882349F138
S113273080916223882329F120916F20022E000CBE
S1132740330BC901880F991F220F331F220F331F28
S1132750220F331F820F931F83589C4D0E940F0F2B
S113276080917B23815080937B2380916F20082E5E
S1132770000C990B019662E370E00E94B4318093DF
S11327806F200895CF93DF931F92CDB7DEB780916A
S11327907B2589839E012F5F3F4F41E060E08DEAF6
S11327A090E00E94800C0F90DF91CF910895CF9319
S11327B0DF931F92CDB7DEB78091532189839E01A9
S11327C02F5F3F4F41E060E08EEA90E00E94800C72
S11327D00F90DF91CF910895DC01FC01BC01695F8A
S11327E07F4F40E050E02FEF91912927490F511D71
S11327F0E617F707C9F780916820281308C080916D
S11328007D2090917E204817590709F49AC1FD0153
S11328102093682040937D2050937E208081809374
S11328205C23818180936F238281982F991F99273C
S1132830991F90934C238F7780934E208381982FF8
S1132840991F9927991F909382208F778093362020
S11328508481982F92959F7090935021282F2C70EB
S113286030E035952795359527952093752083700D
S1132870809375239581292F22952F702093882585
S11328809F70909345209681292F22952F70209335
S1132890AF209F7090934A230E947A1C809150210C
S11328A00E946B1C8091A32581114BC180918825C6
S11328B00E94931C809145208823C9F080918E202A
S11328C0811138C01092962081E080934420809139
S11328D07A23882379F184E08093A60688E08093A4
S11328E0A50681E08093512310927A2323C080911E
S11328F08E208130F9F410924420809396208091A8
S11329006F238823B9F080913D21811113C08091F8
S11329107A2381110FC08091AF2081110BC0E5EAA9
S1132920F6E084E0808388E0808381E08093512313
S113293080937A2380914A23811104C080E4809398
S1132940E50603C080E48093E6068091AF208823E7
S113295009F448C081E0809355238BEB80937B2559
S11329600E94C21380E00E94D7196091362080E053
S11329700E942D1C80E00E948A1C60914E2080E001
S11329800E94031C80916720882399F08091842001
S113299081110FC0809153218C3C59F4809175238F
S11329A0811107C080915021811103C00E948429A4
S11329B00895809167208111C4C080918420813062
S11329C069F0809153218C3C49F4809175238111E5
S11329D005C080915021882309F4B3C081E00E948E
S11329E08429089580916F238B3411F0843609F57E
S11329F090913D2191111DC00E94C71A80914520DC
S1132A0081110FC080917A2381110BC0E5EAF6E0B1
S1132A1084E0808388E0808381E0809351238093E5
S1132A207A2310927D258AEA809353210E94D7133A
S1132A301FC080917D2581111BC0809153218A3A4A
S1132A40B9F48BEB809353210E94D71381E08093D8
S1132A507D2580917A23882359F084E08093A6060B
S1132A6088E08093A50681E08093512310927A2315
S1132A70809184208130B9F580915C230E94D7191C
S1132A8080918325882351F080919120811103C086
S1132A9081E08093912081E00E94591B80915C2306
S1132AA0811112C0609136200E942D1C80E00E948A
S1132AB08A1C60914E2080E00E94031C8BEB809363
S1132AC07B250E94C2130FC00E94BA1D80918220F0
S1132AD0811104C0809175200E948A1C8AEA809327
S1132AE07B250E94C21380916720882399F08091EE
S1132AF0842081110FC0809153218C3C59F4809122
S1132B007523811107C080915021811103C00E9457
S1132B108429089580916720811113C080918420B5
S1132B20813061F0809153218C3C41F48091752374
S1132B30811104C080915021882319F081E00E9402
S1132B4084290895CF93DF931F92CDB7DEB782EA2D
S1132B5089839E012F5F3F4F41E060E08EED90E05E
S1132B600E94800C0F90DF91CF9108950F931F93D3
S1132B70CF93DF93CDB7DEB72897CDBFDEBF2FEF5E
S1132B8081EE94E0215080409040E1F700C00000C5
S1132B9081E0898304E210E2F80180818A838181E3
S1132BA08B8382818C8383818D8384818E838581D1
S1132BB08F83FFEF23EF81E0F15020408040E1F765
S1132BC000C000009E012F5F3F4F47E060E082E5B8
S1132BD090E00E94800C9FEFE3EFF1E09150E04021
S1132BE0F040E1F700C0000082E08983F8018681AB
S1132BF08A8387818B8380858C8381858D8382857D
S1132C008E8383858F83FFEF23EF81E0F150204093
S1132C108040E1F700C000009E012F5F3F4F47E076
S1132C2060E082E590E00E94800C9FEFE3EFF1E02A
S1132C309150E040F040E1F700C0000083E0898358
S1132C40F80184858A8385858B83FFEF23EF81E0F8
S1132C50F15020408040E1F700C000009E012F5F4A
S1132C603F4F43E060E082E590E00E94800C9FEFDC
S1132C70E3EFF1E09150E040F040E1F700C00000E4
S1132C802896CDBFDEBFDF91CF911F910F9108959C
S1132C90CF93DF931F92CDB7DEB79E012F5F3F4FD7
S1132CA041E060E085E990E00E94800C2FEF89EF1D
S1132CB090E0215080409040E1F700C000000F9068
S1132CC0DF91CF910895CF93DF931F92CDB7DEB7F5
S1132CD089E089839E012F5F3F4F41E060E08CEAE9
S1132CE090E00E94800C0F90DF91CF910895CF93D4
S1132CF0DF931F92CDB7DEB78AE089839E012F5FF1
S1132D003F4F41E060E08CEA90E00E94800C0F901D
S1132D10DF91CF910895CF93DF931F92CDB7DEB7A4
S1132D208BE089839E012F5F3F4F41E060E08CEA96
S1132D3090E00E94800C0F90DF91CF910895CF9383
S1132D40DF93CDB7DEB72897CDBFDEBF81E089839F
S1132D508091A6209091A7209A838091A62090919B
S1132D60A7208B839E012F5F3F4F43E060E086E600
S1132D7090E00E94800C82E089838091802590916C
S1132D8081259A8380918025909181258B839E0152
S1132D902F5F3F4F43E060E086E690E00E94800CA6
S1132DA083E0898380917823909179239A83809119
S1132DB07823909179238B839E012F5F3F4F43E0CB
S1132DC060E086E690E00E94800C84E08983809134
S1132DD0A1209091A2209A838091A1209091A22079
S1132DE08B839E012F5F3F4F43E060E086E690E0D7
S1132DF00E94800C85E0898380913D2090913E2043
S1132E009A8380913D2090913E208B839E012F5F79
S1132E103F4F43E060E086E690E00E94800C86E04D
S1132E20898380918A2590918B259A8380918A2524
S1132E3090918B258B839E012F5F3F4F43E060E091
S1132E4086E690E00E94800C87E089838091482187
S1132E50909149219A8380914821909149218B83B3
S1132E609E012F5F3F4F43E060E086E690E00E94C2
S1132E70800C88E0898380918F20909190209A83A0
S1132E8080918F20909190208B839E012F5F3F4FE4
S1132E9043E060E086E690E00E94800C89E089834C
S1132EA080919425909195259A8380919425909171
S1132EB095258B839E012F5F3F4F43E060E086E6BC
S1132EC090E00E94800C8AE0898380917E25909115
S1132ED07F259A8380917E2590917F258B839E0107
S1132EE02F5F3F4F43E060E086E690E00E94800C55
S1132EF08BE089838091692090916A209A838091E4
S1132F00692090916A208B839E012F5F3F4F43E09D
S1132F1060E086E690E00E94800C8CE089838091DA
S1132F20A4259091A5259A838091A4259091A52507
S1132F308B839E012F5F3F4F43E060E086E690E085
S1132F400E94800C8DE089838091492090914A20D1
S1132F509A838091492090914A208B839E012F5F10
S1132F603F4F43E060E086E690E00E94800C8EE0F4
S1132F70898380916323909164239A83809163234E
S1132F80909164238B839E012F5F3F4F43E060E069
S1132F9086E690E00E94800C2896CDBFDEBFDF91CC
S1132FA0CF9108950F931F93CF93DF93CDB7DEB7DF
S1132FB06697CDBFDEBF805491098F3A910508F022
S1132FC0A7C18B0182509F4FFC010C94EA31CB01C5
S1132FD00E94EC139DC10E9404029AC18091A32512
S1132FE0811196C1DB018C9180939320809183257C
S1132FF0882309F48DC180918420813009F088C12F
S113300080916720811103C081E00E94842981E0BE
S11330100E94591B7DC19B0140E060E081EA90E081
S11330200E94800C75C18CEA8E8B9E012A5E3F4FF4
S113303041E060E080EA90E00E94800C8091A3254A
S1133040811166C1F80180818A3A31F5818181302C
S113305089F48091842081115BC184E08093C50749
S113306081E08093842090914B20911180E08093A3
S11330704B204EC180918420813009F049C184E005
S11330808093C6071092842090914B2081E0911187
S113309080E080934B203CC18B3B09F039C1809187
S11330A08420813009F034C1818190E0982F8827F1
S11330B02281820F911D20919C2530919D2582179C
S11330C0930709F425C180939C2590939D250E9424
S11330D0BA1D1EC1FB018081833A39F48FE18983D3
S11330E01A82CE0101960E940F0F80E48093A506F8
S11330F080E18093860660E080E00E942D1C80E0E1
S11331000E948A1C60E080E00E94031C1092A625A5
S113311081E08093A325FCC0DB018C918C3C09F0F9
S1133120F7C080E00E947A1CF3C0FB01808190EF1D
S1133130980F993208F0ECC00E944F13E9C0DB01EC
S11331408C918093672011968C91119790E0982F21
S1133150882712962C911297822B80939025909316
S1133160912513968C918093892581E08093622325
S113317080937420CDC0FB018081843009F0C8C0E5
S113318080E48093A50680E18093860660E080E079
S11331900E942D1C80E00E948A1C60E080E00E9456
S11331A0031C81E08093A325B3C0DB018C91813A99
S11331B011F40E94A21581E080937125A9C00E9498
S11331C09E24A6C081E08093A325F80180818130EC
S11331D0D9F4E4E2F0E2D80111968C91119780833E
S11331E012968C911297818313968C9113978283F4
S11331F014968C911497838315968C9115978483D8
S113320016968C91858384C08230D1F4F801818133
S1133210E4E2F0E28683D80112968C9112978783B8
S113322013968C911397808714968C9114978187A9
S113323015968C911597828716968C91838768C012
S1133240833089F4F8018181E4E2F0E28487D801D3
S113325012968C9185874EE050E060E470E0CF01D7
S11332600E94153555C00E94B61552C0AB0161E0ED
S113327088E20E94DA124CC0AB0161E088E30E944C
S1133280DA1246C00E949F1643C00E94B72840C06D
S1133290FB01808190E080935121909352210E9400
S11332A02A2636C0DB018C9190E0809367239093AB
S11332B068230E941C262CC0FB01808190E080932F
S11332C09225909393250E94382622C08091502005
S11332D08A30F0F093E088ED08B618BE84BF90936E
S11332E080008091820081FDFCCF08BEFFCF8091D9
S11332F050208A3068F093E088ED08B618BE84BF89
S1133300909380008091820081FDFCCF08BEFFCFA6
S11333106696CDBFDEBFDF91CF911F910F910895C7
S1133320CF93DF93CDB7DEB72A97CDBFDEBF198227
S113333088E38A8322E0AE014F5F5F4F6CE386EB44
S113334090E20E94A72E198289E38A8322E0AE01CB
S11333504F5F5F4F6CE386EB90E20E94A72E1982C9
S113336084E18A8380E78B838EE58C838DE68D836D
S113337025E0AE014F5F5F4F6CE386EB90E20E9465
S1133380A72E19828FE08A8381E08B8386E08C8369
S113339024E0AE014F5F5F4F6CE386EB90E20E9446
S11333A0A72E2A96CDBFDEBFDF91CF910895CF928D
S11333B0DF92EF92FF92CF93DF93C82F882349F1D6
S11333C080914D238111CFC080914D23823009F427
S11333D0CAC0E5EAF6E081E0808392E090838093BE
S11333E04D2380933F202FEF83EC99E021508040C0
S11333F09040E1F700C00000E0E0FAE080818460E2
S1133400808381818363818380EA9FE086A397A37D
S113341019C080914D23882309F492C081E08093E0
S1133420A60692E09093A50610924D2380933F2028
S11334302FEF83EC99E0215080409040E1F700C0E9
S113344000007EC08091672390916823892BE1F46A
S11334508C2F90E080938C2090938D209C01A0EA87
S1133460BFE00E94F43124E630E040E050E00E94E6
S1133470C8312093652330936623E0E0FAE020A767
S113348031A722A733A77CC080914008811178C05E
S11334908091280A9091290A892B09F446C08091C9
S11334A0932081111FC020E030E048EC52E4609189
S11334B09F257091A0258091A1259091A2250E941D
S11334C0D62F88237CF480E090E0A6E9B2E48093D0
S11334D09F259093A025A093A125B093A2250E9497
S11334E05F294EC0CC2ED12CE12CF12CC701B601A2
S11334F00E947C3060939F257093A0258093A12522
S11335009093A225A0EABFE0A70196010E9403328E
S113351024E630E040E050E00E94C831E0E0FAE008
S113352020A731A722A733A72BC010929F25109262
S1133530A0251092A1251092A2250E945F2920C0E7
S1133540C0E0DAE088818460888389818363898329
S113355080EA9FE08EA39FA30E947A2918A619A649
S11335601AA61BA60DC0E0E0FAE080818460808387
S113357081818363818380EA9FE086A397A362CFDE
S1133580DF91CF91FF90EF90DF90CF900895CF928D
S1133590DF92EF92FF92C82EE0E0FAE0808184602F
S11335A0808381818364818380EA9FE086A397A3DB
S11335B0CC2021F080913D21882339F00E94752987
S11335C010922C0A10922D0A6FC080915121909173
S11335D05221892B89F42C2D30E0A0EABFE00E940F
S11335E0F43124E630E040E050E00E94C8312093FA
S11335F02C0A30932D0A58C08091000B811154C0BD
S113360080912C0A90912D0A892B09F443C0809152
S1133610932081111FC020E030E048EC52E4609117
S113362084257091852580918625909187250E9417
S1133630D62F88237CF480E090E0A6E9B2E480935E
S1133640842590938525A0938625B09387250E9491
S113365054292AC0D12CE12CF12CC701B6010E94B7
S11336607C30609384257093852580938625909380
S11336708725A0EABFE0A70196010E94033224E651
S113368030E040E050E00E94C83120932C0A30938F
S11336902D0A0AC010928425109285251092862541
S11336A0109287250E945429FF90EF90DF90CF90CD
S11336B00895CF92DF92EF92FF92CF93DF93909190
S11336C08325992309F498C081110FC0C0E0DAE082
S11336D089818F77898388E0809386060E947F2979
S11336E0109246211EA61FA687C0E0E0FAE0808162
S11336F08460808381818368818380EA9FE086A3DC
S113370097A380919320811104C094E6909346215D
S113371003C09BE4909346212091922530919325F8
S1133720232B91F42091462130E0A0EABFE00E94CF
S1133730F43124E630E040E050E00E94C8312093A8
S11337402E0A30932F0A58C090914009911154C009
S113375020912E0A30912F0A232B09F443C08111A2
S11337601FC020E030E048EC52E460918520709165
S1133770862080918720909188200E94D62F8823CC
S11337807CF480E090E0A6E9B2E4809385209093F5
S11337908620A0938720B09388200E946A292CC099
S11337A0C0904621D12CE12CF12CC701B6010E9416
S11337B07C3060938520709386208093872090933B
S11337C08820A0EABFE0A70196010E94033224E604
S11337D030E040E050E00E94C83120932E0A30933C
S11337E02F0A0AC0109285201092862010928720FA
S11337F0109288200E946A29DF91CF91FF90EF9068
S1133800DF90CF900895CF93DF938130D9F4C0E453
S1133810DBE088818460888389818362898380EA8C
S11338209FE08EA39FA3262F30E0A0EABFE00E9472
S1133830F43124E630E040E050E00E94C8312AA789
S11338403BA708C0E0E4FBE081818F7D818380E2B7
S113385080932607DF91CF910895813041F5E0E40C
S1133860FBE080818460808381818361818380EA3D
S11338709FE086A397A380917520882321F081E09F
S11338808093250703C081E080932607262F30E02C
S1133890A0EABFE00E94F43124E630E040E050E0CA
S11338A00E94C8312093680B3093690B0895E0E4BB
S11338B0FBE081818F7E818380E180932607809164
S11338C07520882321F081E080932507089581E005
S11338D0809326070895813021F482E080932507A0
S11338E00895823019F480932707089582E0809325
S11338F026070895813021F484E0809325070895F4
S1133900823021F484E080932707089584E0809333
S113391026070895813019F480932507089581E0DE
S1133920809326070895E0E0FAE090819460908304
S113393091819368918320EA3FE026A337A3909175
S1133940AF20911131C09091452091112DC081304B
S113395009F580914D23882321F080914D238130F6
S1133960D9F4809184208130B9F480917B258A3AFE
S113397099F480EA9FE080932E0A90932F0AE5EA57
S1133980F6E081E0808392E0908390934D238093CE
S11339903F200895882341F080918420882321F0DA
S11339A080917B25811114C080914D23823081F454
S11339B088EB9BE080932E0A90932F0A81E08093FA
S11339C0A60692E09093A50680934D2380933F2012
S11339D00895AF92BF92CF92DF92EF92FF920F932E
S11339E01F93CF93DF9380E88093A206EAEAF6E080
S11339F080818068808395E09093A90688E1809314
S1133A00B7066894FF24F6F8F0922207EAE2F7E09A
S1133A108081806480839093290789E180933607AD
S1133A208FE78093A10606EA16E0D801FC928FE1A5
S1133A30809381066894AA24A4F8A09285068FE056
S1133A40809321076894BB24B3F8B092250784E5DA
S1133A508093E10680E00E94D71980E00E94C71A93
S1133A600F2EF6E2CF2EF7E0DF2EF02DD4E0F60194
S1133A70D0836894EE24E1F8E08260E080E00E9464
S1133A802D1CC1E0D601CC9360E080E00E94031CB1
S1133A9080E00E94931CE6EEF6E0D083A092E50657
S1133AA0F082F801D083E5EAF6E0B082D801CC9345
S1133AB0E08210924D23C0933F20C09351238CEC9D
S1133AC080935321109284208BEB80937B2510925A
S1133AD09120DF91CF911F910F91FF90EF90DF9094
S1133AE0CF90BF90AF900895809153218C3C51F4B6
S1133AF080917523811106C080915021811102C0EB
S1133B000E94842980E00E94D7192FEF81EE94E06F
S1133B10215080409040E1F700C0000060E080E068
S1133B200E942D1C81E0809326072FEF81EE94E004
S1133B30215080409040E1F700C0000060E080E048
S1133B400E94031C2FEF81EE94E0215080409040AE
S1133B50E1F700C0000080919120813011F41092AF
S1133B60912080E00E94591B8BEB80937B250E945F
S1133B70C2130895CF92DF92EF92FF920F931F9397
S1133B80CF93DF9380919C2590919D258C32914019
S1133B9008F450C080917B258A3A09F04BC0C0914B
S1133BA09C25D0919D2500919C2510919D25609187
S1133BB04E2070E080E090E00E947E306B017C013A
S1133BC0B80180E090E00E947C3020E030E040E8E2
S1133BD059E30E9433319B01AC01C701B6010E9435
S1133BE033310E944D30162F6091362070E080E012
S1133BF090E00E947E306B017C01BE0180E090E089
S1133C000E947C3020E030E040E859E30E943331E8
S1133C109B01AC01C701B6010E9433310E944D30B3
S1133C20809182200E942D1C612F80914C230E9440
S1133C30031C0BC060E080E00E942D1C81E0809397
S1133C40260760E080E00E94031CDF91CF911F9162
S1133C500F91FF90EF90DF90CF9008958091AF2067
S1133C60811104C080914520882341F08091672010
S1133C70811133C081E00E948429089580915C23DE
S1133C80882359F00E94D7192FEF83EC99E0215033
S1133C9080409040E1F700C00000809167208111CE
S1133CA003C081E00E94842980918325882351F0F8
S1133CB080919120811103C081E08093912081E063
S1133CC00E94591B80915C23882329F08AEA8093FF
S1133CD07B250E94C2130E94BA1D08951F920F9261
S1133CE00FB60F92112408B60F9218BE09B60F92A0
S1133CF019BE0AB60F921ABE0BB60F921BBE2F93B3
S1133D003F934F935F936F937F938F939F93AF935F
S1133D10BF93CF93DF93EF93FF938091A8068823FB
S1133D205CF081E08093832580918420813009F0C8
S1133D3041C00E94591B3EC080916720882399F09E
S1133D408091842081110FC0809153218C3C59F4BF
S1133D5080917523811107C080915021811103C086
S1133D600E94842917C080916720811113C080911B
S1133D708420813061F0809153218C3C41F4809106
S1133D807523811104C080915021882319F081E0AA
S1133D900E948429C0E0DAE089818F77898388E0F2
S1133DA0809386060E947F291092832510924621D3
S1133DB01EA61FA6FF91EF91DF91CF91BF91AF9106
S1133DC09F918F917F916F915F914F913F912F912F
S1133DD00F900BBE0F900ABE0F9009BE0F9008BE45
S1133DE00F900FBE0F901F9018951F920F920FB651
S1133DF00F92112408B60F9218BE0BB60F921BBE79
S1133E008F939F93EF93FF9380915C23882321F0FA
S1133E1080917B258B3B59F481E08093A60692E048
S1133E209093A50610924D2380933F2015C0809156
S1133E308825811107C083E08093A60681E08093E2
S1133E404D230AC0E5EAF6E081E0808392E09083A6
S1133E5090934D2380933F20FF91EF919F918F91F9
S1133E600F900BBE0F9008BE0F900FBE0F901F90C7
S1133E701895CF93DF9310928B2010924923C4E0BE
S1133E80C093C107D8E1D09310070E943B292FEFBC
S1133E9037EA81E6215030408040E1F700C000005D
S1133EA0C093C5079FEF27EA31E691502040304088
S1133EB0E1F700C00000C093C60780EC80930506BC
S1133EC00E94D30183E08093B000D09350062BE985
S1133ED040E460E874E086EB90E20E94382E0E9491
S1133EE0E2240E94C528109248238091680684FD2C
S1133EF00AC00E94462680914823882321F00E940C
S1133F00A6110E94D2120E9420290E94E91C0E943C
S1133F1033090E940D0E87E08093A20078940E94DA
S1133F2090190E94A50B0E94481680E10E944F132D
S1133F300E94AF070E94492980914823811121C022
S1133F4080E48093A50680E18093860660E080E0AB
S1133F500E942D1C80E00E948A1C60E080E00E9488
S1133F60031C81E08093A3258FEF93E224EF30E0DC
S1133F708150904020403040D9F700C000000E949A
S1133F808B16DF91CF910895CF93DF93CDB7DEB732
S1133F902797CDBFDEBF10928B201092492380E07B
S1133FA090E6AAEEB6E48093982590939925A09381
S1133FB09A25B0939B2580EC809301068093060696
S1133FC00E94391F109298251092992510929A25D3
S1133FD010929B25109249230F2EF5EA4F2EF6E0FE
S1133FE05F2EF02D0F2EF6EA6F2EF6E07F2EF02DC9
S1133FF00F2EF8E2EF2EF6E0FF2EF02D0FEC11E07D
S11340000F2EF4EACF2EF6E0DF2EF02D0F2EF6EE73
S1134010AF2EF6E0BF2EF02D0F2EF5EE2F2EF6E08C
S11340203F2EF02D0E941B0E811105C00E94790EB7
S11340300E94420D80C080917F20882329F00E9435
S1134040EB0210927F2077C080916923882309F4C2
S113405072C0609158237091592380915A23909192
S11340605B230E944D3080919420861770F46093F6
S1134070942070E08091692090916A2086179707B8
S113408020F46093692070936A2060916B2370918F
S11340906C2380916D2390916E230E944D3080910A
S11340A08A20861770F460938A2070E08091A4259A
S11340B09091A5258617970720F46093A425709303
S11340C0A52560914A2170914B2180914C219091BA
S11340D04D210E944D3080914320861770F46093E7
S11340E0432070E08091492090914A2086179707D9
S11340F020F46093492070934A2060916B20709162
S11341006C2080916D2090916E200E944D308091A2
S11341103C20861770F460933C2070E08091632308
S1134120909164238617970720F460936323709318
S11341306423109269238091A325882339F080E4B5
S1134140F201808380E1E6E8F6E0808380914B20F1
S1134150882359F010924B2080918420813019F4E7
S11341600E942E1E02C00E94741D80917320882319
S113417049F0809152230E948B091092732081E0B0
S113418080937A2580917825882381F00E94120AF1
S11341901092782581E080937D2584E0F30180836B
S11341A088E0F20180838AE10E944F13809170209D
S11341B0882321F00E94D809109270208091542302
S11341C0882321F00E94F509109254238091A6259A
S11341D0882379F00E949E0980914521882349F023
S11341E08EE189831A82CE0101960E940F0F1092EC
S11341F0452180917C23882359F00E94BB091092A9
S11342007C238CE189831A82CE0101960E940F0FD0
S11342108091A420882349F0F601808186FF05C09F
S11342201092A42080E4F3018083809144208823A9
S113423059F080E1F501808384E0F101808381E01D
S113424080938E201092442080919620882351F0F0
S113425084E0F501808380E1F101808310928E2057
S11342601092962080917623882309F4DAC0F6010F
S1134270808181FDD6C00E9494138091742088238C
S113428009F446C0F8948091482381111BC080E54D
S113429090E00E941035892BC1F582E590E00E94E0
S11342A00035811132C0609190257091912580E58F
S11342B090E00E9430356091892582E590E00E946B
S11342C0253523C080E590E00E9410354C0182E53D
S11342D090E00E9400358114910411F48823A9F020
S11342E019828A828B83AE014F5F5F4F63E08BE15B
S11342F00E94DA1260E070E080E590E00E943035C0
S113430060E082E590E00E94253578941092742054
S1134310F701808181FDFCCFE8E8F6E0808186FF2B
S11343200FC080914F2081110BC080914F208630A7
S113433038F481E080934F20109253230E9449293E
S1134340E8E8F6E0808188233CF08091972581118C
S113435003C081E080939725E8EAF6E08081882312
S113436084F080918325813009F454C081E08093E6
S1134370832580918420813009F04CC00E94591B10
S113438049C080918325882309F444C08091672023
S1134390882399F08091842081110FC0809153214A
S11343A08C3C59F480917523811107C08091502170
S11343B0811103C00E94842917C080916720811154
S11343C013C080918420813061F0809153218C3C12
S11343D041F480917523811104C080915021882378
S11343E019F081E00E9484290F2E812CFAE09F2E7F
S11343F0F02DF40181818F77818388E0E6E8F6E08F
S113440080830E947F291092832510924621F40113
S113441016A617A6F601808186FF0E94A1021092BB
S1134420762380915D23882309F49DC180916123C3
S11344308A3009F04CC080917B258A3A09F046C243
S1134440609158237091592380915A2390915B2352
S11344500E944D306983AE014F5F5F4F61E084E29B
S11344600E94DA12809048219090492120E030E0A7
S113447040EA50E4609158237091592380915A2363
S113448090915B230E9433316C837D838E839F8361
S11344908FE5889DB001899D700D112480E090E026
S11344A00E947C309B01AC016C817D818E819F8157
S11344B00E946A2F20E030E048EC52E40E94DB2F97
S11344C00E944D306093482170934921F4C080913B
S11344D06123843109F04CC080917B258A3A09F02C
S11344E047C060916B2370916C2380916D239091F0
S11344F06E230E944D306983AE014F5F5F4F61E0D0
S113450085E20E94DA1280908F209090902020E023
S113451030E040EA50E460916B2370916C23809109
S11345206D2390916E230E9433316C837D838E833F
S11345309F838FE5889DB001899D700D112480E0D3
S113454090E00E947C309B01AC016C817D818E8166
S11345509F810E946A2F20E030E048EC52E40E94E0
S1134560DB2F0E944D3060938F2070939020A3C066
S1134570809161238E3109F04EC0809153218A3A93
S113458019F08B3B09F047C060914A2170914B218F
S113459080914C2190914D210E944D306983AE0150
S11345A04F5F5F4F61E086E20E94DA1280909425AB
S11345B09090952520E030E040EA50E460914A2153
S11345C070914B2180914C2190914D210E94333167
S11345D06C837D838E839F838FE5889DB001899D45
S11345E0700D112480E090E00E947C309B01AC01AE
S11345F06C817D818E819F810E946A2F20E030E052
S113460048EC52E40E94DB2F0E944D3060939425C5
S11346107093952550C080916123883209F04BC076
S113462080918325882309F446C060916B207091A2
S11346306C2080916D2090916E200E944D30698392
S1134640AE014F5F5F4F61E087E20E94DA12809013
S11346507E2590907F2520E030E040EA50E4609190
S11346606B2070916C2080916D2090916E200E943F
S113467033316C837D838E839F838FE5889DB00166
S1134680899D700D112480E090E00E947C309B0194
S1134690AC016C817D818E819F810E946A2F20E014
S11346A030E048EC52E40E94DB2F0E944D306093CE
S11346B07E2570937F2580917C25882309F44FC043
S11346C080917B258A3A69F0809153218A3A49F096
S11346D080919120813029F080919320882309F4DE
S11346E03EC0F8946091762580E790E00E942535DD
S11346F0F80180818823E4F36091A32081E790E0AE
S11347000E942535F80180818823E4F36091A82074
S113471082E790E00E942535F80180818823E4F344
S113472060918C2583E790E00E942535F801808113
S11347308823E4F36091AD2084E790E00E9425355E
S1134740F80180818823E4F36091952085E790E067
S11347500E942535F80180818823E4F3789410922F
S11347605D2310927C2580917A20882309F45ACC09
S1134770909189258DEC989F812D1124869586959D
S1134780282F220F220F820F98130DC0809194209E
S1134790882349F08983AE014F5F5F4F61E084E372
S11347A00E94DA1253C0909189258DEC989F812D37
S11347B0112486958695282F220F220F820F981B8D
S11347C0913069F480918A20882349F08983AE016D
S11347D04F5F5F4F61E085E30E94DA1237C090912A
S11347E089258DEC989F812D112486958695282FF7
S11347F0220F220F820F981B923069F4809143207C
S1134800882349F08983AE014F5F5F4F61E086E3FF
S11348100E94DA121BC0909189258DEC989F812DFE
S1134820112486958695282F220F220F820F981B1C
S1134830933061F480913C20882341F08983AE0158
S11348404F5F5F4F61E087E30E94DA129091892500
S11348508DEC989F812D112486958695282F220F03
S1134860220F820F981B943071F560914C20709147
S11348704D2080E090E00E947C3020E030E043E472
S113488053E40E94692F0E944D304B015C019B014F
S11348903695279536952795ABE7B4E10E94F43118
S11348A096958795898344E6489F9001499F300DEA
S11348B01124821A930A8A82AE014F5F5F4F62E02D
S11348C087E10E94DA1210927A209ACB80916123B8
S11348D04FCE1F920F920FB60F92112408B60F926B
S11348E018BE09B60F9219BE0BB60F921BBE2F93BA
S11348F03F934F935F936F937F938F939F93AF9364
S1134900BF93EF93FF9386EB90E20E944D2FFF91AC
S1134910EF91BF91AF919F918F917F916F915F9133
S11349204F913F912F910F900BBE0F9009BE0F90A6
S113493008BE0F900FBE0F901F901895F8946CE06E
S113494088E190E00E942535EFECF1E08081882336
S1134950ECF36CE089E190E00E942535EFECF1E0A6
S113496080818823ECF36CE08AE190E00E94253595
S1134970EFECF1E080818823ECF388E190E00E9481
S1134980003590E0809351219093522189E190E089
S11349900E94003590E080936723909368238AE116
S11349A090E00E94003590E08093922590939325A7
S11349B04EE050E060E470E084E290E20E94F4345F
S11349C078940895CF93DF93CDB7DEB72F97CDBFFB
S11349D0DEBF80E290E00E9400358A3A09F468C0A4
S11349E00E949E246AEA80E290E00E942535EFEC62
S11349F0F1E080818823ECF38FE0E5E1F0E2DE0171
S1134A00119601900D928A95E1F74EE050E060E432
S1134A1070E0CE0101960E941535EFECF1E0808143
S1134A208823ECF360E080E790E00E942535EFEC0A
S1134A30F1E080818823ECF360E081E790E00E945C
S1134A402535EFECF1E080818823ECF360E082E728
S1134A5090E00E942535EFECF1E080818823ECF3AF
S1134A6060E083E790E00E942535EFECF1E080817F
S1134A708823ECF360E084E790E00E942535EFECB6
S1134A80F1E080818823ECF360E085E790E00E9408
S1134A902535EFECF1E080818823ECF34EE050E023
S1134AA060E470E084E290E20E94F43410923220D8
S1134AB04EE050E060E470E084E290E20E94F4345E
S1134AC0809124208235B9F08FE0E5E1F0E2DE0147
S1134AD0119601900D928A95E1F74EE050E060E462
S1134AE070E0CE0101960E941535EFECF1E0808173
S1134AF08823ECF352C08091262080538A30B8F585
S1134B008091272080538A3090F58091282080530B
S1134B108A3068F58091292080538A3040F580914D
S1134B202A2080538A3018F580912B2080538A30B4
S1134B30F0F480912C2080538A30C8F480912D2089
S1134B4080538A30A0F480912E2080538A3078F4E8
S1134B5080912F2080538A3050F4809130208053EC
S1134B608A3028F48091312080538A30B0F08FE06D
S1134B70E5E1F0E2DE01119601900D928A95E1F7EC
S1134B804EE050E060E470E0CE0101960E941535DD
S1134B90EFECF1E080818823ECF34EE050E060E438
S1134BA070E084E290E20E94F4341092322088E1B2
S1134BB090E00E94003590E080935121909352211F
S1134BC089E190E00E94003590E080936723909300
S1134BD068238AE190E00E94003590E0809392255A
S1134BE09093932580E790E00E940035809376258A
S1134BF081E790E00E9400358093A32082E790E053
S1134C000E9400358093A82083E790E00E9400353D
S1134C1080938C2584E790E00E9400358093AD203A
S1134C2085E790E00E940035809395202F96CDBFB4
S1134C30DEBFDF91CF910895F8946091672389E1F5
S1134C4090E00E942535EFECF1E080818823ECF3BD
S1134C5078940895F8946091512188E190E00E943D
S1134C602535EFECF1E080818823ECF37894089506
S1134C70F894609192258AE190E00E942535EFEC4A
S1134C80F1E080818823ECF3789408950F931F93C7
S1134C90CF93DF9310924823E4E7F6E080818861A4
S1134CA08083CAE08FEF0E94D728C150D9F784E0EF
S1134CB080934106809346068FEF80933720D5E09A
S1134CC080E40E94D72880E00E94D72880E00E94D8
S1134CD0D72880E00E94D72880E00E94D72885E961
S1134CE00E94D72801C0C82F8FEF0E94E428809328
S1134CF0372080913720813029F081E08C0FC83033
S1134D0090F3C82F80913720813009F425C1D15008
S1134D10B9F622C184E0809341068093450623C1FD
S1134D2088E40E94D72880E00E94D72880E00E946F
S1134D30D72881E00E94D7288AEA0E94D72887E8EA
S1134D400E94D728C9E08FEF0E94E428809337207F
S1134D5080913720813011F0C150A9F7809137201C
S1134D60813061F58FEF0E94E428882331F084E0DC
S1134D708093410680934506F6C08FEF0E94E42895
S1134D80882331F084E08093410680934506EBC08C
S1134D908FEF0E94E428813031F084E08093410653
S1134DA080934506E0C08FEF0E94E4288A3A31F0F0
S1134DB084E08093410680934506D5C0D15009F024
S1134DC0AFCF00ED17E08FEF0E94D72887E70E944E
S1134DD0D72880E00E94D72880E00E94D72880E06E
S1134DE00E94D72880E00E94D72885E60E94D72811
S1134DF0C9E08FEF0E94E428809337208091372008
S1134E00813011F0C150A9F780913720813099F594
S1134E108FEF0E94D72889E60E94D72880E40E9459
S1134E20D72880E00E94D72880E00E94D72880E01D
S1134E300E94D72887E70E94D728C9E08FEF0E94F5
S1134E40E4288093372080913720813031F080919D
S1134E503720882311F0C15089F7809137208130A1
S1134E6051F080913720882351F084E080934106EB
S1134E708093450678C00150110909F0A4CF8FEF43
S1134E800E94D7288AE70E94D72880E00E94D7286A
S1134E9080E00E94D72880E00E94D72880E00E940A
S1134EA0D7288DEF0E94D728C9E08FEF0E94E4280D
S1134EB08093372080913720882311F0C150A9F7BF
S1134EC080913720811139C08FEF0E94E4288FEF41
S1134ED00E94E4288FEF0E94E4288FEF0E94E428C8
S1134EE081FD2BC08FEF0E94D72880E50E94D72830
S1134EF080E00E94D72880E00E94D72880E00E94AA
S1134F00D72882E00E94D72880E00E94D728C9E0F1
S1134F108FEF0E94E42880933720809137208823E4
S1134F2011F0C150A9F780913720882331F084E033
S1134F30809341068093450616C08FEF0E94D728C0
S1134F4084E080934106809345068FEF0E94D72822
S1134F5081E08093482307C080913720813009F095
S1134F60D9CED5E0DDCEDF91CF911F910F91089579
S1134F700F931F93CF93DF93C62FD72F182F092F8B
S1134F8084E080934106809346068FEF0E94E428D4
S1134F908F3FD9F788E50E94D728802F0E94D72811
S1134FA0812F0E94D7288D2F0E94D7288C2F0E94F2
S1134FB0D72880E00E94D728C9E0D0E08FEF0E9474
S1134FC0E428809337208FE39CE90197F1F700C030
S1134FD0000080913720882311F0219779F71091F0
S1134FE03720112339F084E08093410680934506ED
S1134FF010E033C08FEF0E94D7288FEF0E94D7288C
S11350008FEF0E94D7288EEF0E94D72880E090E08F
S1135010EC012196FC01EC5AFE4D80810E94E428AB
S113502080933720CE01C43FD14091F78FEF0E9487
S1135030E42880933720809137208F3FB9F3809103
S113504037208F71853049F48FEF0E94D72884E090
S1135050809341068093450611E0812FDF91CF9123
S11350601F910F9108950F931F93CF93DF93C62F32
S1135070D72F182F092F84E080934106809346068A
S11350808FEF0E94E4288F3FD9F781E50E94D7284B
S1135090802F0E94D728812F0E94D7288D2F0E940D
S11350A0D7288C2F0E94D72880E00E94D728C9E0F7
S11350B0D0E08FEF0E94E428809337208FE39CE9AF
S11350C00197F1F700C0000080913720882311F088
S11350D0219779F710913720112339F084E08093D8
S11350E041068093450610E03CC0C9E0D0E08FEF54
S11350F00E94E428809337208FE39CE90197F1F71D
S113510000C00000809137208E3F11F0219779F77D
S1135110809137208E3F31F084E080934106809364
S113512045061FC0C0E0D0E08E010F5F1F4F8FEF18
S11351300E94E428CC5ADE4D8883E801043F1140E4
S113514099F7C0E1D0E08FEF0E94E4282197D9F7C6
S11351508FEF0E94D72884E0809341068093450610
S113516011E0812FDF91CF911F910F910895F89451
S11351700E949A11C0E0D0E0BE0180E090E00E945D
S1135180B8278823C9F32196F7CFE1E4F6E080E15C
S11351908083A5E4B6E08C9384E080838C9380E2E2
S11351A0808380E8808382ED8093C0080895809393
S11351B0C30889EE9DEFE0ECF8E002C0019719F016
S11351C022812223DCF708950E94D7288091C30806
S11351D008950F931F93CF93DF93662351F08C01AF
S11351E0EC01060F111D89910E94D728C017D10721
S11351F0D1F7DF91CF911F910F910895EF92FF9214
S11352000F931F93CF93DF93662399F08C01EC01E6
S1135210060F111D0F2EF0ECEF2EF8E0FF2EF02DEF
S113522080E00E94D728F70193819993C017D10792
S1135230B9F7DF91CF911F910F91FF90EF900895EF
S1135240E0E0F9E087E0808391E0978322E13AE7A8
S113525020A731A720E12093B12023E0209343002D
S113526080930004E0E0F8E0808397838DE093E08E
S113527080A791A70895E0E5F0E0808182608083B3
S1135280818181FFFDCF88ED84BF81E08093400060
S11352900895E0E4FAE087E0808381E087838AE38D
S11352A09CE080A791A70895E0E0FBE087E080837D
S11352B081E087838DE093E080A791A70895E0E4DF
S11352C0F8E087E0808381E087838DE093E080A726
S11352D091A70895E0E4F9E087E0808381E0878383
S11352E08DE093E080A791A70895E0E0FBE01082B1
S11352F017820895E0E4F8E0108217820895E0E44C
S1135300F9E0108217820895CF93DF931F92CDB7EF
S1135310DEB78093672089839E012F5F3F4F41E072
S113532060E08DEC90E00E94800C0F90DF91CF91B3
S113533008951F920F920FB60F92112408B60F9280
S113534018BE09B60F9219BE0BB60F921BBE8F92F0
S11353509F92AF92BF92CF92DF92EF92FF920F9300
S11353601F932F933F934F935F936F937F938F93E9
S11353709F93AF93BF93CF93EF93FF93C0916F230A
S1135380C0908425D0908525E0908625F0908725CF
S11353906C2F70E080E090E00E947E30A7019601BF
S11353A00E942E3118160CF03FC00091512110912B
S11353B0522101151105D1F16C2F70E080E090E0CD
S11353C00E947C304B015C01B80180E090E00E94B7
S11353D07C309B01AC01C501B4010E94DB2F20E0AD
S11353E030E040E251E40E94DB2FA70196010E94C5
S11353F06A2F6093842570938525809386259093E6
S113540087250E944D309B01AC01A0EABFE00E94B9
S1135410033224E630E040E050E00E94C83120939B
S11354202C0A30932D0A02C00E9475291092200B79
S11354301092210BFF91EF91CF91BF91AF919F916A
S11354408F917F916F915F914F913F912F911F9118
S11354500F91FF90EF90DF90CF90BF90AF909F900F
S11354608F900F900BBE0F9009BE0F9008BE0F9047
S11354700FBE0F901F9018951F920F920FB60F92A8
S1135480112408B60F9218BE09B60F9219BE0BB6B6
S11354900F921BBE8F929F92AF92BF92CF92DF92D8
S11354A0EF92FF920F931F932F933F934F935F932A
S11354B06F937F938F939F93AF93BF93CF93EF9308
S11354C0FF93C0915C23C0909F25D090A025E090CD
S11354D0A125F090A2256C2F70E080E090E00E945E
S11354E07E30A70196010E942E3118160CF041C09F
S11354F0009167231091682301151105E1F16C2FC8
S113550070E080E090E00E947C304B015C01B801C7
S113551080E090E00E947C309B01AC01C501B401A5
S11355200E94DB2F20E030E040E251E40E94DB2FB8
S1135530A70196010E946A2F60939F257093A0256E
S11355408093A1259093A2250E944D309B01AC012C
S1135550A0EABFE00E94033224E630E040E050E0DD
S11355600E94C831E0E0FAE020A731A722A733A7C0
S113557002C00E947A291092600810926108FF917B
S1135580EF91CF91BF91AF919F918F917F916F9147
S11355905F914F913F912F911F910F91FF90EF9049
S11355A0DF90CF90BF90AF909F908F900F900BBEE5
S11355B00F9009BE0F9008BE0F900FBE0F901F9062
S11355C018951F920F920FB60F92112408B60F92DE
S11355D018BE09B60F9219BE0BB60F921BBE8F925E
S11355E09F92AF92BF92CF92DF92EF92FF920F936E
S11355F01F932F933F934F935F936F937F938F9357
S11356009F93AF93BF93CF93EF93FF93C0914621A2
S1135610C0908520D0908620E0908720F09088204C
S11356206C2F70E080E090E00E947E30A70196012C
S11356300E942E3118160CF03FC000919225109153
S1135640932501151105D1F16C2F70E080E090E0F5
S11356500E947C304B015C01B80180E090E00E9424
S11356607C309B01AC01C501B4010E94DB2F20E01A
S113567030E040E251E40E94DB2FA70196010E9432
S11356806A2F60938520709386208093872090935F
S113569088200E944D309B01AC01A0EABFE00E942B
S11356A0033224E630E040E050E00E94C831209309
S11356B02E0A30932F0A02C00E947F29109260099B
S11356C010926109FF91EF91CF91BF91AF919F919A
S11356D08F917F916F915F914F913F912F911F9186
S11356E00F91FF90EF90DF90CF90BF90AF909F907D
S11356F08F900F900BBE0F9009BE0F9008BE0F90B5
S11357000FBE0F901F9018951F920F920FB60F9215
S1135710112408B60F9218BE09B60F9219BE0BB623
S11357200F921BBE2F933F934F935F936F937F937F
S11357308F939F93AF93BF93EF93FF9380918B20AD
S1135740882309F1809149238F5F809349238091B5
S113575049238531C0F010928B2010929825109225
S1135760992510929A2510929B2510924923809195
S11357705423811108C010929825109299251092F3
S11357809A2510929B2580914F20882319F18091AE
S113579053238F5F809353238630E0F080918806F3
S11357A086FF16C080E48093A50680E18093860678
S11357B060E080E00E942D1C80E00E948A1C60E072
S11357C080E00E94031C81E08093A62580934521FC
S11357D010924F2080918D258823F9F00E94A10218
S11357E080917C208F5F80937C208630B0F080E4B1
S11357F08093A50680E18093860660E080E00E94A5
S11358002D1C80E00E948A1C60E080E00E94031C42
S113581081E080937C2310928D2581E080937F200A
S11358201092600A1092610AFF91EF91BF91AF91BB
S11358309F918F917F916F915F914F913F912F91A4
S11358400F900BBE0F9009BE0F9008BE0F900FBEB5
S11358500F901F9018951F920F920FB60F9211245C
S113586008B60F9218BE09B60F9219BE0BB60F9266
S11358701BBE2F933F934F935F936F937F938F93AD
S11358809F93AF93BF93EF93FF9381E0809376232D
S11358908093692380916720882309F4B2C08091A2
S11358A061238F5F809361238C3308F4A7C08091B8
S11358B089258F5F809389258C3358F080919025BA
S11358C09091912501968093902590939125109223
S11358D0892581E080937A2080937C25109261232E
S11358E080917B258A3A99F4909176259F5F9093D5
S11358F076259C3360F02091A6203091A7202F5F5D
S11359003F4F2093A6203093A720109276259091A4
S113591053219A3A99F49091A3209F5F9093A320E6
S11359209C3360F020918025309181252F5F3F4F7B
S113593020938025309381251092A320909191206B
S1135940913099F49091A8209F5F9093A8209C3364
S113595060F020917823309179232F5F3F4F20937B
S11359607823309379231092A8209091932099233F
S113597099F090918C259F5F90938C259C3360F0D7
S11359802091A1203091A2202F5F3F4F2093A1208E
S11359903093A22010928C25909182209923B1F00B
S11359A08A3A61F58091AD208F5F8093AD208C336E
S11359B008F40BC180913D2090913E200196809384
S11359C03D2090933E201092AD20FFC090914C2337
S11359D09923A1F08A3A91F4809195208F5F809366
S11359E095208C3358F080918A2590918B250196CF
S11359F080938A2590938B251092952081E0809343
S1135A005D2380917D25882319F180917D258F5F09
S1135A1080937D258031E0F080E00E94C71A8CECF1
S1135A208093532180916720882371F08091842092
S1135A3081110AC080917523811106C08091502183
S1135A40811102C00E9484290E94D71310927D25DF
S1135A50309183208091772320913F21909172206F
S1135A60832B822B892B59F08091A420882321F049
S1135A7080E48093A50603C081E08093A4208091F4
S1135A803F20882369F080913F2091E0980F909304
S1135A903F208B3028F083E08093A60610923F20AD
S1135AA080915123882369F08091512391E0980FCC
S1135AB0909351238B3028F08CE08093A6061092AB
S1135AC05123809197258823C9F0809188068823E3
S1135AD09CF08091972591E0980F909397258930B9
S1135AE068F081E08093782580933D21109297257A
S1135AF080E00E94C71A02C01092972580918920E5
S1135B00882331F18091880685FD20C08091792514
S1135B108F5F80937925809179258630C8F081E064
S1135B20809370201092892080E48093A50680E100
S1135B308093860660E080E00E942D1C80E00E9435
S1135B408A1C60E080E00E94031C02C0109289203D
S1135B5080915523882359F18091AF20811102C08F
S1135B601092552380915523813079F480917A23C2
S1135B70882359F084E08093A60688E08093A506E4
S1135B8010927A2381E0809351238091552391E0F0
S1135B90980F909355238F3051F48CEC80935321BC
S1135BA00E94D71380E00E94C71A10925523809157
S1135BB050208A3028F4809150208F5F80935020A9
S1135BC0109220091092210905C080914C23811163
S1135BD003CF14CFFF91EF91BF91AF919F918F911C
S1135BE07F916F915F914F913F912F910F900BBED9
S1135BF00F9009BE0F9008BE0F900FBE0F901F901C
S1135C0018951F920F920FB60F92112408B60F9297
S1135C1018BE09B60F9219BE0BB60F921BBE2F9376
S1135C203F934F935F936F937F938F939F93AF9320
S1135C30BF93EF93FF930E94C80E10922008109216
S1135C402108FF91EF91BF91AF919F918F917F9127
S1135C506F915F914F913F912F910F900BBE0F90D9
S1135C6009BE0F9008BE0F900FBE0F901F9018959D
S1135C70FC01608371834863DB0111964C93A0811E
S1135C80B18115962C930190F081E02D81E08483FD
S1135C900895EF92FF920F93CF93DF93EC01253693
S1135CA008F048C00A3108F047C0FC01EC57FF4F28
S1135CB08081811143C081E0808331961082660F18
S1135CC06A832223A1F07A016FEF620F70E06F5FA5
S1135CD07F4F640F751FFA01DF01AE19BF0991915F
S1135CE0AC0FBD1F13969C93E617F707A9F7FE01A7
