S011000041315F52425F3830302E73726563B7
S11300000C9459170C947D170C94F61A0C947D17C4
S11300100C947D170C947D170C947D170C947D170C
S11300200C947D170C947D170C947D170C947D17FC
S11300300C947D170C947D170C947D170C947D17EC
S11300400C94E95B0C947D170C947D170C947D172C
S11300500C947D170C947D170C94725D0C947D1791
S11300600C947D170C947D170C947D170C947D17BC
S11300700C947D170C947D170C947D170C947D17AC
S11300800C947D170C947D170C94DB260C947D172F
S11300900C947D170C947D170C947D170C947D178C
S11300A00C947D170C947D170C947D170C947D177C
S11300B00C947D170C947D170C94E7390C947D17E0
S11300C00C947D170C947D170C947D170C947D175C
S11300D00C947D170C947D170C947D170C947D174C
S11300E00C947D170C947D170C947D170C947D173C
S11300F00C947D170C947D170C947D170C947D172C
S11301000C947D170C947D170C94AB260C947D17DE
S11301100C947D170C947D170C947D170C947D170B
S11301200C947D170C947D170C947D170C947D17FB
S11301300C947D170C947D170C947D170C947D17EB
S11301400C947D170C947D170C947D170C947D17DB
S11301500C947D170C94555F0C947D170C947D17AB
S11301600C947D170C947D170C947D170C947D17BB
S11301700C947D170C947D170C947D170C947D17AB
S11301800C9416270C9468270C94CA270C940928FD
S11301900C942D280C9463280C947D170C947D17D3
S11301A00C947D170C947D170C947D170C947D177B
S11301B00C947D170C947D170C947D170C947D176B
S11301C00C947D170C947D170C947D170C947D175B
S11301D00C947D170C947D170C947D170C947D174B
S11301E00C947D170C947D170C947D170C947D173B
S11301F00C947D170C947D170C947D17A822EF2284
S1130200DD23DD23DD23DD23DD23DD23DD23DD23EA
S1130210DD23DD23DD23DD23DD23DD23DD23DD23DA
S1130220DD23DD233723DD23DD23DD23DD23DD2370
S1130230DD23DD23DD23DD23DD23DD23DD23DD23BA
S1130240DD23DD23DD23DD23DD23DD23DD23DD23AA
S1130250DD23DD23DD23DD23DD23DD23DD23DD239A
S1130260DD23DD23DD23DD23DD23DD23DD23DD238A
S1130270DD23DD23DD23DD23DD23DD23DD23DD237A
S1130280CC23BB23DD235F22DD23DD23DD23DD231C
S1130290DD23DD23DD23DD236C22A4223F21DD23A6
S11302A06321DD23DD23DD23DD23DD23CC20EC20CE
S11302B0601FF7202121DD23DD23DD23DD23DD2362
S11302C0DD23DD23DD23DD23DD23DD23C120DD2349
S11302D0DD23DD23DD23DD23DD23DD23DD23DD231A
S11302E0DD23DD23DD23DD23DD23DD23DD23DD230A
S11302F0DD23F220DD23DD23DD23DD23DD23DD23E8
S1130300DD23DD23DD23DD23DD23DD23DD23DD23E9
S1130310DD23DD23822244234D2355235E236623DC
S11303206F2377238023882391239923A223AA234D
S1130330B3232126292630263826402647264F2651
S113034057265E2663266B26722679268126882602
S11303501338163819381C381F38223825382838ED
S11303602B382E3831383C38343837383A38973DC2
S1130370A03D7E42E44786472B482B482B482B4818
S11303802B482B482B482B482B482B482B48A93D5E
S1130390D83D063E7C3E3E3E5D3E9B3EBA3ED93E47
S11303A0353EB63FBF3FEC3FF53F22402B40564021
S11303B08240AE40DA40064132415E418A41B64154
S11303C0E24116424A422B482B482B482B489C4278
S11303D0BB42DA422B482B482B482B482B482B484E
S11303E02B482B482B482B482B482B482B482B4871
S11303F02B482B482B482B482B482B482B482B4861
S11304002B482B482B482B482B482B482B489647E6
S11304102B482B482B482B482B482B482B482B4840
S11304202B482B482B482B482B482B482B482B4830
S11304302B482B482B482B482B482B482B482B4820
S11304402B482B482B482B482B482B482B48154529
S1130450A7452B482B482B482B482B482B482B4887
S11304602B482B482B482B482B482B482B48F83E2D
S1130470093F123F2B48A03F2B482B482B482B48C1
S11304802B482B482B482B482B482B482B48F94208
S11304902B482443F243414352445E43AF44014357
S11304A07B432B482B482B482B482B482B482B4865
S11304B0FC470C481C482B482B482B482B482B48FE
S11304C02B48EC472B482B482B482B482B48C0463D
S11304D0C846EE4614473A4760472B482B482B48FA
S11304E02B482B482B482B482B482B482B482B4870
S11304F02B482B482B482B482B482B482B482B4860
S11305002B482B482B482B482B482B482B48B547C6
S1130510C54745482D4C2D4C2D4C2D4C2D4C2D4C68
S11305202D4C2D4C2D4C2D4C2D4C2D4C2D4C2D4CFF
S11305302D4C4D4855485D487D486D487548854863
S11305408D489548654886498E4996499E49A649ED
S1130550AE49B649BE49C649CE49D649DE49E649FF
S1130560EE49F649FE49064A0E4A2D4C2D4C2D4CB7
S11305702D4C164A1E4A264A2D4C2D4C2D4C2D4CE2
S11305802D4C2D4C2D4C2D4C2D4C2D4C2D4C2D4C9F
S11305902D4CEE4BF64B2D4C2D4C064C0E4C2D4C4D
S11305A02D4C1E4C264C2D4C2D4C2D4C2D4C2D4C95
S11305B02D4CD64A2D4C2D4C2D4C2D4C2D4C2D4CC8
S11305C02D4C2D4C2D4C2D4C2D4C2D4C2D4C2D4C5F
S11305D02D4C2D4C2D4CE64B2D4CFE4B2D4C164CDE
S11305E02D4CDE4B2D4C2D4C2D4C2D4C2D4C2D4C8F
S11305F02D4C2D4CA14B2D4C2D4C2D4C2D4C2D4CBC
S11306002D4C2D4C2D4C2D4C2D4C2D4C2D4C2D4C1E
S11306102D4C9D48A548BD48B548CD48DD482D4CD6
S11306202D4C2D4C2D4C2D4C2D4C2D4C2D4C2D4CFE
S11306302D4C2D4C2D4C1E4B624B284B774B324B83
S11306408C4B144B3C4B2D4C2D4C2D4C2D4C2D4C8C
S11306502D4C2D4CC64BCE4BD64B2D4C2D4C2D4CEE
S11306602D4C2D4C2D4CBE4B2D4C2D4C2D4C2D4C2E
S11306702D4C2D4C2E4A364A3E4A464A4E4A7E4A14
S1130680864A8E4A964A9E4AA64AAE4AB64ABE4A06
S1130690C64ACE4A5E4A6E4A564A2D4C2D4C2D4CC3
S11306A02D4C2D4C2D4C2D4C2D4C2D4C2D4C2D4C7E
S11306B02D4C2D4CF54A474C7C52194F1552C751BD
S11306C07C527C527C527C527C527C527C527C52B6
S11306D07C527C527C527C524F4C574C6F4C7C5217
S11306E0674C774C7F4C874C5F4C404D7C52504D4F
S11306F07C52584D7C52604D8F4DBE4DED4D0D4E8C
S11307002D4E4D4E6D4E8D4EAD4ED14EF54E7C520E
S11307107C527C527C527C52214F294F7C527C5219
S11307207C527C527C527C527C527C527C527C5255
S11307307C527C527C52355245527C527C524D52F2
S11307405D527C527C52655275527C527C527C5272
S11307507C527C527C52CF517C527C527C527C52D3
S11307607C527C527C527C527C527C527C527C5215
S11307707C527C527C527C527C527C527C527C5205
S11307807C527C527C527C527C527C527C527C52F5
S11307907C527C527C52CA4FD24F7C527C527C5247
S11307A07C527C527C527C527C527C527C527C52D5
S11307B07C527C527C528F4C7C527C527C527C52B8
S11307C0974C7C527C527C527C527C527C527C52A0
S11307D07C527C527C52314F7C52394F734F414F83
S11307E0904F494FAD4F7C52514F7C527C527C52BA
S11307F07C527C527C527C521D5225522D527C528A
S11308007C527C527C527C527C527C527C527C5274
S11308107C527C527C5257507C525F5067506F50D0
S113082077507C529750BD50E35009517C522F5160
S113083055517C527B51A1517C527C5287507C5241
S11308407C527C527C527C527C527C527C527C5234
S11308507C527C527C52EE51F65196529E529155E6
S113086012595058125912591259125912591259EF
S113087012591259125912591259A652AE52B6525D
S1130880CE52C6521259D652DE52E652BE52B85316
S11308901259C053125912591259C853F7532754B5
S11308A0565476549654B654D654F65416553F5569
S11308B0685512591259125912599955A15512597C
S11308C012591259125912591259125912591259CC
S11308D012591259125912591259EB5812591259E4
S11308E01259FB581259125912590B5912591259CB
S11308F01259125912591259125958581259125957
S1130900125912591259125912591259125912598B
S11309101259125912591259125912591259E358AB
S11309201259F3581259035912591259125912599A
S11309301259125912591259125942564A561259F9
S1130940125912591259125912591259125912594B
S113095012591259125912591259F652FE52125979
S1130960125912590E531259125912591259125935
S113097012591259125912591259A9551259B955E5
S1130980EB55C155085612592556B155C95512593A
S1130990125912591259125912591259D358DB5873
S11309A01259125912591259125912591259CB5833
S11309B012591259125912591259C256CA56D256BC
S11309C0DA56EA56FA56205746576C579257125938
S11309D0B857DE57125904582A5812591259125945
S11309E012591259125912591259125912591259AB
S11309F0125912591259125912597C5884584E5A84
S1130A00585A5A5A5E5A5E5A445A585A495A5E5A61
S1130A105E5A5E5A535A5E5A5E5AD060D860A062DB
S1130A205962A062A062A062A062A062A062A062F9
S1130A30A062A062A062A062A062A062A062A062A2
S1130A405E61E8600661A062A062A062E060A062EC
S1130A50A062A062A062A062A062A062A062A06282
S1130A607C6124614161A062A062A062A062A06274
S1130A70A062A062A062A062A062A062A062A06262
S1130A80A062A062A062A062A062A062A062A06252
S1130A90A062A062A062A062A062A062A062A06242
S1130AA0A062A062A062A062A062A062A062A06232
S1130AB0A062A062A062A062A062A062A062A06222
S1130AC0A062A062A062A062A062A062A062A06212
S1130AD0A062A062A062A062A062A062A062A06202
S1130AE0A062A062A062A062A062A062A062A062F2
S1130AF0A062A062A062A062A062A062A062A062E2
S1130B00A062A062A062A062A062A062A062A062D1
S1130B10A062A062A062A062A0629961A961B161B1
S1130B20A0623E62A0625362A062A062A062A06260
S1130B30A062A062A062A062A062A062A062A062A1
S1130B40A062A062A062A062A062A062A062A06291
S1130B50A062A062A062A062A062A06271628162CF
S1130B609162A062A062A062A062A062A0626162BF
S1130B70BA626A646A646A646A646A646A646A64B3
S1130B806A646A646A646A646A646A646A646A64F1
S1130B906A646A646A64EA62CA62D2626A646A649F
S1130BA06A64C2626A646A646A646A646A646A647B
S1130BB06A646A646A64F262DA62E2626A646A6457
S1130BC06A646A646A646A646A646A646A646A64B1
S1130BD06A646A646A646A646A646A646A646A64A1
S1130BE06A646A646A646A646A646A646A646A6491
S1130BF02B6433646A646A6443644B646A646A643D
S1130C005B6463646A646A646A646A646A646A6486
S1130C106A646A646A646A646A646A646A646A6460
S1130C206A646A646A646A646A646A646A646A6450
S1130C306A646A6423646A643B646A6453646A64CD
S1130C401B646A646A646A646A646A646A646A647F
S1130C506A646A646A646A646A646A646A646A6420
S1130C606A646A646A646A646A646A646A646A6410
S1130C70FA6202631A6312632A6352633A63426339
S1130C806A646A646A646A646A646A646A646A64F0
S1130C906A646A646A646A646A646A646A646A64E0
S1130CA06A646A646A646A646A646A646A646A64D0
S1130CB06A6403640B6413646A646A646A646A64DD
S1130CC06A646A64FB63846424662466BD6524667E
S1130CD024662466246624662466246624662466C0
S1130CE02466246624662466246624668C6424664A
S1130CF09464246624662466246624662466246632
S1130D00246624662466246624662466DC649C6463
S1130D10BC642466246624662466246624662466E9
S1130D20246624662466246624662466246624666F
S1130D30246624662466246624662466246624665F
S1130D40246624662466DD65ED6524662466F565FF
S1130D500566246624660D661D662466246624667C
S1130D60246624662466246624662466246624662F
S1130D70246624662466246624662466246624661F
S1130D80246624662466246624662466246624660F
S1130D9024662466246624662466246624662466FF
S1130DA024662466246624662466246624662466EF
S1130DB024662466246624662466246624662466DF
S1130DC0246624662466FC642466246624662466F9
S1130DD014650465246624662466246624662466F1
S1130DE024662466246624662466246624662466AF
S1130DF0246624662466246624662466246624669F
S1130E002466246624662466C565CD65D5653E667C
S1130E104666DE67DE67DE67DE67DE67DE67DE673F
S1130E20DE67DE67DE67DE67DE67DE67DE67DE6796
S1130E30DE67DE6756667666DE67DE67DE67DE6778
S1130E404E66DE67DE67DE67DE67DE67DE67DE6707
S1130E50DE67DE67BE667E669E66DE67DE67DE6729
S1130E60DE67DE67DE67DE67DE67DE67DE67DE6756
S1130E70DE67DE67DE67DE67DE67DE67DE67DE6746
S1130E80DE67DE67DE67DE67DE67DE67DE67B7675D
S1130E90DE67DE67DE67C767DE67DE67DE67D76744
S1130EA0DE67DE67DE67DE67DE67DE67DE67DE6716
S1130EB0DE67DE67DE67DE67DE67DE67DE67DE6706
S1130EC0DE67DE67DE67DE67DE67DE67DE67DE67F6
S1130ED0DE67AF67DE67BF67DE67CF67DE67DE6743
S1130EE0DE67DE67DE67DE67DE67DE67DE67DE67D6
S1130EF0DE67DE67DE67DE67DE67DE67DE67DE67C6
S1130F00DE67DE67DE67DE67DE67DE67DE6766662E
S1130F10DE66DE67DE67DE67EE66DE67DE67DE6797
S1130F20DE67DE67DE67DE67DE67DE67DE67DE6795
S1130F30DE67DE67DE67DE67DE67DE67DE67DE6785
S1130F40DE67DE67DE67DE67DE67DE67DE67DE6775
S1130F509F67A767DE67DE67DE67DE67DE67DE67DB
S1130F60DE6797675455524E204F4646204B4559ED
S1130F7000453133202D204F564552564F4C544195
S1130F804745004F564552464C4F570043414E206B
S1130F904255464645520043414C49425241544908
S1130FA04F4E00504F54454E54494F4D45544552B1
S1130FB00043414C4942524154494F4E20434F4D06
S1130FC0504C45544500504544414C20544F204614
S1130FD04C4F4F52004E4F572046554C4C592050C1
S1130FE052455353005455524E204F4646204B45CC
S1130FF05900453131202D20413320544F50204594
S113100052524F5200453033202D20413220544F4C
S113101050204552524F52005455524E204F46468E
S1131020204B455900453232202D20424D204F5649
S113103045524C4F4144005455524E204F46462091
S11310404B455900453231202D2038373031204668
S113105041554C5400535749544348204F50454E32
S113106000453134202D20534541542F4252414BE9
S113107045005455524E204F4646204B4559004595
S11310803031202D204655534520424C4F574E00B9
S11310904641494C00453230202D205344204341E1
S11310A0524400554E415641494C41424C4500453D
S11310B03139202D2053442043415244004F56459A
S11310C052464C4F57005344204255464645520021
S11310D04F564552464C4F570043414E20425546C9
S11310E0464552004641494C2D44454641554C54D1
S11310F053204C4F4144454400453138202D204D68
S11311004F544F522053455454494E4753004F5661
S113111045524C4F414400453132202D2044524920
S11311205645204D4F544F5200414343454C455280
S113113041544F5220504544414C00453130202DFC
S11311402052454C454153450053572D4F5554208B
S11311504F46204E45555452414C004531352D459E
S11311604D455247454E4359204452495645004146
S11311704343454C455241544F5220504544414C01
S113118000453130202D2052454C45415345004601
S1131190554E4354494F4E494E4700453039202D52
S11311A020504F54204E4F5400494E2041332D437C
S11311B04845434B20574952494E47004531372053
S11311C02D204B455920494E505554204F50454EE3
S11311D00020202020202020202020202000454303
S11311E04F204F4646202020202000202020202071
S11311F0202020202020200045434F204F4E202037
S113120020202020002020202020202020202020FA
S113121020004252555348204F4E202020200020C9
S1131220202020202020202020202000425255531E
S113123048204F46462020200050524553535552D3
S113124045204F4E20004558545241202020202054
S11312502020005052455353555245204F464600D6
S113126045585452412020202020202000484C4939
S113127047485420204F4E202000202020202020AA
S113128020202020202000484C4947485420204F4B
S11312904E202000484C4947485420204F464620C1
S11312A00020202020202020202020202000484C26
S11312B04947485420204F46462000484F524E206C
S11312C04F4E2020202020002020202020202020DD
S11312D02020202000484F524E204F4E2020202016
S11312E02000484F524E204F464620202020002008
S11312F0202020202020202020202000484F524E53
S1131300204F46462020202000202020202020207E
S113131020202020200056414355554D204F4E207B
S113132020200020202020202020202020202000F9
S113133056414355554D204F46462020004D4544C7
S11313402D4849474820202020200044455420505F
S1131350554D5020202020004D45442020202020A1
S113136020202020004445542050554D502020205A
S113137020004C4F572D4D45442020202020004470
S113138045542050554D5020202020004C4F5720CC
S11313902020202020202020004445542050554D5A
S11313A05020202020004F464620202020202020AE
S11313B02020004445542050554D5020202020002A
S11313C04849474820202020202020202000444550
S11313D0542050554D5020202020004D45442D4888
S11313E04947482020202020004445542050554D92
S11313F05020202020004D45442020202020202063
S11314002020004445542050554D502020202000D9
S11314104C4F572D4D454420202020200044455456
S11314202050554D5020202020004C4F5720202084
S1131430202020202020004445542050554D502089
S1131440202020004D45442D484947482020202095
S1131450200057415445522050554D502020004DF6
S1131460454420202020202020202000574154459E
S1131470522050554D502020004C4F572D4D45447F
S113148020202020200057415445522050554D50D3
S11314902020004C4F5720202020202020202000F6
S11314A057415445522050554D502020004F464638
S11314B02020202020202020200057415445522065
S11314C050554D50202000484947482020202020D6
S11314D0202020200057415445522050554D502083
S11314E020004D45442D4849474820202020200015
S11314F057415445522050554D502020004D4544ED
S11315002020202020202020200057415445522014
S113151050554D502020004C4F572D4D4544202010
S11315202020200057415445522050554D50202032
S1131530004C4F57202020202020202020005741FD
S11315405445522050554D5020200020202020206A
S1131550202020202020200052455645525345206B
S11315602020202000202020202020202020202097
S11315702000464F52574152442020202020002072
S113158020202020202020202020200052455645C5
S113159052534520202020200020202020202020DD
S11315A02020202020005452414E53504F525420AA
S11315B02020002020202020202020202020200067
S11315C0464F525741524420202020202000202002
S11315D020202020202020202020005452414E533F
S11315E0504F525420202000202020202020202052
S11315F020202020005452414E53504F5254204D2D
S11316004F4445002020202020202020202020207E
S11316100052455645525345204D4F4445004155CF
S1131620544F204D4F44452020200046554C4C003B
S113163054414E4B0046554C4C0054414E4B0046D1
S113164041535400534C4F57002020202020202089
S1131650202020202000484F524E204F4E20202092
S11316602020005052455353555245204F4E2000E0
S1131670455854524120202020202020004241542B
S11316805445525920545950453A2047454C00423C
S113169041545445525920545950453A2041474DDC
S11316A0004241545445525920545950453A204C13
S11316B0454144005448452042415454455259211F
S11316C000453136202D20434841524745004241D0
S11316D05454455259204C4F5721005357495443B1
S11316E048204F50454E00453134202D2042524170
S11316F04B452F534541540053572D4F5554204FBC
S113170046204E45555452414C00453135202D4517
S11317104D455247454E4359204452495645004190
S11317204343454C455241544F5220504544414C4B
S113173000453130202D2052454C4541534500543D
S113174055524E204F4646204B45590045313320D3
S11317502D204F564552564F4C5441474500545541
S1131760524E204F4646204B455900453031202DDE
S1131770204655534520424C4F574E005455524E27
S1131780204F4646204B455900453231202D203804
S1131790373031204641554C54005455524E204F59
S11317A04646204B455900453232202D20424D20DB
S11317B04F5645524C4F4144005455524E204F46CB
S11317C046204B455900453131202D2041332054CA
S11317D04F50204552524F5200453033202D204166
S11317E03220544F50204552524F52004348414EEC
S11317F04745442020202020004155544F204D4F80
S11318004445202020004641494C00453230202DDB
S1131810205344204341524400554E415641494CC3
S113182041424C4500453139202D20534420434149
S1131830524400434845434B20574952494E4700C0
S1131840453034202D204E4F2043414E20434F4DF0
S11318504D00434845434B20574952494E470045A4
S11318603034202D204E4F2041332043414E20431D
S11318704F4D4D00434845434B20574952494E472D
S113188000453034202D204E4F2041322043414E1C
S113189020434F4D4D00434845434B20574952493F
S11318A04E4700453034202D204E4F2043414E20DA
S11318B0434F4D4D004252202D20646F776E7C487B
S11318C04C202D206261636B004550202D207570E3
S11318D020207C5256202D206E65787400434845A4
S11318E0434B20574952494E47004E4F2041332025
S11318F043414E20434F4D4D00434845434B2057F1
S11319004952494E47004E4F2041322043414E2018
S1131910434F4D4D00434845434B20574952494E90
S113192047004E4F2043414E20434F4D4D00434806
S113193045434B494E472043414E204255532E2E9A
S11319402E0041424F55542041330041424F5554DB
S11319502041320041424F555420413100524553F9
S11319605441525420524551554952454400534420
S1131970204341524420434C4541524544002E00EB
S11319802E002E0045524153494E472053442043D4
S11319904152440041424F5554005245534554204E
S11319A0544F2044454641554C5400544F2044451F
S11319B04641554C542056414C55455300414C4CDE
S11319C02053455454494E475320524553455400DF
S11319D0434C454152205344204341524400505209
S11319E0455357454550204D415820435552524583
S11319F04E540050524553574545502041564720B8
S1131A0043555252454E540056414355554D204D71
S1131A1041582043555252454E5400564143555562
S1131A204D204156472043555252454E5400425290
S1131A305553482032204D41582043555252454E6B
S1131A4054004252555348203220415647204355B2
S1131A505252454E540042525553482031204D4174
S1131A60582043555252454E540042525553482033
S1131A7031204156472043555252454E5400454368
S1131A804F204D4F444520484F5552530053544125
S1131A905449535449435300444554455247454ED1
S1131AA0542050554D5000535441544953544943C4
S1131AB0530057415445522050554D500050524503
S1131AC05357454550205354415449535449435363
S1131AD00056414355554D2053544154495354499C
S1131AE0435300524553455420544F2044454641E6
S1131AF0554C5400484F5552533A4D494E55544550
S1131B005300484F5552533A4D494E55544553008E
S1131B105354415449535449435300534554204169
S1131B20332053455249414C204E554D00534554A2
S1131B302041322053455249414C204E554D0053CB
S1131B4045542041312053455249414C204E554D76
S1131B500052554E2054494D45004241545445527B
S1131B60593A2047454C00424154544552593A2071
S1131B7041474D005345542053455249414C204E52
S1131B80554D004F4646004F4646004F46460050CE
S1131B9052452D53574545502053455454494E47BB
S1131BA0530042525553482053455454494E4753C9
S1131BB0004E45585420544F20524543414C49420D
S1131BC0524154450043414E43454C4C4544005218
S1131BD04543414C4942524154494F4E0043414CC4
S1131BE04942524154494F4E00504F54454E544976
S1131BF04F4D455445520056414355554D2053458C
S1131C005454494E47530053455454494E47530086
S1131C10504F54454E54494F4D45544552004F562C
S1131C2045524C4F41442054494D45004D415820A4
S1131C3043555252454E540043555252454E54203A
S1131C40524154494E470046415354205350454550
S1131C50440052455645525345205350454544008F
S1131C60464F525741524420535045454400425236
S1131C70414B452044454C415900444543454C455E
S1131C80524154494F4E00424154544552592054F4
S1131C90595045004D4F544F522053455454494ECA
S1131CA047530041332053455249414C204E554D32
S1131CB00041322053455249414C204E554D00417C
S1131CC0312053455249414C204E554D0041424F1D
S1131CD055542041320041424F5554204131004176
S1131CE0424F555420524238303000434C45415203
S1131CF0205344204341524400434C454152205315
S1131D004420434152440043414E43454C4C4544D6
S1131D1000434C454152204F5045524154494F4E87
S1131D2000524553455420544F2044454641554C98
S1131D305400524553455420544F20444546415580
S1131D404C540043414E43454C4C4544005245538A
S1131D504554204F5045524154494F4E005354412D
S1131D6054495354494353005052455357454550E1
S1131D70204156472043555252454E540050524537
S1131D80535745455020484F5552530056414355EB
S1131D90554D204156472043555252454E54005606
S1131DA0414355554D20484F5552530042525553C7
S1131DB0482032204156472043555252454E540044
S1131DC042525553482031204D41582043555252D8
S1131DD0454E540042525553482031204156472025
S1131DE043555252454E5400425255534820484F91
S1131DF05552530053544154495354494353004496
S1131E004554455247454E542050554D5000535467
S1131E104154495354494353005741544552205067
S1131E20554D500050524553574545502053544149
S1131E30544953544943530056414355554D205337
S1131E405441544953544943530042525553482032
S1131E50535441544953544943530052554E20540A
S1131E60494D4500484F5552533A4D494E555445F6
S1131E705300484F5552533A4D494E55544553001B
S1131E805345542053455249414C204E554D00531F
S1131E9045542041322053455249414C204E554D22
S1131EA0005345542041312053455249414C204E62
S1131EB0554D00534554205242383030205345523A
S1131EC049414C204E554D004241545445525920ED
S1131ED05459504500424154544552593A204147BF
S1131EE04D00424154544552593A204C4541440016
S1131EF04D4F544F522053455454494E475300427A
S1131F00525553482053455454494E475300564163
S1131F104355554D2053455454494E47530053455A
S1131F205454494E475300504F54454E54494F4D15
S1131F3045544552004E45585420544F2052454371
S1131F40414C4942524154450043414E43454C4C57
S1131F50454400524543414C4942524154494F4E35
S1131F60004F5645524C4F41442054494D45004D75
S1131F7041582043555252454E5400435552524500
S1131F804E5420524154494E4700524556455253EF
S1131F904520535045454400464F52574152442032
S1131FA0535045454400534C4F57205350454544E6
S1131FB0004252414B452044454C4159004445435D
S1131FC0454C45524154494F4E00414343454C45CD
S1131FD0524154494F4E004D4F544F522053455493
S1131FE054494E47530041424F5554204133004118
S1131FF0424F55542041330041424F555420413300
S11320000041424F55542041320041424F55542023
S113201041320041424F55542041320041424F5514
S1132020542041310041424F555420413100414236
S11320304F55542041310041424F555420524238AB
S113204030300041424F55540041424F55540041F5
S1132050424F55540041424F55540052554E20545E
S1132060494D45005345542041332053455249417D
S11320704C204E554D005345542041322053455277
S113208049414C204E554D00534554204131205375
S1132090455249414C204E554D005345542052421F
S11320A03830302053455249414C204E554D005351
S11320B045542053455249414C204E554D005345FB
S11320C0542053455249414C204E554D00534554DC
S11320D02053455249414C204E554D005345542000
S11320E053455249414C204E554D00434C454152B5
S11320F020534420434152440043414E43454C4CF9
S1132100454400434C454152204F504552415449A7
S11321104F4E00524553455420544F2044454641A8
S1132120554C540043414E43454C4C4544005245A4
S1132130534554204F5045524154494F4E0050523C
S113214045535745455020535441544953544943EA
S11321505300505245535745455020535441544918
S11321605354494353005052455357454550205307
S11321705441544953544943530056414355554DD2
S113218020535441544953544943530056414355F1
S1132190554D2053544154495354494353005641D7
S11321A04355554D205354415449535449435300C6
S11321B0425255534820535441544953544943536C
S11321C000425255534820535441544953544943AF
S11321D0530042525553482053544154495354498F
S11321E04353004252555348205354415449535485
S11321F04943530042525553482053544154495380
S1132200544943530053544154495354494353008C
S1132210444554455247454E542050554D50005363
S1132220544154495354494353005741544552204F
S113223050554D500053544154495354494353004D
S113224053544154495354494353005354415449FA
S113225053544943530053544154495354494353E9
S11322600053544154495354494353005354415423
S113227049535449435300424154544552592054FC
S113228059504500424154544552592054595045DF
S1132290004241545445525920545950450050521B
S11322A0452D535745455020534C4F5720535441C7
S11322B0525400425255534820534C4F57205354C4
S11322C04152540056414355554D20534C4F5720CD
S11322D05354415254004F5645524C4F414420549C
S11322E0494D45004D41582043555252454E5400E6
S11322F043555252454E5420524154494E4700468C
S113230041535420535045454400534C4F57205398
S11323105045454400524556455253452053504577
S11323204544004252414B452044454C41590044E8
S11323304543454C45524154494F4E004143434562
S11323404C45524154494F4E005052452D53574528
S113235045502053455454494E4753004D4F544F14
S1132360522053455454494E475300425255534802
S11323702053455454494E4753004D4F544F522017
S113238053455454494E47530056414355554D20E7
S113239053455454494E4753004D4F544F522053C4
S11323A0455454494E4753004E45585420544F20E9
S11323B0524543414C4942524154450043414E43E6
S11323C0454C4C454400524543414C4942524154CA
S11323D0494F4E0043414C4942524154494F4E00EB
S11323E0504F54454E54494F4D4554455200534562
S11323F05454494E475300504F54454E54494F4D41
S11324004554455200504F54454E54494F4D455440
S1132410455220545950450053455454494E47534E
S113242000504F54454E54494F4D45544552004D6C
S11324304F544F522053455454494E4753004D4F27
S1132440544F522053455454494E4753004D4F5412
S11324504F522053455454494E4753004D4F544F07
S1132460522053455454494E4753004D4F544F52F4
S11324702053455454494E475300464F52574152F6
S11324804420535045454400464F5257415244203E
S11324905350454544004D4F544F522053455454D6
S11324A0494E4753004D4F544F52205345545449BD
S11324B04E4753004D4F544F522053455454494EA8
S11324C04753004D4F544F522053455454494E479F
S11324D053004D4F544F522053455454494E475383
S11324E00041332053455249414C204E554D004143
S11324F0322053455249414C204E554D0041312024
S113250053455249414C204E554D005242383030CB
S11325102053455249414C204E554D0041424F55A0
S11325205420524238303000434C454152205344E9
S113253020434152440043414E43454C4C454400E2
S1132540434C454152204F5045524154494F4E004F
S1132550444F574E20544F20434F4E4649524D004E
S1132560434F4E4649524D20434C4541520052453B
S113257053455420544F2044454641554C54004340
S1132580414E43454C4C4544005245534554204F1D
S11325905045524154494F4E00444F574E20544FDA
S11325A020434F4E4649524D00434F4E4649524DEB
S11325B020524553455400444554455247454E54D2
S11325C02050554D5020484F5552530057415445C3
S11325D0522050554D5020484F55525300505245AB
S11325E0535745455020484F555253005641435583
S11325F0554D20484F555253004252555348204898
S11326004F55525300425255534820535441544954
S1132610535449435300484F5552533A4D494E552C
S11326205445530052554E2054494D45204348418A
S11326304E47454400484F5552533A4D494E555420
S11326404553004348414E47454400534552494190
S11326504C204E554D424552004348414E47454457
S11326600053455249414C204E554D42455200437A
S113267048414E4745440053455249414C204E552C
S11326804D424552004348414E474544005345524C
S113269049414C204E554D4245520053455420412A
S11326A0332053455249414C204E554D0053455417
S11326B02041322053455249414C204E554D005340
S11326C045542041312053455249414C204E554DEB
S11326D0005345542052423830302053455249412A
S11326E04C204E554D005345542052423830302032
S11326F053455249414C204E554D00424154544596
S1132700525920545950450042415454455259207D
S1132710545950452053455400424154544552594C
S1132720205459504500424154544552592054595B
S11327305045205345540042415454455259205465
S1132740595045004241545445525920545950451A
S11327502053455400424154544552593A20474568
S11327604C00424154544552593A2041474D00428D
S11327704154544552593A204C4541440050524525
S11327802D535745455020534C4F572053544152D5
S11327905400534554005052452D5357454550203D
S11327A0534C4F57205354415254004252555348AE
S11327B020534C4F57205354415254005345540016
S11327C0425255534820534C4F572053544152546E
S11327D00056414355554D20534C4F5720535441B7
S11327E05254005345540056414355554D20534CC3
S11327F04F57205354415254004F5645524C4F4169
S1132800442054494D45004F5645524C4F414420B5
S113281054494D4520534554004D41582043555289
S113282052454E54004D41582043555252454E5442
S1132830205345540043555252454E54205241545E
S1132840494E470043555252454E54205241544933
S11328504E47205345540046415354205350454558
S11328604400464153542053504545442053455455
S113287000534C4F5720535045454400534C4F5739
S11328802053504545442053455400524556455223
S113289053452053504545440052455645525345EF
S11328A020535045454420534554004252414B4522
S11328B02044454C4159004252414B452044454C2B
S11328C041592053455400444543454C45524154D5
S11328D0494F4E00444543454C45524154494F4E9F
S11328E02053455400414343454C45524154494FBC
S11328F04E00414343454C45524154494F4E2053A9
S11329004554004F4646005052452D5357454550B7
S113291020534C4F57205354415254004F464600C5
S1132920425255534820534C4F572053544152540C
S1132930004F46460056414355554D20534C4F5782
S113294020535441525400504544414C205357495C
S113295054434820434C4F5345530050524553531E
S113296020504544414C20554E54494C004E455846
S11329705420544F20524543414C494252415445FE
S1132980004E4F542059455420494D504C454D4517
S11329904E5445440043414C4942524154494F4EE0
S11329A000504F54454E54494F4D455445520053E1
S11329B04C4F5720535045454400414343454C45F3
S11329C0524154494F4E004D4F544F522053455499
S11329D054494E4753004252202D20646F776E7C39
S11329E0484C202D206261636B004550202D2075DA
S11329F07020207C5256202D206E65787400434848
S1132A0045434B20574952494E47004E4F204133CE
S1132A102043414E20434F4D4D00434845434B20F6
S1132A20574952494E47004E4F2041322043414EB0
S1132A3020434F4D4D00434845434B20574952498D
S1132A404E47004E4F2043414E20434F4D4D0043CF
S1132A504845434B494E472043414E204255532E4F
S1132A602E2E0041424F55542041330041424F55D0
S1132A70542041320041424F5554204131004E45CB
S1132A80585420544F20524543414C4942524154DA
S1132A90450043414E43454C4C4544005245434157
S1132AA04C4942524154494F4E0043414C494252D1
S1132AB04154494F4E00504F54454E54494F4D4593
S1132AC05445520046415354205350454544005602
S1132AD0414C554500504F54454E54494F4D455473
S1132AE045520053455454494E475300504F5445A2
S1132AF04E54494F4D455445520052455645525344
S1132B00452053504545440041424F5554004D4FD4
S1132B10544F522053455454494E47530041332097
S1132B2053455249414C204E554D004132205345A6
S1132B305249414C204E554D004131205345524994
S1132B40414C204E554D0041424F555420413200D6
S1132B5041424F55542041310041424F5554205277
S1132B6042383030004D4F544F5220534554494E53
S1132B704753004E45585420544F20524543414C2E
S1132B804942524154450043414E43454C4C45440F
S1132B9000524543414C4942524154494F4E00531F
S1132BA0455454494E475300504F54454E54494F91
S1132BB04D455445520052455645525345205350B5
S1132BC045454400534C4F57205350454544004617
S1132BD04F5257415244205350454544004D4F54A1
S1132BE04F522053455454494E47530041424F5588
S1132BF0542041330041424F555420413300414257
S1132C004F55542041330041424F55542041320026
S1132C1041424F55542041320041424F55542041C6
S1132C20320041424F55542041310041424F5554E6
S1132C302041310041424F55542041310041424F1F
S1132C4055542052423830300041424F55540041CF
S1132C50424F55540041424F55540041424F555440
S1132C60004E45585420544F20524543414C49424C
S1132C70524154450043414E43454C4C4544005257
S1132C804543414C4942524154494F4E0056414CF0
S1132C90554500504F54454E54494F4D45544552A7
S1132CA0004D4F544F522053455454494E475300FE
S1132CB043414C4942524154494F4E00504F5445B0
S1132CC04E54494F4D455445520053455454494E72
S1132CD0475300504F54454E54494F4D4554455267
S1132CE000504F54454E54494F4D4554455220547D
S1132CF05950450053455454494E475300504F547E
S1132D00454E54494F4D45544552004D4F544F5232
S1132D102053455454494E47530052455645525347
S1132D2045205350454544004D4F544F5220534580
S1132D305454494E4753004641535420535045453B
S1132D404400534C4F5720535045454400464F527E
S1132D505741524420535045454400464F52574131
S1132D605244205350454544004D4F544F52205334
S1132D70455454494E4753004D4F544F52205345E8
S1132D805454494E47530041332053455249414C12
S1132D90204E554D0041322053455249414C204E5E
S1132DA0554D0041312053455249414C204E554D1B
S1132DB00052423830302053455249414C204E5540
S1132DC04D0041424F555420524238303000504556
S1132DD044414C2053574954434820434C4F534596
S1132DE05300505245535320504544414C20554EB6
S1132DF054494C004E45585420544F2052454341A9
S1132E004C494252415445004E4F54205945542098
S1132E10494D504C454D454E5445440043414C4961
S1132E2042524154494F4E00504F54454E54494F1D
S1132E304D45544552005245564552534520535032
S1132E404545440052455645525345205350454547
S1132E50442053455400464153542053504545445F
S1132E600046415354205350454544205345540093
S1132E70534C4F5720535045454400534C4F572013
S1132E8053504545442053455400534C4F57205309
S1132E905045454400464F525741524420535045F3
S1132EA04544004D4F544F522053455454494E47C6
S1132EB0530011241FBECFEFCDBFDFE2DEBF18BE2B
S1132EC019BE1ABE1BBE11E2A0E0B0E2E8E4FEEDBA
S1132ED000E00BBF02C007900D92A434B107D9F7EC
S1132EE01BBE27E2A4E4B1E201C01D92AF3EB207CB
S1132EF0E1F70E94BD360C94226F0C9400001092EE
S1132F005023109201231092AD22F894EFECF1E0DB
S1132F1080818823ECF382E290E00E94C16E8436C3
S1132F2018F48093AE210DC083E68093AE21EFECBC
S1132F30F1E080818823ECF363E682E290E00E9472
S1132F40E66E78940895CF92DF92EF92FF92BC01DF
S1132F5080E090E00E94646A20E030E043E453E4BF
S1132F600E94516920E030E048EC52E40E94C369B9
S1132F706B017C0120E030E040EF51E40E94166BCD
S1132F808823DCF08091012391E0980F9093012332
S1132F908430A8F081E08093502384E00E940524CB
S1132FA081E79FE00E942B3360E081E00E94B4320D
S1132FB084E69FE00E94893202C01092012380912E
S1132FC04823833269F1843309F451C0823109F012
S1132FD074C020E030E048EC51E4C701B6010E941F
S1132FE0166B88230CF0FFC02AE939E941EA51E461
S1132FF0C701B6010E94BE6918160CF083C02CEFFD
S113300039EA46EA51E4C701B6010E941B6B2DE37D
S11330103AE642ED53E40E9451690E94356A4EC07B
S11330202AE939E949EC51E4C701B6010E94166B5B
S113303088230CF0D8C026E636E646EB51E4C701F7
S1133040B6010E94BE6918160CF05EC022E03BEA8D
S113305046E252E4C701B6010E941B6B20E030E84F
S11330604DE654E40E9451690E94356A27C020E06D
S113307030E044EC51E4C701B6010E94166B88238A
S11330800CF0B1C026E636E64EEA51E4C701B601BB
S11330900E94BE691816D4F528E93EEE42E152E4D6
S11330A0C701B6010E941B6B28E431ED47E454E4E8
S11330B00E9451690E94356A01C060E080917F21BD
S11330C08A3A29F5633619F5F894EFECF1E080813A
S11330D08823ECF36BEB83E290E00E94E66E83E6D8
S11330E08093AE21EFECF1E080818823ECF363E67A
S11330F082E290E00E94E66E8BEB80937F217894CD
S113310063E605C060E003C060E001C060E0609376
S1133110B3218091AE21681750F46093AE21F894E6
S11331206091AE2182E290E00E94E66E78948091F4
S1133130E5228A3AC9F48091A4228A3AA9F420911A
S1133140B321422F50E08091AE2190E00A9684177B
S1133150950754F42093AE21F8946091AE2182E255
S113316090E00E94E66E78948091AE21893570F4E7
S11331708091B321833651F48093AE21F894609109
S1133180AE2182E290E00E94E66E78948091AE21B6
S11331908B3078F09091AD229A3A61F19D3D29F0FF
S11331A09E3E19F080E1809305068AEA8093AD2261
S11331B030C09FEF980F9A3050F49091AD229B3B12
S11331C031F09D3DE1F08DED8093AD2222C081115F
S11331D020C08091AD228C3CE1F08E3EB9F08EEEA1
S11331E08093AD2216C080917F218A3A09F46CCF76
S11331F063E68DCF9FEF980F9A3028F304C08BEBD2
S11332008093AD2206C0882351F303C08CEC8093D5
S1133210AD22FF90EF90DF90CF900895CF93DF938E
S11332201F92CDB7DEB79E012F5F3F4F40E060E0B5
S11332308AEB90E00E94221A2FEF89EF90E0215050
S113324080409040E1F700C000000F90DF91CF91E3
S11332500895DF92EF92FF920F931F93CF93DF9322
S1133260D82E7B01D42F01E416E0C0E1F801C0831D
S1133270C093460682E00E947A5A8D2D0E947A5AA3
S11332806D2FC7010E94875AF801C083C093450679
S1133290DF91CF911F910F91FF90EF90DF900895F0
S11332A0EF92FF921F93CF93DF9300D000D0CDB75E
S11332B0DEB70E94BB1B0F2EF1E4EF2EF6E0FF2ECB
S11332C0F02D10E1F70110831093460680EC0E9464
S11332D07A5AF70110831093450619821A821B82C9
S11332E01C8241E0BE016F5F7F4F8DE00E9429196F
S11332F084E2898380E28A831B8243E0BE016F5F9C
S11333007F4F80E60E94291913E81B8380E78A8394
S113331086E0898343E0BE016F5F7F4F88E20E94AD
S11333202919198341E0BE016F5F7F4F8BE20E9430
S11333302919198241E0BE016F5F7F4F80E30E942B
S1133340291941E0BE016F5F7F4F80E40E94291973
S1133350198241E0BE016F5F7F4F8FE00E942919FF
S113336088E08093420680934A0685E0809349066C
S113337082E0809353061092CA2210928121109207
S1133380932210925F23109243232496CDBFDEBF75
S1133390DF91CF911F91FF90EF900895DF92EF920C
S11333A0FF920F931F93CF93DF93D82E7B01D42FDB
S11333B001E416E0C0E1F801C083C093460683E04F
S11333C00E947A5A8D2D0E947A5A6D2FC7010E944D
S11333D09C5AF801C083C0934506DF91CF911F9199
S11333E00F91FF90EF90DF900895EF92FF920F936B
S11333F01F93CF93DF931F92CDB7DEB7082F0F2E05
S1133400F1E4EF2EF6E0FF2EF02D10E1F70110832A
S11334101093460683E00E947A5A802F0E947A5ABB
S113342061E0CE0101960E949C5AF701108310932B
S1133430450689810F90DF91CF911F910F91FF90E5
S1133440EF900895CF93DF93CDB7DEB72B97CDBF21
S1133450DEBF89836A834B83442379F0A22FB32F81
S1133460FE01349641509E01240F311D2B5F3F4FC6
S11334708D918193E217F307D9F7CE0101960E944B
S11334805F1C2B96CDBFDEBFDF91CF9108952F92A5
S11334903F924F925F926F927F928F929F92AF92E0
S11334A0BF92CF92DF92EF92FF920F931F93CF932D
S11334B0DF9300D000D0CDB7DEB7282E462E542E91
S11334C0590181E089833324339401E416E068943C
S11334D0772474F8672C0F2EF6E4EF2EF6E0FF2E17
S11334E0F02D9FEF940FE92FF0E03196E20FF31FD8
S11334F0EB83FC830F2EF5E4CF2EF6E0DF2EF02DC8
S113350001C0198230929D22F8016082F701608225
S113351080E40E947A5A87E80E947A5A8BEE0E94CD
S11335207A5A822D0E947A5A81EA0E947A5A442059
S113353021F080E40E947A5A10C0852D0E947A5AA4
S1133540552059F04501F40181914F010E947A5AA6
S11335508B819C8188169906B1F7F8017082F60177
S11335607082F8017082F701708282E00E947A5AB8
S113357080E30E947A5A80919D22882321F088E07A
S11335800E947A5A04C0F981F13009F4BACF80E17B
S1133590809341068093450610929D222496CDBFC8
S11335A0DEBFDF91CF911F910F91FF90EF90DF90DD
S11335B0CF90BF90AF909F908F907F906F905F90CF
S11335C04F903F902F900895CF93F8948CE10E94F0
S11335D0F519C82F8DE10E94F519C93710F4893700
S11335E010F00E9450197894CF9108951F920F9271
S11335F00FB60F92112408B60F9218BE09B60F9297
S113360019BE0AB60F921ABE0BB60F921BBE0F93C9
S11336101F932F933F934F935F936F937F938F9356
S11336209F93AF93BF93EF93FF93CF93DF93CDB764
S1133630DEB72D97CDBFDEBF80919D228111109200
S11336409D228CE20E94F519182F85FF09C08091F4
S113365044219091452101968093442190934521E2
S113366011234CF48091442190914521019680933B
S113367044219093452110FF2AC0FE01329688E030
S1133680DF011D928A95E9F785E60E94F519082F56
S11336900F700930E0F4402FBE016E5F7F4F86E665
S11336A00E94CE191A861B861C861D8644E0BE0124
S11336B0665F7F4F81E60E94CE198B85882339F09F
S11336C06C8570E0402FCE0102960E94D11B11FF41
S11336D02AC0FE01329688E0DF011D928A95E9F73F
S11336E085E70E94F519182F1F701930E0F4412F57
S11336F0BE016E5F7F4F86E70E94CE191A861B8635
S11337001C861D8644E0BE01665F7F4F81E70E94F0
S1133710CE198B85882339F06C8570E0412FCE015A
S113372002960E94D11B198241E0BE016F5F7F4F58
S11337308CE20E9429192D96CDBFDEBFDF91CF9177
S1133740FF91EF91BF91AF919F918F917F916F9175
S11337505F914F913F912F911F910F910F900BBE4D
S11337600F900ABE0F9009BE0F9008BE0F900FBEB7
S11337700F901F9018951092D323109261238FEF0E
S113378080936223109264231092602380936323B6
S11337900895F8949091D323789481E0911180E076
S11337A00895FF920F931F93CF93DF93F82E092F61
S11337B0EB01142FF89480916223082E000C990BCE
S11337C0019664E670E00E94886B80936223809186
S11337D0D3238F5F8093D32378948091D32384362B
S11337E0C0F18CE89FE00E942B3360E081E00E94EE
S11337F0B43283E89FE00E9489328FE0809358219D
S113380028C0811768F4309162232081DC0148E0EC
S11338103402A00DB11D1124A456BB4D2C930BC032
S113382020916223DC0138E02302A00DB11D112494
S1133830A456BB4D1C92019631968830910509F728
S1133840E0916223EE0FFF0BEC52FC4DC083D18359
S113385005C0EF2DF02F80E090E0D3CFDF91CF9122
S11338601F910F91FF9008958091D323882331F104
S1133870F894E0916123EE0FFF0BEC52FC4D308184
S1133880209161238091D32381508093D32380910D
S11338906123082E000C990B019664E670E00E94E7
S11338A0886B80936123789488E02802B001112406
S11338B064567B4D832F90E00E94451F0895FC01C0
S11338C0F89480916323082E000C990B01966AE00A
S11338D070E00E94886B80936323809164238F5FE0
S11338E080936423789480916423A09163238BE074
S11338F0A802D0011124AB59BC4D8BE001900D926C
S11339008A95E1F7089580916423882309F1E09171
S113391060238BE0E802F0011124EB59FC4D809107
S1133920642381508093642380916023082E000CCB
S1133930990B01966AE070E00E94886B8093602383
S11339409F012D5F3F4F4281618180810E94471A10
S11339500895CF93DF931F92CDB7DEB789839E017D
S11339602F5F3F4F41E060E08EEE90E00E94221A0C
S11339702FEF89EF90E0215080409040E1F700C0A4
S113398000000F90DF91CF910895CF93DF93CDB7CF
S1133990DEB72F97CDBFDEBF8091B022898380919F
S11339A0BA228A838091AA2220E8829FC00111242E
S11339B09091A921892B8B838091C92120E8829F32
S11339C0C001112490915621892B8C838091A122CE
S11339D020E1829FC00111249091B021990F990F89
S11339E0892B9091C522892B8D838091FB2220E124
S11339F0829FC001112490918221892B8E83809112
S1133A00F12120E1829FC00111249091A922892BE8
S1133A108F839E012F5F3F4F47E060E08CEC90E086
S1133A200E94221A8FEF99EF20E0815090402040AD
S1133A30E1F700C000008091AD218983809140238B
S1133A40909141239A8380914023909141238B83C9
S1133A50809102238C839E012F5F3F4F44E060E0FE
S1133A608DEC90E00E94221A8FEF99EF20E08150B4
S1133A7090402040E1F700C000002F96CDBFDEBF8C
S1133A80DF91CF910895CF93DF9300D01F92CDB7EC
S1133A90DEB78091A32289838091B7228A838091A3
S1133AA042238B839E012F5F3F4F43E060E081EA16
S1133AB090E00E94221A2FEF89EF90E0215080407D
S1133AC09040E1F700C000002396CDBFDEBFDF9138
S1133AD0CF910895CF93DF931F92CDB7DEB787E4DC
S1133AE089839E012F5F3F4F41E060E087E490E0CF
S1133AF00E94221A2FEF89EF90E0215080409040DD
S1133B00E1F700C000000F90DF91CF910895CF93AB
S1133B10DF93CDB7DEB72897CDBFDEBF84E38983BB
S1133B2081E18A8380914A238B838091A6228C83AE
S1133B30809180218D838091AB218E839E012F5FA4
S1133B403F4F46E060E082EA90E00E94221A2FEFA5
S1133B5089EF90E0215080409040E1F700C00000E0
S1133B6082E28A83809179218B838091C4228C8321
S1133B708091EB218D83809195228E838091D42234
S1133B808F839E012F5F3F4F47E060E082EA90E021
S1133B900E94221A2FEF89EF90E02150804090403C
S1133BA0E1F700C000002896CDBFDEBFDF91CF91C2
S1133BB00895CF93DF93CDB7DEB72897CDBFDEBF8F
S1133BC080914A2389839E012F5F3F4F41E060E04B
S1133BD080E790E00E94221A2FEF89EF90E02150B5
S1133BE080409040E1F700C000002896CDBFDEBFC2
S1133BF0DF91CF910895CF93DF93CDB7DEB72897A8
S1133C00CDBFDEBF8091A62289839E012F5F3F4FE7
S1133C1041E060E081E790E00E94221A2FEF89EFF3
S1133C2090E0215080409040E1F700C000002896C9
S1133C30CDBFDEBFDF91CF910895CF93DF93CDB792
S1133C40DEB72897CDBFDEBF8091802189839E0196
S1133C502F5F3F4F41E060E082E790E00E94221A2C
S1133C602FEF89EF90E0215080409040E1F700C0B1
S1133C7000002896CDBFDEBFDF91CF910895CF938A
S1133C80DF93CDB7DEB72897CDBFDEBF8091792112
S1133C9089839E012F5F3F4F41E060E083E790E01E
S1133CA00E94221A2FEF89EF90E02150804090402B
S1133CB0E1F700C000002896CDBFDEBFDF91CF91B1
S1133CC00895CF93DF93CDB7DEB72897CDBFDEBF7E
S1133CD08091C42289839E012F5F3F4F41E060E0C1
S1133CE084E790E00E94221A2FEF89EF90E02150A0
S1133CF080409040E1F700C000002896CDBFDEBFB1
S1133D00DF91CF910895CF93DF93CDB7DEB7289796
S1133D10CDBFDEBF8091AB2189839E012F5F3F4FD2
S1133D2041E060E085E790E00E94221A2FEF89EFDE
S1133D3090E0215080409040E1F700C000002896B8
S1133D40CDBFDEBFDF91CF910895CF93DF93CDB781
S1133D50DEB72897CDBFDEBF8091EB2189839E011A
S1133D602F5F3F4F41E060E086E790E00E94221A17
S1133D702FEF89EF90E0215080409040E1F700C0A0
S1133D8000002896CDBFDEBFDF91CF910895CF9379
S1133D90DF93CDB7DEB72897CDBFDEBF80919522E4
S1133DA089839E012F5F3F4F41E060E087E790E009
S1133DB00E94221A2FEF89EF90E02150804090401A
S1133DC0E1F700C000002896CDBFDEBFDF91CF91A0
S1133DD00895CF93DF93CDB7DEB72897CDBFDEBF6D
S1133DE08091D42289839E012F5F3F4F41E060E0A0
S1133DF088E790E00E94221A2FEF89EF90E021508B
S1133E0080409040E1F700C000002896CDBFDEBF9F
S1133E10DF91CF910895CF93DF931F92CDB7DEB793
S1133E2019829E012F5F3F4F40E061E08AEA90E0F3
S1133E300E94221A2FEF89EF90E021508040904099
S1133E40E1F700C000000F90DF91CF910895CF9368
S1133E50DF931F92CDB7DEB78091AF2289839E0195
S1133E602F5F3F4F41E060E084EA90E00E94221A15
S1133E702FEF89EF90E0215080409040E1F700C09F
S1133E8000000F90DF91CF910895CF92DF92EF92CF
S1133E90FF920F931F93CF93DF93CDB7DEB7659750
S1133EA0CDBFDEBF10924323825591098D38910511
S1133EB008F083C48B0182509F4FFC010C949C6BCF
S1133EC0DB018C91813191F4109294228CEB91E17D
S1133ED00E942B3360E081E00E94B43289EA91E1D0
S1133EE00E948932F8940E941E35FDCF8130A1F4DE
S1133EF0109294228BE991E10E942B3360E081E0DF
S1133F000E94B4328FE891E10E9489320E941E35EA
S1133F1081E08093922251C48230D1F48091FD22B9
S1133F2081114BC41092942281E08093FD228091F0
S1133F305E23811142C481E891E10E942B3360E049
S1133F4081E00E94B4328FE691E10E94893235C447
S1133F508530B1F480915E2381112FC41092942294
S1133F6081E080935E238BE591E10E942B3360E036
S1133F7081E00E94B43289E491E10E9489321DC437
S1133F80863001F580915E23882309F416C41092CB
S1133F90942210925E238091FD22882369F08BE3A2
S1133FA091E10E942B3360E081E00E94B43289E207
S1133FB091E10E94893201C40E94912681E080939C
S1133FC09222FBC3833079F48091FD22813009F081
S1133FD0F4C3109294221092FD220E94912681E053
S1133FE080939222EAC3873081F487E191E10E94B1
S1133FF02B3360E081E00E94B4328EE091E10E94B4
S11340008932F8940E941E35FDCF883081F489EFFF
S113401090E10E942B3360E081E00E94B43284EE90
S113402090E10E9489328AE080935821C6C3893086
S113403081F489ED90E10E942B3360E081E00E94DD
S1134040B43280ED90E10E9489328FE08093582150
S1134050B4C38A3081F486EC90E10E942B3360E093
S113406081E00E94B4328DEB90E10E9489328FE0AE
S113407080935821A2C38B3039F581E08093CE21FF
S11340808091AA21853080F48FEA90E10E942B333D
S113409060E081E00E94B43283EA90E10E948932B8
S11340A085E08093582189C385E990E10E942B33F0
S11340B060E081E00E94B43280E990E10E9489329C
S11340C08FE08093582179C38C3091F4109294221C
S11340D081E08093E6228FE790E10E942B3360E039
S11340E081E00E94B43282E790E10E94893265C384
S11340F08D3091F41092942281E08093C92281E65C
S113410090E10E942B3360E081E00E94B43285E5A7
S113411090E10E94893251C38E3051F4109294225E
S11341201092C9220E94912681E08093922245C375
S11341308F3091F41092942281E08093BD2284E424
S113414090E10E942B3360E081E00E94B43287E367
S113415090E10E94893231C3803109F02EC310925C
S1134160942281E08093B32285E290E10E942B3374
S113417060E081E00E94B43288E190E10E948932DB
S11341801CC3FB01818190E0982F88272081820F36
S1134190911D0E94A31711C30E940B1F8091D82167
S11341A081110BC3D8018C918093D821823A29F4D0
S11341B085E090E10E942B3306C0833A21F482EF1C
S11341C09FE00E942B3360E081E00E94B43285EED0
S11341D09FE00E948932F1C281E0809391220E9483
S11341E0AE2FEBC2FB0180818093AD21E6C2DB01DF
S11341F08C918093E5228C918A3A29F488E080930B
S1134200260710924923F80180818B3B09F0D5C21F
S11342108091B022882321F081E08093492305C056
S113422088E080932507109249238091F021882308
S113423021F080E880932606C0C280E8809325069A
S1134240BCC2DB018C918093A4228C918A3A29F41C
S113425080E4809306071092B621F80180818B3B9D
S113426019F481E08093B621D8018C918C3C09F03B
S1134270A4C280E4809305071092B6219EC2FB017C
S11342808081813169F4818180934A238281809382
S1134290A62283818093802184818093AB218DC267
S11342A0823209F08AC2818180937921828180934C
S11342B0C42283818093EB2184818093952285811C
S11342C08093D4227AC28091AF22882311F08D3D4D
S11342D0C1F4F801808190E0982F88272181820F12
S11342E0911D8093F2219093F321828190E0982F85
S11342F088272381820F911D80934D2390934E2311
S11343005CC28A3A29F5DB018C9190E0982F8827CA
S113431011962C91820F911D8093F2219093F32199
S113432085ED9FE00E942B3360E081E00E94B4326F
S113433086EC9FE00E9489320E941E350E941E3541
S11343400E9491268BEB8093AF220E94271F35C2D7
S11343508B3B09F032C2FB01808190E0982F8827C3
S11343602181820F911D80934D2390934E2381EBE5
S11343709FE00E942B3360E081E00E94B432E09120
S11343804D23F0914E23E0904D23F0904E23409125
S1134390F2215091F3210091F2211091F3219F0118
S11343A0369527953695279536952795A5ECB0E251
S11343B00E94A66B929582958F7089279F7089279A
S11343C00F2EF8EECF2EF3E0DF2EF02D8C9D900112
S11343D08D9D300D9C9D300D1124E21BF30BFF933A
S11343E0EF9397013695279536952795369527951A
S11343F00E94A66B929582958F7089279F7089275A
S11344009F938F939A0136952795369527953695E0
S113441027950E94A66B929582958F7089279F702D
S113442089278C9D90018D9D300D9C9D300D11240C
S1134430421B530B5F934F939801369527953695FE
S11344402795369527950E94A66B929582958F7035
S113445089279F7089279F938F9386E090E29F938B
S11344608F938E010F5F1F4F1F930F930E94D86B82
S1134470C8010E944F328CEC8093AF220E94271F08
S11344800E941E35FFEF2FE483ECF1502040804062
S1134490E1F700C000000E94912682E88093CD21BC
S11344A083EA9FE00E942B3360E081E00E94B432F3
S11344B087E99FE00E948932CDBFDEBF7EC1FB0148
S11344C0808190E0982F88272181820F911D80930D
S11344D0CB219093CC2171C1DB018C918B3B09F0F2
S11344E06CC111968C91119790E0982F88271296A1
S11344F02C91820F911D80934B2390934C23109207
S1134500E4225BC1FB018081823A31F481E0809333
S113451093220E94431D0AC0833A41F481E08093B0
S11345205F238091932281110BC047C18091932214
S1134530882309F442C180915F23882309F43DC193
S113454081E08093CA2239C181E08093A52235C1DC
S1134550DB018C918130D1F4E6E4F1E211968C9187
S11345601197808312968C911297818313968C9164
S11345701397828314968C911497838315968C9148
S11345801597848316968C91858317C18230D1F454
S1134590FB018181E6E4F1E28683DB0112968C91D2
S11345A01297878313968C911397808714968C9116
S11345B01497818715968C911597828716968C91FE
S11345C08387FBC0833009F0F8C0FB018181E6E4F6
S11345D0F1E28487DB0112968C918587EEC0FB01A2
S11345E080818130D9F4EAEBF1E2DB0111968C9100
S11345F01197808312968C911297818313968C91D4
S11346001397828314968C911497838315968C91B7
S11346101597848316968C918583CFC08230D1F40C
S1134620FB018181EAEBF1E28683DB0112968C9136
S11346301297878313968C911397808714968C9185
S11346401497818715968C911597828716968C916D
S11346508387B3C0833009F0B0C0FB018181EAEBEA
S1134660F1E28487DB0112968C918587A6C0FB0159
S1134670808190E0FC013197EE30F10508F09DC097
S1134680E557FE4F0C949C6BDB0112968C9190E0E5
S11346908093EC219093ED2190C0FB01828190E006
S11346A08093F9229093FA2288C0DB0112968C91B0
S11346B090E08093C6229093C7227FC0FB01828141
S11346C090E08093E8219093E92177C0DB01129672
S11346D08C9190E080937B2190937C216EC0FB01B0
S11346E0828190E0809303239093042366C0DB01CE
S11346F012968C9190E080939E2290939F225DC0AD
S1134700FB01828190E08093CF219093D02155C00A
S1134710DB0112968C9190E080934523909346237D
S11347204CC0FB01828190E08093F6229093F722A3
S113473044C0DB0112968C9190E08093B121909358
S1134740B2213BC0FB01828190E08093B821909319
S1134750B92133C0DB0112968C9190E08093F3224F
S11347609093F4222AC0FB01828190E08093B822C6
S11347709093B92222C08091AA218A30F0F093E06C
S113478088ED08B618BE84BF9093800080918200A3
S113479081FDFCCF08BEFFCF8091AA218A3068F04A
S11347A093E088ED08B618BE84BF90938000809192
S11347B0820081FDFCCF08BEFFCF6596CDBFDEBF72
S11347C0DF91CF911F910F91FF90EF90DF90CF90E9
S11347D00895CF93DF931F92CDB7DEB719829E0160
S11347E02F5F3F4F41E060E086E990E00E94221A8B
S11347F02FEF89EF90E0215080409040E1F700C016
S113480000000F90DF91CF910895CF93DF931F9213
S1134810CDB7DEB789839E012F5F3F4F41E060E053
S11348208CEA90E00E94221A2FEF89EF90E0215049
S113483080409040E1F700C000000F90DF91CF91DD
S11348400895CF93DF931F92CDB7DEB719829E01EF
S11348502F5F3F4F41E060E083E990E00E94221A1D
S11348602FEF89EF90E0215080409040E1F700C0A5
S113487000000F90DF91CF910895CF93DF931F92A3
S1134880CDB7DEB781EA89839E012F5F3F4F41E0B8
S113489060E08EED90E00E94221A2FEF89EF90E005
S11348A0215080409040E1F700C000000F90DF915C
S11348B0CF910895EF92FF920F931F93CF93DF93BD
S11348C0CDB7DEB72897CDBFDEBF823A31F0833A49
S11348D031F0813A09F061C004C082E503C083E588
S11348E001C081E58B0191E09983FB0190819A835A
S11348F091819B8392819C8393819D8394819E83E8
S113490095819F83E82EF12C9E012F5F3F4F47E056
S113491060E0C7010E94221AFFEF29EF80E0F15006
S113492020408040E1F700C0000082E08983F80164
S113493086818A8387818B8380858C8381858D831F
S113494082858E8383858F839E012F5F3F4F47E04F
S113495060E0C7010E94221AFFEF29EF80E0F150C6
S113496020408040E1F700C0000083E08983F80123
S113497084858A8385858B839E012F5F3F4F43E027
S113498060E0C7010E94221AFFEF29EF80E0F15096
S113499020408040E1F700C000002896CDBFDEBF74
S11349A0DF91CF911F910F91FF90EF900895CF93D6
S11349B0DF931F92CDB7DEB719829E012F5F3F4F61
S11349C041E060E082E590E00E94221A2FEF83EC40
S11349D099E0215080409040E1F700C000000F9022
S11349E0DF91CF910895CF93DF931F92CDB7DEB7B8
S11349F019829E012F5F3F4F41E060E083E590E024
S1134A000E94221A2FEF83EC99E0215080409040BD
S1134A10E1F700C000000F90DF91CF910895CF938C
S1134A20DF931F92CDB7DEB719829E012F5F3F4FF0
S1134A3041E060E089E990E00E94221A2FEF89EFBB
S1134A4090E0215080409040E1F700C000000F90BA
S1134A50DF91CF910895CF93DF931F92CDB7DEB747
S1134A6019829E012F5F3F4F41E060E081E990E0B1
S1134A700E94221A0F90DF91CF910895CF93DF9374
S1134A801F92CDB7DEB78091B72289839E012F5F35
S1134A903F4F41E060E081E890E00E94221A2FEF4E
S1134AA089EF90E0215080409040E1F700C0000081
S1134AB00F90DF91CF910895CF93DF931F92CDB7DD
S1134AC0DEB78091A32289839E012F5F3F4F41E08F
S1134AD060E082E890E00E94221A2FEF89EF90E0D4
S1134AE0215080409040E1F700C000000F90DF911A
S1134AF0CF910895CF93DF931F92CDB7DEB7809106
S1134B00422389839E012F5F3F4F41E060E083E8A9
S1134B1090E00E94221A2FEF89EF90E0215080400C
S1134B209040E1F700C000000F90DF91CF9108950D
S1134B3088E88093020680930A0695E0909309061C
S1134B4082E0809317068093130620E420930106E5
S1134B5028E22093220620932A0690932906809324
S1134B6033068093350627ED2093210620932506EE
S1134B7026EA2093E20626E82093EA0620E2209320
S1134B80EB069093E9068093F1068093F206109267
S1134B90F5068093F70629E52093E1062093E506C0
S1134BA021EA2093020721E220930A0720E82093B8
S1134BB00B07909309078093100780931507809340
S1134BC017072EE5209301072093050726E9209374
S1134BD0220780932A0724E920932B07909329071F
S1134BE010923107809332078093340780933707FC
S1134BF089E6809321078093250780E090E0FC01FB
S1134C00E752FE4D1082FC01EE0FFF1FE55AFE4DE8
S1134C1010821182FC01EB52FD4D1082FC01E95F10
S1134C20FC4D108201968F30910549F7089590E06C
S1134C308F30910508F073C0FC01E756FE4F0C94C9
S1134C409C6B8091080683FB992790F981E0892762
S1134C500895809108068095881F8827881F0895E5
S1134C608091280683FB992790F981E0892708958C
S1134C708091280685FB992790F981E0892708957A
S1134C808091E8068695817091E089270895809146
S1134C90E80682FB992790F981E08927089580919D
S1134CA0E80685FB992790F981E08927089580918A
S1134CB0E8068095881F8827881F08958091080733
S1134CC08095817008958091080785FB992790F954
S1134CD081E089270895809108078095881F882797
S1134CE0881F0895809128078695817091E089270F
S1134CF008958091280782FB992790F981E08927FC
S1134D000895809128078295817091E089270895FC
S1134D10809128078095881F8827881F089580E040
S1134D20089580E090E0FC01E752FE4D1082FC0102
S1134D30EE0FFF1FE55AFE4D10821182FC01EB526B
S1134D40FD4D1082FC01E95FFC4D108201968F300D
S1134D50910549F708951F920F920FB60F921124EF
S1134D6008B60F9218BE8F9380910806882364F0CA
S1134D708091DA21811117C081E08093DA211092A9
S1134D805D2110925E210FC08091080683FD0BC047
S1134D908091D921811107C081E08093D92110929B
S1134DA05B2110925C218F910F9008BE0F900FBE73
S1134DB00F901F9018951F920F920FB60F92112407
S1134DC008B60F9218BE8F938091280685FD0BC0FC
S1134DD08091DC21811107C081E08093DC21109255
S1134DE061211092622180918221811117C08091EA
S1134DF0F121811113C08091D82181110FC08091BC
S1134E00280683FD0BC08091DB21811107C081E05E
S1134E108093DB2110925F21109260218F910F907B
S1134E2008BE0F900FBE0F901F9018951F920F92FF
S1134E300FB60F92112408B60F9218BE8F9380916B
S1134E40DD2181110BC08091D821811107C081E03F
S1134E508093DD2110926321109264218091DE21E0
S1134E6081110FC08091E80682FD0BC08091D8218A
S1134E70811107C081E08093DE2110926521109298
S1134E8066218091D32281110CC0809182218111ED
S1134E9017C08091F121811113C08091D821811113
S1134EA00FC08091E80688235CF08091E021811195
S1134EB007C081E08093E0211092692110926A2159
S1134EC08F910F9008BE0F900FBE0F901F901895F2
S1134ED01F920F920FB60F92112408B60F9218BEAC
S1134EE08F9380918221811110C08091F1218111D1
S1134EF00CC08091B022882341F08091E522882360
S1134F0021F08091D821882321F080915D2388238A
S1134F10C9F180915D23811126C08091E80685FD49
S1134F2014C080914723811110C08091F82281110F
S1134F300CC081E08093DB221092672110926821DB
S1134F4080934723109257211DC0809147238823C3
S1134F50C9F0809157218330A8F081E08093F82232
S1134F60109247230FC08091E80685FD0BC0809105
S1134F70DF21811107C081E08093DF211092672136
S1134F80109268218F910F9008BE0F900FBE0F9062
S1134F901F9018951F920F920FB60F92112408B606
S1134FA00F9218BE8F938091080780FD0BC08091EB
S1134FB0E121811107C081E08093E12110926B21EE
S1134FC010926C218091D32281110CC08091822196
S1134FD0811117C08091F121811113C08091D821D2
S1134FE081110FC08091080785FD0BC08091E221DB
S1134FF0811107C081E08093E22110926D2110920B
S11350006E218F910F9008BE0F900FBE0F901F90CE
S113501018951F920F920FB60F92112408B60F9293
S113502018BE8F938091080788237CF08091E32138
S113503081110BC08091D821811107C081E0809338
S1135040E32110926F21109270218F910F9008BE6E
S11350500F900FBE0F901F9018951F920F920FB6CE
S11350600F92112408B60F9218BE8F9380912807CF
S113507081FD14C080919722811110C08091B522C6
S113508081110CC081E08093E02210927121109272
S11350907221809397221092AB220DC080919722A7
S11350A0882349F08091AB22833028F081E08093FB
S11350B0B522109297228F910F9008BE0F900FBEC9
S11350C00F901F9018951F920F920FB60F921124F4
S11350D008B60F9218BE8F9380918221811144C02B
S11350E08091F12181113CC08091D821811133C07C
S11350F08091280784FD2FC08091E62181112BC067
S113510081E08093E621109275211092762123C0CC
S11351108091280788235CF08091E721811107C0E2
S113512081E08093E7211092772110927821809179
S1135130D821811119C08091280782FD15C0809162
S1135140E521811111C081E08093E5211092732142
S11351501092742109C08091D8218823C9F2E7CF25
S11351608091F121882319F38F910F9008BE0F903D
S11351700FBE0F901F9018950F931F93CF93DF933B
S1135180CDB7DEB72697CDBFDEBFE3EDF1E28FE00A
S113519080838CE181838DE2828382E483838CE546
S11351A08483EFEBF2E288E2808387E3818386E401
S11351B0828385E5838384E684831092062325E233
S11351C037E080E4D9018C9380930506E5E2F6E0AC
S11351D090E1908354E0508342E040831092052391
S11351E005E017E0D8019C9398E09C935C934C9362
S11351F065EE76E0DB018C9341E04093A922808345
S11352001092C9211092B02150E850831092AA2222
S11352101092BA22D8018C931092C5221092A12226
S113522040831092A0221092FB22FB0190831092E3
S11352308221D9014C931092B0229C938BEB8093E2
S1135240E5228CEC8093A42210925D23EFECF1E034
S113525080818823ECF380E690E00E94C16E8A3A54
S1135260B1F086E0E0E0F0E2DE01119601900D92EB
S11352708A95E1F746E050E061E670E0CE010196E0
S11352800E94D66E6AEA80E690E00E94E66EEFEC39
S1135290F1E080818823ECF346E050E061E670E0C1
S11352A08DEC92E20E94B56EEFECF1E080818823F0
S11352B0ECF383E290E00E94C16E80937F212696F6
S11352C0CDBFDEBFDF91CF911F910F9108958091E3
S11352D08221882391F060E080E00E94B43281E171
S11352E096E10E94893260E081E00E94B43284E059
S11352F096E10E94893281E008958091F12188230A
S113530089F060E080E00E94B43285EF95E10E946C
S1135310893260E081E00E94B43288EE95E10E9417
S1135320893281E008950E9467298111E0C080914B
S11353307F218A3A09F4DBC060E080E00E94B43245
S11353408EE196E10E94893280E280932607EDEC9B
S1135350F2E282818093C92183818093AA2281E031
S11353608093B02180818093062380E48093250775
S113537080930506E5E2F6E080E1808384E08083A3
S113538082E080838091C9218130E9F480910623F1
S1135390823081F028F4882399F0813071F013C0B1
S11353A0833029F0843079F482E08093260684E007
S11353B08093260680E18093260680E48093060687
S11353C080E480932607E0910623F0E0E154FD4D4C
S11353D08081809356218091CE2280930523E5E03D
S11353E0F7E080E1808388E0808384E0808382E04A
S11353F0808380E48093E5068091AA228130E9F4D9
S113540080910523823081F028F4882399F081303B
S113541071F013C0833029F0843079F480E48093F0
S1135420E60682E08093060784E08093060788E01E
S11354308093060780E180930607E0910523F0E05E
S1135440ED52FE4D80818093A9218091D1228093D9
S1135450BA22843611F08B3489F480E480930607F1
S11354601092B6218091D121882321F08BE480937E
S1135470BA220DC084E68093BA2209C08091A42286
S11354808C3C29F480E4809305071092B621809126
S1135490D2228093B022843611F08B3459F4809157
S11354A0D121882321F08BE48093B02203C084E6C9
S11354B08093B0228091E5228A3A29F488E080938F
S11354C02607109249238091E5228B3B69F4809151
S11354D0B022882321F081E08093492305C088E02D
S11354E080932507109249238BE20E94A91C0895FA
S11354F0A5E2B7E020E42C9320930506E5E2F6E06C
S113550080E1808344E0408332E030839091C9217C
S11355109093EA211092C921E5E0F7E0808398E0B6
S1135520908340833083E5EEF6E020832091AA2225
S11355302093A8211092AA229C932091B022209318
S113554096221092B022109249231092FB2290834B
S11355508093E60608958091EA218093C9218823E7
S1135560E9F080910623823081F028F4882399F0B1
S1135570813071F013C0833029F0843079F482E0F3
S11355808093260684E08093260680E18093260695
S113559080E48093060680E480932607E091062346
S11355A0F0E0E154FD4D8081809356218091A82143
S11355B08093AA228130E9F480910523823081F01E
S11355C028F4882399F0813071F013C0833029F0D6
S11355D0843079F480E48093E60682E080930607C1
S11355E084E08093060788E08093060780E1809337
S11355F00607E0910523F0E0ED52FE4D8081809393
S1135600A921809196228093B022843611F08B34A4
S113561059F48091D121882321F08BE48093B02226
S113562003C084E68093B0228091E5228A3A29F46B
S113563088E080932607109249238091E5228B3BD2
S113564069F48091B022882321F081E0809349237A
S113565005C088E0809325071092492380E1809358
S1135660E5060895809182218823D9F060E080E0E6
S11356700E94B4328BED95E10E94893260E081E0B2
S11356800E94B4328EEC95E10E94893210928221FC
S113569081E08093F1218093250780E18093E606E1
S11356A008958091F1218823A9F060E080E00E94B0
S11356B0B43280EC95E10E94893260E081E00E947E
S11356C0B43283EB95E10E9489320E94AB2A109296
S11356D0F121089560E080E00E94B43286EA95E109
S11356E00E94893260E081E00E94B43289E995E148
S11356F00E9489320E94782A81E08093F12180916E
S1135700A4228A3A19F481E08093B6210895A5E28F
S1135710B7E090E49C9390930506E5E2F6E080E11F
S1135720808334E0308322E020834091C921409378
S1135730EA211092C921E5E0F7E0808388E08083C4
S113574030832083E5EEF6E090839091AA22909333
S1135750A8211092AA228C939091B0229093962221
S11357601092B022109249231092FB228083089554
S11357708091EA218093C9218823E9F0809106234E
S1135780823081F028F4882399F0813071F013C0BD
S1135790833029F0843079F482E08093260684E013
S11357A08093260680E18093260680E48093060693
S11357B080E480932607E0910623F0E0E154FD4D58
S11357C08081809356218091A8218093AA228130E0
S11357D0E9F480910523823081F028F4882399F03C
S11357E0813071F013C0833029F0843079F480E47F
S11357F08093E60682E08093060784E080930607A0
S113580088E08093060780E180930607E0910523F2
S1135810F0E0ED52FE4D80818093A9218091962283
S11358208093B022843611F08B3459F48091D121C5
S1135830882321F08BE48093B02203C084E6809314
S1135840B0228091E5228A3A29F488E080932607E1
S1135850109249238091E5228B3B69F48091B02218
S1135860882321F081E080934923089588E0809380
S113587025071092492308958091F1218823D9F0B6
S113588060E080E00E94B4328CE895E10E948932A5
S113589060E081E00E94B4328FE795E10E94893292
S11358A01092F12181E08093822190E19093E506AA
S11358B0809326070895809182218823C1F0109255
S11358C0822181E08093250760E080E00E94B43269
S11358D082E795E10E94893260E081E00E94B4325F
S11358E085E695E10E9489320E94B82B089581E0F3
S11358F0809382218093260760E080E00E94B43286
S113590088E595E10E94893260E081E00E94B4322A
S11359108BE495E10E9489320E94872B0895CF93EE
S1135920DF93CDB7DEB72697CDBFDEBFF894809165
S113593006238983809105238A838091C9218B83DF
S11359408091AA228C838091BA228D838091B02287
S11359508E83EFECF1E080818823ECF381E0809387
S1135960B02146E050E061E670E0CE0101960E946D
S1135970D66E46E050E061E670E08DEC92E20E9463
S1135980B56E789481E30E94A91C2696CDBFDEBF34
S1135990DF91CF9108950E9467298111BBC0809146
S11359A07F218A3A09F4B6C080E28093250780916A
S11359B0C92181111FC080E48093260781E0809370
S11359C0C921109206239091BF229093562180936F
S11359D0B02160E080E00E94B4328EE395E10E9441
S11359E0893260E081E00E94B43281E395E10E9453
S11359F08932089580910623813039F138F082305C
S1135A0009F445C0833009F464C0089580E48093A8
S1135A100606E0910623EF5FE0930623F0E0E154ED
S1135A20FD4D80818093562160E080E00E94B43275
S1135A3084E295E10E94893260E081E00E94B43200
S1135A4087E195E10E948932089580E180932606DA
S1135A50E0910623EF5FE0930623F0E0E154FD4D6F
S1135A6080818093562181E08093B02160E080E0C2
S1135A700E94B4328AE095E10E94893260E081E0BC
S1135A800E94B4328DEF94E10E948932089584E03B
S1135A9080932606E0910623EF5FE0930623F0E06F
S1135AA0E154FD4D80818093562181E08093B021A3
S1135AB060E080E00E94B43280EF94E10E94893279
S1135AC060E081E00E94B43282EE94E10E94893267
S1135AD0089582E080932606E0910623EF5FE09329
S1135AE00623F0E0E154FD4D80818093562181E04E
S1135AF08093B02160E080E00E94B43285ED94E1AF
S1135B000E94893260E081E00E94B43287EC94E123
S1135B100E94893208950E9467298111B9C0809139
S1135B207F218A3A09F4B4C080E2809325078091EA
S1135B300623823009F447C028F4882351F08130C9
S1135B4001F10895833009F460C0843009F47FC002
S1135B50089580E4809325071092C9211092B02102
S1135B6060E080E00E94B4328AEB94E10E948932C2
S1135B7060E081E00E94B4328DEA94E10E948932AF
S1135B80089580E480930506E0910623E150E093B4
S1135B900623F0E0E154FD4D80818093562181E09D
S1135BA08093B02160E080E00E94B43280EA94E106
S1135BB00E94893260E081E00E94B43283E994E17A
S1135BC00E948932089580E180932506E09106239E
S1135BD0E150E0930623F0E0E154FD4D8081809391
S1135BE0562181E08093B02160E080E00E94B432CD
S1135BF086E894E10E94893260E081E00E94B43238
S1135C0089E794E10E948932089584E0809325060F
S1135C10E0910623E150E0930623F0E0E154FD4DCA
S1135C2080818093562181E08093B02160E080E000
S1135C300E94B4328CE694E10E94893260E081E0F3
S1135C400E94B4328FE594E10E948932089582E083
S1135C5080932506E0910623E150E0930623F0E0CB
S1135C60E154FD4D80818093562181E08093B021E1
S1135C7060E080E00E94B43282E594E10E948932BF
S1135C8060E081E00E94B43284E494E10E948932AD
S1135C9008950E9467298111B0C080917F218A3ABA
S1135CA009F4ABC080E2809325078091AA22811178
S1135CB01DC080E18093060781E08093AA221092A0
S1135CC005238091D3218093A92160E080E00E9484
S1135CD0B43287E394E10E94893260E081E00E945B
S1135CE0B4328AE294E10E948932089580910523B6
